Component: ARM Compiler 5.06 update 4 (build 422) Tool: armlink [4d35d2]

==============================================================================

Section Cross References

    startup_stm32f405xx.o(RESET) refers to startup_stm32f405xx.o(STACK) for __initial_sp
    startup_stm32f405xx.o(RESET) refers to startup_stm32f405xx.o(.text) for Reset_Handler
    startup_stm32f405xx.o(RESET) refers to stm32f4xx_it.o(i.NMI_Handler) for NMI_Handler
    startup_stm32f405xx.o(RESET) refers to stm32f4xx_it.o(i.HardFault_Handler) for HardFault_Handler
    startup_stm32f405xx.o(RESET) refers to stm32f4xx_it.o(i.MemManage_Handler) for MemManage_Handler
    startup_stm32f405xx.o(RESET) refers to stm32f4xx_it.o(i.BusFault_Handler) for BusFault_Handler
    startup_stm32f405xx.o(RESET) refers to stm32f4xx_it.o(i.UsageFault_Handler) for UsageFault_Handler
    startup_stm32f405xx.o(RESET) refers to port.o(.emb_text) for SVC_Handler
    startup_stm32f405xx.o(RESET) refers to stm32f4xx_it.o(i.DebugMon_Handler) for DebugMon_Handler
    startup_stm32f405xx.o(RESET) refers to port.o(i.SysTick_Handler) for SysTick_Handler
    startup_stm32f405xx.o(RESET) refers to stm32f4xx_it.o(i.RCC_IRQHandler) for RCC_IRQHandler
    startup_stm32f405xx.o(RESET) refers to stm32f4xx_it.o(i.SPI1_IRQHandler) for SPI1_IRQHandler
    startup_stm32f405xx.o(RESET) refers to stm32f4xx_it.o(i.SPI2_IRQHandler) for SPI2_IRQHandler
    startup_stm32f405xx.o(RESET) refers to stm32f4xx_it.o(i.USART1_IRQHandler) for USART1_IRQHandler
    startup_stm32f405xx.o(RESET) refers to stm32f4xx_it.o(i.USART2_IRQHandler) for USART2_IRQHandler
    startup_stm32f405xx.o(RESET) refers to stm32f4xx_it.o(i.USART3_IRQHandler) for USART3_IRQHandler
    startup_stm32f405xx.o(RESET) refers to stm32f4xx_it.o(i.SPI3_IRQHandler) for SPI3_IRQHandler
    startup_stm32f405xx.o(RESET) refers to stm32f4xx_it.o(i.TIM6_DAC_IRQHandler) for TIM6_DAC_IRQHandler
==============================================================================

Removing Unused input sections from the image.

    Removing main.o(.rev16_text), (4 bytes).
    Removing main.o(.revsh_text), (4 bytes).
    Removing main.o(.rrx_text), (6 bytes).
    Removing gpio.o(.rev16_text), (4 bytes).
    Removing gpio.o(.revsh_text), (4 bytes).
    Removing gpio.o(.rrx_text), (6 bytes).
    Removing freertos.o(.rev16_text), (4 bytes).
    Removing freertos.o(.revsh_text), (4 bytes).
    Removing freertos.o(.rrx_text), (6 bytes).
    Removing iwdg.o(.rev16_text), (4 bytes).
    Removing iwdg.o(.revsh_text), (4 bytes).
    Removing iwdg.o(.rrx_text), (6 bytes).
    Removing iwdg.o(i.MX_IWDG_Init), (44 bytes).
    Removing iwdg.o(.bss), (12 bytes).
    Removing rng.o(.rev16_text), (4 bytes).
    Removing rng.o(.revsh_text), (4 bytes).
    Removing rng.o(.rrx_text), (6 bytes).
    Removing rng.o(i.HAL_RNG_MspDeInit), (36 bytes).
==============================================================================

Image Symbol Table

    Local Symbols

    Symbol Name                              Value     Ov Type        Size  Object(Section)

    ../Drivers/STM32F4xx_HAL_Driver/Src/stm32f4xx_hal.c 0x00000000   Number         0  stm32f4xx_hal.o ABSOLUTE
    ../Drivers/STM32F4xx_HAL_Driver/Src/stm32f4xx_hal_cortex.c 0x00000000   Number         0  stm32f4xx_hal_cortex.o ABSOLUTE
    ../Drivers/STM32F4xx_HAL_Driver/Src/stm32f4xx_hal_dma.c 0x00000000   Number         0  stm32f4xx_hal_dma.o ABSOLUTE
    ../Drivers/STM32F4xx_HAL_Driver/Src/stm32f4xx_hal_dma_ex.c 0x00000000   Number         0  stm32f4xx_hal_dma_ex.o ABSOLUTE
    ../Drivers/STM32F4xx_HAL_Driver/Src/stm32f4xx_hal_exti.c 0x00000000   Number         0  stm32f4xx_hal_exti.o ABSOLUTE
    ../Drivers/STM32F4xx_HAL_Driver/Src/stm32f4xx_hal_flash.c 0x00000000   Number         0  stm32f4xx_hal_flash.o ABSOLUTE
    ../Drivers/STM32F4xx_HAL_Driver/Src/stm32f4xx_hal_flash_ex.c 0x00000000   Number         0  stm32f4xx_hal_flash_ex.o ABSOLUTE
    ../Drivers/STM32F4xx_HAL_Driver/Src/stm32f4xx_hal_flash_ramfunc.c 0x00000000   Number         0  stm32f4xx_hal_flash_ramfunc.o ABSOLUTE
    ../Drivers/STM32F4xx_HAL_Driver/Src/stm32f4xx_hal_gpio.c 0x00000000   Number         0  stm32f4xx_hal_gpio.o ABSOLUTE
    ../Drivers/STM32F4xx_HAL_Driver/Src/stm32f4xx_hal_iwdg.c 0x00000000   Number         0  stm32f4xx_hal_iwdg.o ABSOLUTE
    ../Drivers/STM32F4xx_HAL_Driver/Src/stm32f4xx_hal_pwr.c 0x00000000   Number         0  stm32f4xx_hal_pwr.o ABSOLUTE
    ../Drivers/STM32F4xx_HAL_Driver/Src/stm32f4xx_hal_pwr_ex.c 0x00000000   Number         0  stm32f4xx_hal_pwr_ex.o ABSOLUTE
    ../Drivers/STM32F4xx_HAL_Driver/Src/stm32f4xx_hal_rcc.c 0x00000000   Number         0  stm32f4xx_hal_rcc.o ABSOLUTE
    ../Drivers/STM32F4xx_HAL_Driver/Src/stm32f4xx_hal_rcc_ex.c 0x00000000   Number         0  stm32f4xx_hal_rcc_ex.o ABSOLUTE
    ../Drivers/STM32F4xx_HAL_Driver/Src/stm32f4xx_hal_rng.c 0x00000000   Number         0  stm32f4xx_hal_rng.o ABSOLUTE
    ../Drivers/STM32F4xx_HAL_Driver/Src/stm32f4xx_hal_spi.c 0x00000000   Number         0  stm32f4xx_hal_spi.o ABSOLUTE
    ../Drivers/STM32F4xx_HAL_Driver/Src/stm32f4xx_hal_tim.c 0x00000000   Number         0  stm32f4xx_hal_tim.o ABSOLUTE
    ../Drivers/STM32F4xx_HAL_Driver/Src/stm32f4xx_hal_tim_ex.c 0x00000000   Number         0  stm32f4xx_hal_tim_ex.o ABSOLUTE
    ../Drivers/STM32F4xx_HAL_Driver/Src/stm32f4xx_hal_uart.c 0x00000000   Number         0  stm32f4xx_hal_uart.o ABSOLUTE
    ../Middlewares/Third_Party/FreeRTOS/Source/CMSIS_RTOS/cmsis_os.c 0x00000000   Number         0  cmsis_os.o ABSOLUTE
    ../Middlewares/Third_Party/FreeRTOS/Source/croutine.c 0x00000000   Number         0  croutine.o ABSOLUTE
    ../Middlewares/Third_Party/FreeRTOS/Source/event_groups.c 0x00000000   Number         0  event_groups.o ABSOLUTE
    ../Middlewares/Third_Party/FreeRTOS/Source/list.c 0x00000000   Number         0  list.o ABSOLUTE
    ../Middlewares/Third_Party/FreeRTOS/Source/portable/MemMang/heap_4.c 0x00000000   Number         0  heap_4.o ABSOLUTE
    ../Middlewares/Third_Party/FreeRTOS/Source/portable/RVDS/ARM_CM4F/port.c 0x00000000   Number         0  port.o ABSOLUTE
    ../Middlewares/Third_Party/FreeRTOS/Source/queue.c 0x00000000   Number         0  queue.o ABSOLUTE
    ../Middlewares/Third_Party/FreeRTOS/Source/stream_buffer.c 0x00000000   Number         0  stream_buffer.o ABSOLUTE
    ../Middlewares/Third_Party/FreeRTOS/Source/tasks.c 0x00000000   Number         0  tasks.o ABSOLUTE
    ../Middlewares/Third_Party/FreeRTOS/Source/timers.c 0x00000000   Number         0  timers.o ABSOLUTE
    ../Src/freertos.c                        0x00000000   Number         0  freertos.o ABSOLUTE
    ../Src/gpio.c                            0x00000000   Number         0  gpio.o ABSOLUTE
    ../Src/iwdg.c                            0x00000000   Number         0  iwdg.o ABSOLUTE
    ../Src/main.c                            0x00000000   Number         0  main.o ABSOLUTE
    ../Src/rng.c                             0x00000000   Number         0  rng.o ABSOLUTE
    ../Src/spi.c                             0x00000000   Number         0  spi.o ABSOLUTE
    ../Src/stm32f4xx_hal_msp.c               0x00000000   Number         0  stm32f4xx_hal_msp.o ABSOLUTE
    ../Src/stm32f4xx_hal_timebase_tim.c      0x00000000   Number         0  stm32f4xx_hal_timebase_tim.o ABSOLUTE
    ../Src/stm32f4xx_it.c                    0x00000000   Number         0  stm32f4xx_it.o ABSOLUTE
    ../Src/system_stm32f4xx.c                0x00000000   Number         0  system_stm32f4xx.o ABSOLUTE
    ../Src/tim.c                             0x00000000   Number         0  tim.o ABSOLUTE
    ../Src/usart.c                           0x00000000   Number         0  usart.o ABSOLUTE
    ../clib/../cmprslib/zerorunl2.c          0x00000000   Number         0  __dczerorl2.o ABSOLUTE
    ../clib/microlib/ctype/ctype.c           0x00000000   Number         0  isblank_o.o ABSOLUTE
    ../clib/microlib/ctype/ctype.c           0x00000000   Number         0  isgraph_o.o ABSOLUTE
    ../clib/microlib/ctype/ctype.c           0x00000000   Number         0  ispunct_o.o ABSOLUTE
    ../clib/microlib/ctype/ctype.c           0x00000000   Number         0  islower_o.o ABSOLUTE
    ../clib/microlib/ctype/ctype.c           0x00000000   Number         0  isspace_c.o ABSOLUTE
    ../clib/microlib/ctype/ctype.c           0x00000000   Number         0  ctype_c.o ABSOLUTE
    ../clib/microlib/ctype/ctype.c           0x00000000   Number         0  isprint_o.o ABSOLUTE
    ../clib/microlib/ctype/ctype.c           0x00000000   Number         0  isxdigit_o.o ABSOLUTE
    ../clib/microlib/ctype/ctype.c           0x00000000   Number         0  iscntrl_o.o ABSOLUTE
    ../clib/microlib/ctype/ctype.c           0x00000000   Number         0  isupper_o.o ABSOLUTE
    ../clib/microlib/ctype/ctype.c           0x00000000   Number         0  isdigit_o.o ABSOLUTE
    ../clib/microlib/ctype/ctype.c           0x00000000   Number         0  ctype_o.o ABSOLUTE
    ../clib/microlib/ctype/ctype.c           0x00000000   Number         0  isalnum_o.o ABSOLUTE
    ../clib/microlib/ctype/ctype.c           0x00000000   Number         0  isalpha_o.o ABSOLUTE
    ../clib/microlib/ctype/ctype.c           0x00000000   Number         0  isspace_o.o ABSOLUTE
    ../clib/microlib/ctype/tolower.c         0x00000000   Number         0  tolower.o ABSOLUTE
    ../clib/microlib/ctype/toupper.c         0x00000000   Number         0  toupper.o ABSOLUTE
    ../clib/microlib/division.c              0x00000000   Number         0  uidiv.o ABSOLUTE
    ../clib/microlib/division.c              0x00000000   Number         0  uldiv.o ABSOLUTE
    ../clib/microlib/errno.c                 0x00000000   Number         0  errno.o ABSOLUTE
    ../clib/microlib/init/entry.s            0x00000000   Number         0  entry11b.o ABSOLUTE
    ../clib/microlib/init/entry.s            0x00000000   Number         0  entry.o ABSOLUTE
    ../clib/microlib/init/entry.s            0x00000000   Number         0  entry2.o ABSOLUTE
    ../clib/microlib/init/entry.s            0x00000000   Number         0  entry5.o ABSOLUTE
    ../clib/microlib/init/entry.s            0x00000000   Number         0  entry7a.o ABSOLUTE
    ../clib/microlib/init/entry.s            0x00000000   Number         0  entry7b.o ABSOLUTE
    ../clib/microlib/init/entry.s            0x00000000   Number         0  entry8a.o ABSOLUTE
    ../clib/microlib/init/entry.s            0x00000000   Number         0  entry8b.o ABSOLUTE
    ../clib/microlib/init/entry.s            0x00000000   Number         0  entry9a.o ABSOLUTE
    ../clib/microlib/init/entry.s            0x00000000   Number         0  entry9b.o ABSOLUTE
    ../clib/microlib/init/entry.s            0x00000000   Number         0  entry10a.o ABSOLUTE
    ../clib/microlib/init/entry.s            0x00000000   Number         0  entry10b.o ABSOLUTE
    ../clib/microlib/init/entry.s            0x00000000   Number         0  entry11a.o ABSOLUTE
    ../clib/microlib/longlong.c              0x00000000   Number         0  llshl.o ABSOLUTE
    ../clib/microlib/longlong.c              0x00000000   Number         0  llushr.o ABSOLUTE
    ../clib/microlib/longlong.c              0x00000000   Number         0  llsshr.o ABSOLUTE
    ../clib/microlib/malloc/malloc.c         0x00000000   Number         0  malloc.o ABSOLUTE
    ../clib/microlib/malloc/malloc.c         0x00000000   Number         0  mallocra.o ABSOLUTE
    ../clib/microlib/malloc/malloc.c         0x00000000   Number         0  malloca.o ABSOLUTE
    ../clib/microlib/malloc/malloc.c         0x00000000   Number         0  mallocr.o ABSOLUTE
    ../clib/microlib/malloc/mvars.c          0x00000000   Number         0  mvars.o ABSOLUTE
    ../clib/microlib/printf/printf.c         0x00000000   Number         0  printf1.o ABSOLUTE
    ../clib/microlib/printf/printf.c         0x00000000   Number         0  printfa.o ABSOLUTE
    ../clib/microlib/printf/printf.c         0x00000000   Number         0  printf2.o ABSOLUTE
    ../clib/microlib/printf/printf.c         0x00000000   Number         0  printf3.o ABSOLUTE
    ../clib/microlib/printf/printf.c         0x00000000   Number         0  printf4.o ABSOLUTE
    ../clib/microlib/printf/printf.c         0x00000000   Number         0  printf5.o ABSOLUTE
    ../clib/microlib/printf/printf.c         0x00000000   Number         0  printf6.o ABSOLUTE
    ../clib/microlib/printf/printf.c         0x00000000   Number         0  printf7.o ABSOLUTE
    ../clib/microlib/printf/printf.c         0x00000000   Number         0  printf8.o ABSOLUTE
    ../clib/microlib/printf/printf.c         0x00000000   Number         0  printf0.o ABSOLUTE
    ../clib/microlib/printf/printf.c         0x00000000   Number         0  printfb.o ABSOLUTE
    ../clib/microlib/printf/stubs.s          0x00000000   Number         0  stubs.o ABSOLUTE
    ../clib/microlib/stdio/putc.c            0x00000000   Number         0  putc.o ABSOLUTE
    ../clib/microlib/stdio/streams.c         0x00000000   Number         0  stdout.o ABSOLUTE
    ../clib/microlib/string/memchr.c         0x00000000   Number         0  memchr.o ABSOLUTE
    ../clib/microlib/string/memcmp.c         0x00000000   Number         0  memcmp.o ABSOLUTE
    ../clib/microlib/string/memcpy.c         0x00000000   Number         0  memcpya.o ABSOLUTE
    ../clib/microlib/string/memcpy.c         0x00000000   Number         0  memcpyb.o ABSOLUTE
    ../clib/microlib/string/memset.c         0x00000000   Number         0  memseta.o ABSOLUTE
    ../clib/microlib/string/memset.c         0x00000000   Number         0  memset.o ABSOLUTE
    ../clib/microlib/string/strchr.c         0x00000000   Number         0  strchr.o ABSOLUTE
    ../clib/microlib/string/strcpy.c         0x00000000   Number         0  strcpy.o ABSOLUTE
    ../clib/microlib/string/strlen.c         0x00000000   Number         0  strlen.o ABSOLUTE
    ../clib/microlib/string/strncmp.c        0x00000000   Number         0  strncmp.o ABSOLUTE
    ../clib/microlib/string/strncpy.c        0x00000000   Number         0  strncpy.o ABSOLUTE
    ../clib/microlib/string/strstr.c         0x00000000   Number         0  strstr.o ABSOLUTE
    ../clib/microlib/stubs.s                 0x00000000   Number         0  iusefp.o ABSOLUTE
    ../clib/scanf.c                          0x00000000   Number         0  atoi.o ABSOLUTE
    ../clib/scanf.c                          0x00000000   Number         0  atol.o ABSOLUTE
    ../clib/scanf.c                          0x00000000   Number         0  _chval.o ABSOLUTE
    ../clib/scanf.c                          0x00000000   Number         0  scanf_char.o ABSOLUTE
    ../clib/scanf.c                          0x00000000   Number         0  _sgetc.o ABSOLUTE
    ../clib/scanf.c                          0x00000000   Number         0  strtod.o ABSOLUTE
    ../clib/scanf.c                          0x00000000   Number         0  strtol.o ABSOLUTE
    ../clib/scanf.c                          0x00000000   Number         0  _scanf.o ABSOLUTE
    ../clib/scanf.c                          0x00000000   Number         0  scanf_fp.o ABSOLUTE
    ../clib/scanf.c                          0x00000000   Number         0  _strtoul.o ABSOLUTE
    ../clib/scanf.c                          0x00000000   Number         0  __0sscanf.o ABSOLUTE
    ../clib/scanf.c                          0x00000000   Number         0  _scanf_int.o ABSOLUTE
    ../fplib/microlib/d2f.c                  0x00000000   Number         0  d2f.o ABSOLUTE
    ../fplib/microlib/f2d.c                  0x00000000   Number         0  f2d.o ABSOLUTE
    ../fplib/microlib/fpadd.c                0x00000000   Number         0  dadd.o ABSOLUTE
    ../fplib/microlib/fpdiv.c                0x00000000   Number         0  ddiv.o ABSOLUTE
    ../fplib/microlib/fpepilogue.c           0x00000000   Number         0  depilogue.o ABSOLUTE
    ../fplib/microlib/fpepilogue.c           0x00000000   Number         0  fepilogue.o ABSOLUTE
    ../fplib/microlib/fpfix.c                0x00000000   Number         0  dfixi.o ABSOLUTE
    ../fplib/microlib/fpfix.c                0x00000000   Number         0  dfixul.o ABSOLUTE
    ../fplib/microlib/fpflt.c                0x00000000   Number         0  dfltul.o ABSOLUTE
    ../fplib/microlib/fpflt.c                0x00000000   Number         0  dfltui.o ABSOLUTE
    ../fplib/microlib/fpflt.c                0x00000000   Number         0  dflti.o ABSOLUTE
    ../fplib/microlib/fpmul.c                0x00000000   Number         0  dmul.o ABSOLUTE
    ../fplib/microlib/fpneg.c                0x00000000   Number         0  dneg.o ABSOLUTE
    ../fplib/microlib/fpscalb.c              0x00000000   Number         0  dscalb.o ABSOLUTE
    ../fplib/microlib/fpsqrt.c               0x00000000   Number         0  dsqrt.o ABSOLUTE
    ../mathlib/atof.c                        0x00000000   Number         0  atof.o ABSOLUTE
    ../mathlib/dunder.c                      0x00000000   Number         0  dunder.o ABSOLUTE
    ../mathlib/fabs.c                        0x00000000   Number         0  fabs.o ABSOLUTE
    ../mathlib/floor.c                       0x00000000   Number         0  floor.o ABSOLUTE
    ../mathlib/fpclassify.c                  0x00000000   Number         0  fpclassify.o ABSOLUTE
    ../mathlib/poly.c                        0x00000000   Number         0  poly.o ABSOLUTE
    ../mathlib/pow.c                         0x00000000   Number         0  pow.o ABSOLUTE
    ../mathlib/pow.c                         0x00000000   Number         0  pow_x.o ABSOLUTE
    ../mathlib/qnan.c                        0x00000000   Number         0  qnan.o ABSOLUTE
    ../mathlib/sqrt.c                        0x00000000   Number         0  sqrt_x.o ABSOLUTE
    ../mathlib/sqrt.c                        0x00000000   Number         0  sqrt.o ABSOLUTE
    ..\Drivers\STM32F4xx_HAL_Driver\Src\stm32f4xx_hal.c 0x00000000   Number         0  stm32f4xx_hal.o ABSOLUTE
    ..\Drivers\STM32F4xx_HAL_Driver\Src\stm32f4xx_hal_cortex.c 0x00000000   Number         0  stm32f4xx_hal_cortex.o ABSOLUTE
    ..\Drivers\STM32F4xx_HAL_Driver\Src\stm32f4xx_hal_dma.c 0x00000000   Number         0  stm32f4xx_hal_dma.o ABSOLUTE
    ..\Drivers\STM32F4xx_HAL_Driver\Src\stm32f4xx_hal_dma_ex.c 0x00000000   Number         0  stm32f4xx_hal_dma_ex.o ABSOLUTE
    ..\Drivers\STM32F4xx_HAL_Driver\Src\stm32f4xx_hal_exti.c 0x00000000   Number         0  stm32f4xx_hal_exti.o ABSOLUTE
    ..\Drivers\STM32F4xx_HAL_Driver\Src\stm32f4xx_hal_flash.c 0x00000000   Number         0  stm32f4xx_hal_flash.o ABSOLUTE
    ..\Drivers\STM32F4xx_HAL_Driver\Src\stm32f4xx_hal_flash_ex.c 0x00000000   Number         0  stm32f4xx_hal_flash_ex.o ABSOLUTE
    ..\Drivers\STM32F4xx_HAL_Driver\Src\stm32f4xx_hal_flash_ramfunc.c 0x00000000   Number         0  stm32f4xx_hal_flash_ramfunc.o ABSOLUTE
    ..\Drivers\STM32F4xx_HAL_Driver\Src\stm32f4xx_hal_gpio.c 0x00000000   Number         0  stm32f4xx_hal_gpio.o ABSOLUTE
    ..\Drivers\STM32F4xx_HAL_Driver\Src\stm32f4xx_hal_iwdg.c 0x00000000   Number         0  stm32f4xx_hal_iwdg.o ABSOLUTE
    ..\Drivers\STM32F4xx_HAL_Driver\Src\stm32f4xx_hal_pwr.c 0x00000000   Number         0  stm32f4xx_hal_pwr.o ABSOLUTE
    ..\Drivers\STM32F4xx_HAL_Driver\Src\stm32f4xx_hal_pwr_ex.c 0x00000000   Number         0  stm32f4xx_hal_pwr_ex.o ABSOLUTE
    ..\Drivers\STM32F4xx_HAL_Driver\Src\stm32f4xx_hal_rcc.c 0x00000000   Number         0  stm32f4xx_hal_rcc.o ABSOLUTE
    ..\Drivers\STM32F4xx_HAL_Driver\Src\stm32f4xx_hal_rcc_ex.c 0x00000000   Number         0  stm32f4xx_hal_rcc_ex.o ABSOLUTE
    ..\Drivers\STM32F4xx_HAL_Driver\Src\stm32f4xx_hal_rng.c 0x00000000   Number         0  stm32f4xx_hal_rng.o ABSOLUTE
    ..\Drivers\STM32F4xx_HAL_Driver\Src\stm32f4xx_hal_spi.c 0x00000000   Number         0  stm32f4xx_hal_spi.o ABSOLUTE
    ..\Drivers\STM32F4xx_HAL_Driver\Src\stm32f4xx_hal_tim.c 0x00000000   Number         0  stm32f4xx_hal_tim.o ABSOLUTE
    ..\Drivers\STM32F4xx_HAL_Driver\Src\stm32f4xx_hal_tim_ex.c 0x00000000   Number         0  stm32f4xx_hal_tim_ex.o ABSOLUTE
    ..\Drivers\STM32F4xx_HAL_Driver\Src\stm32f4xx_hal_uart.c 0x00000000   Number         0  stm32f4xx_hal_uart.o ABSOLUTE
    ..\GCOMPLES\Gbeep\gtwbeep.c              0x00000000   Number         0  gtwbeep.o ABSOLUTE
    ..\GCOMPLES\Gled\gtwled.c                0x00000000   Number         0  gtwled.o ABSOLUTE
    ..\GMODES\GBASEUSART\gkbaseusart.c       0x00000000   Number         0  gkbaseusart.o ABSOLUTE
    ..\GMODES\GW24Q64\gflashctl.c            0x00000000   Number         0  gflashctl.o ABSOLUTE
    ..\GMODES\GW24Q64\gw24q64.c              0x00000000   Number         0  gw24q64.o ABSOLUTE
    ..\GMODES\Gmultibutton\Gmultibutton.c    0x00000000   Number         0  gmultibutton.o ABSOLUTE
    ..\GMODES\Gtwinkle\gtwinkle.c            0x00000000   Number         0  gtwinkle.o ABSOLUTE
    ..\GMODES\Guint\gunit.c                  0x00000000   Number         0  gunit.o ABSOLUTE
    ..\GSDK\gsdk_cmd.c                       0x00000000   Number         0  gsdk_cmd.o ABSOLUTE
    ..\GSDK\gsdk_internal\Gcommand\gcommand.c 0x00000000   Number         0  gcommand.o ABSOLUTE
    ..\GSDK\gsdk_internal\Gkfifo\kfifo.c     0x00000000   Number         0  kfifo.o ABSOLUTE
    ..\GSDK\gsdk_internal\Glist\glist.c      0x00000000   Number         0  glist.o ABSOLUTE
    ..\GSDK\gsdk_internal\Gtimer\gtimer.c    0x00000000   Number         0  gtimer.o ABSOLUTE
    ..\GSDK\gsdk_internal\tslDevice.c        0x00000000   Number         0  tsldevice.o ABSOLUTE
    ..\GSDK\gsdk_internal\tslProtocol.c      0x00000000   Number         0  tslprotocol.o ABSOLUTE
    ..\GSDK\gsdk_task.c                      0x00000000   Number         0  gsdk_task.o ABSOLUTE
    ..\Middlewares\Third_Party\EasyFlash\easyflash\plugins\types\ef_types.c 0x00000000   Number         0  ef_types.o ABSOLUTE
    ..\Middlewares\Third_Party\EasyFlash\easyflash\plugins\types\struct2json\gs2j_test.c 0x00000000   Number         0  gs2j_test.o ABSOLUTE
    ..\Middlewares\Third_Party\EasyFlash\easyflash\plugins\types\struct2json\src\cJSON.c 0x00000000   Number         0  cjson.o ABSOLUTE
    ..\Middlewares\Third_Party\EasyFlash\easyflash\plugins\types\struct2json\src\s2j.c 0x00000000   Number         0  s2j.o ABSOLUTE
    ..\Middlewares\Third_Party\EasyFlash\easyflash\port\ef_port.c 0x00000000   Number         0  ef_port.o ABSOLUTE
    ..\Middlewares\Third_Party\EasyFlash\easyflash\src\easyflash.c 0x00000000   Number         0  easyflash.o ABSOLUTE
    ..\Middlewares\Third_Party\EasyFlash\easyflash\src\ef_env.c 0x00000000   Number         0  ef_env.o ABSOLUTE
    ..\Middlewares\Third_Party\EasyFlash\easyflash\src\ef_env_legacy.c 0x00000000   Number         0  ef_env_legacy.o ABSOLUTE
    ..\Middlewares\Third_Party\EasyFlash\easyflash\src\ef_env_legacy_wl.c 0x00000000   Number         0  ef_env_legacy_wl.o ABSOLUTE
    ..\Middlewares\Third_Party\EasyFlash\easyflash\src\ef_iap.c 0x00000000   Number         0  ef_iap.o ABSOLUTE
    ..\Middlewares\Third_Party\EasyFlash\easyflash\src\ef_log.c 0x00000000   Number         0  ef_log.o ABSOLUTE
    ..\Middlewares\Third_Party\EasyFlash\easyflash\src\ef_utils.c 0x00000000   Number         0  ef_utils.o ABSOLUTE
    ..\Middlewares\Third_Party\EasyLogger-master\easylogger\plugins\file\elog_file_port.c 0x00000000   Number         0  elog_file_port.o ABSOLUTE
    ..\Middlewares\Third_Party\EasyLogger-master\easylogger\port\elog_port.c 0x00000000   Number         0  elog_port.o ABSOLUTE
    ..\Middlewares\Third_Party\EasyLogger-master\easylogger\src\elog.c 0x00000000   Number         0  elog.o ABSOLUTE
    ..\Middlewares\Third_Party\EasyLogger-master\easylogger\src\elog_buf.c 0x00000000   Number         0  elog_buf.o ABSOLUTE
    ..\Middlewares\Third_Party\EasyLogger-master\easylogger\src\elog_utils.c 0x00000000   Number         0  elog_utils.o ABSOLUTE
    ..\Middlewares\Third_Party\EasyLogger-master\easylogger\src\test_elog.c 0x00000000   Number         0  test_elog.o ABSOLUTE
    ..\Middlewares\Third_Party\FreeRTOS\Source\CMSIS_RTOS\cmsis_os.c 0x00000000   Number         0  cmsis_os.o ABSOLUTE
    ..\Middlewares\Third_Party\FreeRTOS\Source\portable\RVDS\ARM_CM4F\port.c 0x00000000   Number         0  port.o ABSOLUTE
    ..\Src\freertos.c                        0x00000000   Number         0  freertos.o ABSOLUTE
    ..\Src\gpio.c                            0x00000000   Number         0  gpio.o ABSOLUTE
    ..\Src\iwdg.c                            0x00000000   Number         0  iwdg.o ABSOLUTE
    ..\Src\main.c                            0x00000000   Number         0  main.o ABSOLUTE
    ..\Src\rng.c                             0x00000000   Number         0  rng.o ABSOLUTE
    ..\Src\spi.c                             0x00000000   Number         0  spi.o ABSOLUTE
    ..\Src\stm32f4xx_hal_msp.c               0x00000000   Number         0  stm32f4xx_hal_msp.o ABSOLUTE
    ..\Src\stm32f4xx_hal_timebase_tim.c      0x00000000   Number         0  stm32f4xx_hal_timebase_tim.o ABSOLUTE
    ..\Src\stm32f4xx_it.c                    0x00000000   Number         0  stm32f4xx_it.o ABSOLUTE
    ..\Src\system_stm32f4xx.c                0x00000000   Number         0  system_stm32f4xx.o ABSOLUTE
    ..\Src\tim.c                             0x00000000   Number         0  tim.o ABSOLUTE
    ..\Src\usart.c                           0x00000000   Number         0  usart.o ABSOLUTE
    ..\\GCOMPLES\\Gbeep\\gtwbeep.c           0x00000000   Number         0  gtwbeep.o ABSOLUTE
    ..\\GCOMPLES\\Gled\\gtwled.c             0x00000000   Number         0  gtwled.o ABSOLUTE
    ..\\GMODES\\GBASEUSART\\gkbaseusart.c    0x00000000   Number         0  gkbaseusart.o ABSOLUTE
    ..\\GMODES\\GW24Q64\\gflashctl.c         0x00000000   Number         0  gflashctl.o ABSOLUTE
    ..\\GMODES\\GW24Q64\\gw24q64.c           0x00000000   Number         0  gw24q64.o ABSOLUTE
    ..\\GMODES\\Gmultibutton\\Gmultibutton.c 0x00000000   Number         0  gmultibutton.o ABSOLUTE
    ..\\GMODES\\Gtwinkle\\gtwinkle.c         0x00000000   Number         0  gtwinkle.o ABSOLUTE
    ..\\GMODES\\Guint\\gunit.c               0x00000000   Number         0  gunit.o ABSOLUTE
    ..\\GSDK\\gsdk_cmd.c                     0x00000000   Number         0  gsdk_cmd.o ABSOLUTE
    ..\\GSDK\\gsdk_internal\\Gcommand\\gcommand.c 0x00000000   Number         0  gcommand.o ABSOLUTE
    ..\\GSDK\\gsdk_internal\\Gkfifo\\kfifo.c 0x00000000   Number         0  kfifo.o ABSOLUTE
    ..\\GSDK\\gsdk_internal\\Glist\\glist.c  0x00000000   Number         0  glist.o ABSOLUTE
    ..\\GSDK\\gsdk_internal\\Gtimer\\gtimer.c 0x00000000   Number         0  gtimer.o ABSOLUTE
    ..\\GSDK\\gsdk_internal\\tslProtocol.c   0x00000000   Number         0  tslprotocol.o ABSOLUTE
    ..\\GSDK\\gsdk_task.c                    0x00000000   Number         0  gsdk_task.o ABSOLUTE
    ..\\Middlewares\\Third_Party\\EasyFlash\\easyflash\\port\\ef_port.c 0x00000000   Number         0  ef_port.o ABSOLUTE
    ..\\Middlewares\\Third_Party\\EasyFlash\\easyflash\\src\\easyflash.c 0x00000000   Number         0  easyflash.o ABSOLUTE
    ..\\Middlewares\\Third_Party\\EasyLogger-master\\easylogger\\port\\elog_port.c 0x00000000   Number         0  elog_port.o ABSOLUTE
    cdcmple.s                                0x00000000   Number         0  cdcmple.o ABSOLUTE
    cdrcmple.s                               0x00000000   Number         0  cdrcmple.o ABSOLUTE
    dc.s                                     0x00000000   Number         0  dc.o ABSOLUTE
    handlers.s                               0x00000000   Number         0  handlers.o ABSOLUTE
    init.s                                   0x00000000   Number         0  init.o ABSOLUTE
    startup_stm32f405xx.s                    0x00000000   Number         0  startup_stm32f405xx.o ABSOLUTE
    RESET                                    0x08000000   Section      392  startup_stm32f405xx.o(RESET)
    .ARM.Collect$$$$00000000                 0x08000188   Section        0  entry.o(.ARM.Collect$$$$00000000)
    .ARM.Collect$$$$00000001                 0x08000188   Section        4  entry2.o(.ARM.Collect$$$$00000001)
    .ARM.Collect$$$$00000004                 0x0800018c   Section        4  entry5.o(.ARM.Collect$$$$00000004)
    .ARM.Collect$$$$00000008                 0x08000190   Section        0  entry7b.o(.ARM.Collect$$$$00000008)
    .ARM.Collect$$$$0000000A                 0x08000190   Section        0  entry8b.o(.ARM.Collect$$$$0000000A)
    .ARM.Collect$$$$0000000B                 0x08000190   Section        8  entry9a.o(.ARM.Collect$$$$0000000B)
    .ARM.Collect$$$$0000000D                 0x08000198   Section        0  entry10a.o(.ARM.Collect$$$$0000000D)
    .ARM.Collect$$$$0000000F                 0x08000198   Section        0  entry11a.o(.ARM.Collect$$$$0000000F)
    .ARM.Collect$$$$00002712                 0x08000198   Section        4  entry2.o(.ARM.Collect$$$$00002712)
    __lit__00000000                          0x08000198   Data           4  entry2.o(.ARM.Collect$$$$00002712)
    .emb_text                                0x0800019c   Section      190  port.o(.emb_text)
    $v0                                      0x0800019c   Number         0  port.o(.emb_text)
    .text                                    0x0800025c   Section       36  startup_stm32f405xx.o(.text)
    $v0                                      0x0800025c   Number         0  startup_stm32f405xx.o(.text)
    .text                                    0x08000280   Section        0  uldiv.o(.text)
    .text                                    0x080002e2   Section        0  tolower.o(.text)
    .text                                    0x080002ee   Section        0  memcpya.o(.text)
    .text                                    0x08000312   Section        0  memseta.o(.text)
    .text                                    0x08000336   Section        0  strstr.o(.text)
    .text                                    0x0800035a   Section        0  strncpy.o(.text)
    .text                                    0x08000372   Section        0  strlen.o(.text)
    .text                                    0x08000380   Section        0  memcmp.o(.text)
    .text                                    0x0800039a   Section        0  strcpy.o(.text)
    .text                                    0x080003ac   Section        0  strncmp.o(.text)
    .text                                    0x080003ca   Section        0  atol.o(.text)
    .text                                    0x080003e4   Section        0  dadd.o(.text)
    .text                                    0x08000532   Section        0  dmul.o(.text)
    .text                                    0x08000616   Section        0  dfltui.o(.text)
    .text                                    0x08000630   Section        0  dfixi.o(.text)
    .text                                    0x08000670   Section       48  cdrcmple.o(.text)
    .text                                    0x080006a0   Section        0  uidiv.o(.text)
    .text                                    0x080006cc   Section        0  llshl.o(.text)
    .text                                    0x080006ea   Section        0  llushr.o(.text)
    .text                                    0x0800070a   Section        0  llsshr.o(.text)
    .text                                    0x0800072e   Section        0  _chval.o(.text)
    .text                                    0x0800074a   Section        0  strtol.o(.text)
    .text                                    0x080007ba   Section        0  iusefp.o(.text)
    .text                                    0x080007ba   Section        0  depilogue.o(.text)
    .text                                    0x08000874   Section        0  ddiv.o(.text)
    .text                                    0x08000952   Section        0  dfixul.o(.text)
    .text                                    0x08000984   Section       36  init.o(.text)
    .text                                    0x080009a8   Section        0  ctype_o.o(.text)
    .text                                    0x080009b0   Section        0  _strtoul.o(.text)
    .text                                    0x08000a4e   Section        0  __dczerorl2.o(.text)
    i.BTN1_DOUBLE_Click_Handler              0x08000aa4   Section        0  gmultibutton.o(i.BTN1_DOUBLE_Click_Handler)
    i.BTN1_LONG_PRESS_HOLD_Handler           0x08000ad4   Section        0  gmultibutton.o(i.BTN1_LONG_PRESS_HOLD_Handler)
    i.BTN1_LONG_RRESS_START_Handler          0x08000b04   Section        0  gmultibutton.o(i.BTN1_LONG_RRESS_START_Handler)
    i.BTN1_PRESS_DOWN_Handler                0x08000b3c   Section        0  gmultibutton.o(i.BTN1_PRESS_DOWN_Handler)
    i.BTN1_PRESS_REPEAT_Handler              0x08000b74   Section        0  gmultibutton.o(i.BTN1_PRESS_REPEAT_Handler)
    i.BTN1_PRESS_UP_Handler                  0x08000bac   Section        0  gmultibutton.o(i.BTN1_PRESS_UP_Handler)
    i.BTN1_SINGLE_Click_Handler              0x08000bec   Section        0  gmultibutton.o(i.BTN1_SINGLE_Click_Handler)
    i.BusFault_Handler                       0x08000c1c   Section        0  stm32f4xx_it.o(i.BusFault_Handler)
    i.DebugMon_Handler                       0x08000c1e   Section        0  stm32f4xx_it.o(i.DebugMon_Handler)
    i.Error_Handler                          0x08000c20   Section        0  main.o(i.Error_Handler)
    i.GMX_NVIC_SetIRQ                        0x08000c22   Section        0  gunit.o(i.GMX_NVIC_SetIRQ)
    i.G_lovexin                              0x08000ca4   Section        0  gunit.o(i.G_lovexin)
    i.G_mcuReset                             0x08000d60   Section        0  gunit.o(i.G_mcuReset)
    i.HAL_DMA_Abort_IT                       0x08000dac   Section        0  stm32f4xx_hal_dma.o(i.HAL_DMA_Abort_IT)
    i.HAL_Delay                              0x08000dd0   Section        0  stm32f4xx_hal.o(i.HAL_Delay)
    i.HAL_GPIO_Init                          0x08000df4   Section        0  stm32f4xx_hal_gpio.o(i.HAL_GPIO_Init)
    i.HAL_GPIO_ReadPin                       0x08000fa4   Section        0  stm32f4xx_hal_gpio.o(i.HAL_GPIO_ReadPin)
    i.HAL_GPIO_WritePin                      0x08000fae   Section        0  stm32f4xx_hal_gpio.o(i.HAL_GPIO_WritePin)
    i.HAL_GetTick                            0x08000fb8   Section        0  stm32f4xx_hal.o(i.HAL_GetTick)
    i.HAL_IncTick                            0x08000fc4   Section        0  stm32f4xx_hal.o(i.HAL_IncTick)
    i.HAL_Init                               0x08000fd4   Section        0  stm32f4xx_hal.o(i.HAL_Init)
    i.HAL_InitTick                           0x08001008   Section        0  stm32f4xx_hal_timebase_tim.o(i.HAL_InitTick)
    i.HAL_MspInit                            0x0800107c   Section        0  stm32f4xx_hal_msp.o(i.HAL_MspInit)
    i.HAL_NVIC_DisableIRQ                    0x080010c8   Section        0  stm32f4xx_hal_cortex.o(i.HAL_NVIC_DisableIRQ)
    i.HAL_NVIC_EnableIRQ                     0x080010ea   Section        0  stm32f4xx_hal_cortex.o(i.HAL_NVIC_EnableIRQ)
    i.HAL_NVIC_SetPriority                   0x08001104   Section        0  stm32f4xx_hal_cortex.o(i.HAL_NVIC_SetPriority)
    i.HAL_NVIC_SetPriorityGrouping           0x08001144   Section        0  stm32f4xx_hal_cortex.o(i.HAL_NVIC_SetPriorityGrouping)
    i.HAL_NVIC_SystemReset                   0x08001168   Section        0  stm32f4xx_hal_cortex.o(i.HAL_NVIC_SystemReset)
    i.HAL_RCC_ClockConfig                    0x0800118c   Section        0  stm32f4xx_hal_rcc.o(i.HAL_RCC_ClockConfig)
    i.HAL_RCC_GetClockConfig                 0x080012bc   Section        0  stm32f4xx_hal_rcc.o(i.HAL_RCC_GetClockConfig)
    i.HAL_RCC_GetPCLK1Freq                   0x080012fc   Section        0  stm32f4xx_hal_rcc.o(i.HAL_RCC_GetPCLK1Freq)
    i.HAL_RCC_GetPCLK2Freq                   0x0800131c   Section        0  stm32f4xx_hal_rcc.o(i.HAL_RCC_GetPCLK2Freq)
    i.HAL_RCC_GetSysClockFreq                0x0800133c   Section        0  stm32f4xx_hal_rcc.o(i.HAL_RCC_GetSysClockFreq)
    i.HAL_RCC_OscConfig                      0x0800139c   Section        0  stm32f4xx_hal_rcc.o(i.HAL_RCC_OscConfig)
    i.HAL_RNG_ErrorCallback                  0x080016b8   Section        0  stm32f4xx_hal_rng.o(i.HAL_RNG_ErrorCallback)
    i.HAL_RNG_IRQHandler                     0x080016ba   Section        0  stm32f4xx_hal_rng.o(i.HAL_RNG_IRQHandler)
    i.HAL_RNG_Init                           0x08001718   Section        0  stm32f4xx_hal_rng.o(i.HAL_RNG_Init)
    i.HAL_RNG_MspInit                        0x0800174c   Section        0  rng.o(i.HAL_RNG_MspInit)
    i.HAL_RNG_ReadyDataCallback              0x08001788   Section        0  stm32f4xx_hal_rng.o(i.HAL_RNG_ReadyDataCallback)
    i.HAL_SPI_ErrorCallback                  0x0800178a   Section        0  stm32f4xx_hal_spi.o(i.HAL_SPI_ErrorCallback)
    i.HAL_SPI_IRQHandler                     0x0800178c   Section        0  stm32f4xx_hal_spi.o(i.HAL_SPI_IRQHandler)
    i.HAL_SPI_Init                           0x08001888   Section        0  stm32f4xx_hal_spi.o(i.HAL_SPI_Init)
    i.HAL_SPI_MspInit                        0x08001908   Section        0  spi.o(i.HAL_SPI_MspInit)
    i.HAL_SPI_TransmitReceive                0x08001a54   Section        0  stm32f4xx_hal_spi.o(i.HAL_SPI_TransmitReceive)
    i.HAL_TIMEx_BreakCallback                0x08001c36   Section        0  stm32f4xx_hal_tim_ex.o(i.HAL_TIMEx_BreakCallback)
    i.HAL_TIMEx_CommutCallback               0x08001c38   Section        0  stm32f4xx_hal_tim_ex.o(i.HAL_TIMEx_CommutCallback)
    i.HAL_TIMEx_MasterConfigSynchronization  0x08001c3a   Section        0  stm32f4xx_hal_tim_ex.o(i.HAL_TIMEx_MasterConfigSynchronization)
    i.HAL_TIM_Base_Init                      0x08001c7c   Section        0  stm32f4xx_hal_tim.o(i.HAL_TIM_Base_Init)
    i.HAL_TIM_Base_MspInit                   0x08001cb4   Section        0  tim.o(i.HAL_TIM_Base_MspInit)
    i.HAL_TIM_Base_Start_IT                  0x08001cf0   Section        0  stm32f4xx_hal_tim.o(i.HAL_TIM_Base_Start_IT)
    i.HAL_TIM_IC_CaptureCallback             0x08001d12   Section        0  stm32f4xx_hal_tim.o(i.HAL_TIM_IC_CaptureCallback)
    i.HAL_TIM_IRQHandler                     0x08001d14   Section        0  stm32f4xx_hal_tim.o(i.HAL_TIM_IRQHandler)
    i.HAL_TIM_OC_DelayElapsedCallback        0x08001e7a   Section        0  stm32f4xx_hal_tim.o(i.HAL_TIM_OC_DelayElapsedCallback)
    i.HAL_TIM_PWM_PulseFinishedCallback      0x08001e7c   Section        0  stm32f4xx_hal_tim.o(i.HAL_TIM_PWM_PulseFinishedCallback)
    i.HAL_TIM_PeriodElapsedCallback          0x08001e80   Section        0  main.o(i.HAL_TIM_PeriodElapsedCallback)
    i.HAL_TIM_TriggerCallback                0x08001eb8   Section        0  stm32f4xx_hal_tim.o(i.HAL_TIM_TriggerCallback)
    i.HAL_UART_ErrorCallback                 0x08001eba   Section        0  stm32f4xx_hal_uart.o(i.HAL_UART_ErrorCallback)
    i.HAL_UART_IRQHandler                    0x08001ebc   Section        0  stm32f4xx_hal_uart.o(i.HAL_UART_IRQHandler)
    i.HAL_UART_Init                          0x08001fcc   Section        0  stm32f4xx_hal_uart.o(i.HAL_UART_Init)
    i.HAL_UART_MspInit                       0x08002030   Section        0  usart.o(i.HAL_UART_MspInit)
    i.HAL_UART_Receive_IT                    0x08002184   Section        0  stm32f4xx_hal_uart.o(i.HAL_UART_Receive_IT)
    i.HAL_UART_RxCpltCallback                0x080021d8   Section        0  gkbaseusart.o(i.HAL_UART_RxCpltCallback)
    i.HAL_UART_Transmit                      0x08002278   Section        0  stm32f4xx_hal_uart.o(i.HAL_UART_Transmit)
    i.HAL_UART_TxCpltCallback                0x08002332   Section        0  stm32f4xx_hal_uart.o(i.HAL_UART_TxCpltCallback)
    i.HASH_RNG_IRQHandler                    0x08002334   Section        0  stm32f4xx_it.o(i.HASH_RNG_IRQHandler)
    i.HardFault_Handler                      0x08002340   Section        0  stm32f4xx_it.o(i.HardFault_Handler)
    i.MX_FREERTOS_Init                       0x08002344   Section        0  freertos.o(i.MX_FREERTOS_Init)
    i.MX_GPIO_Init                           0x0800236c   Section        0  gpio.o(i.MX_GPIO_Init)
    i.MX_RNG_Init                            0x080024d0   Section        0  rng.o(i.MX_RNG_Init)
    i.MX_SPI1_Init                           0x080024f4   Section        0  spi.o(i.MX_SPI1_Init)
    i.MX_SPI2_Init                           0x0800253c   Section        0  spi.o(i.MX_SPI2_Init)
    i.MX_SPI3_Init                           0x08002580   Section        0  spi.o(i.MX_SPI3_Init)
    i.MX_TIM6_Init                           0x080025c4   Section        0  tim.o(i.MX_TIM6_Init)
    i.MX_USART1_UART_Init                    0x08002608   Section        0  usart.o(i.MX_USART1_UART_Init)
    i.MX_USART2_UART_Init                    0x08002640   Section        0  usart.o(i.MX_USART2_UART_Init)
    i.MX_USART3_UART_Init                    0x08002678   Section        0  usart.o(i.MX_USART3_UART_Init)
    i.MX_USART6_UART_Init                    0x080026b0   Section        0  usart.o(i.MX_USART6_UART_Init)
    i.MemManage_Handler                      0x080026e8   Section        0  stm32f4xx_it.o(i.MemManage_Handler)
    i.NMI_Handler                            0x080026ea   Section        0  stm32f4xx_it.o(i.NMI_Handler)
    i.RCC_IRQHandler                         0x080026ec   Section        0  stm32f4xx_it.o(i.RCC_IRQHandler)
    i.SPI1_IRQHandler                        0x080026f0   Section        0  stm32f4xx_it.o(i.SPI1_IRQHandler)
    i.SPI2_IRQHandler                        0x080026fc   Section        0  stm32f4xx_it.o(i.SPI2_IRQHandler)
    i.SPI3_IRQHandler                        0x08002708   Section        0  stm32f4xx_it.o(i.SPI3_IRQHandler)
    i.SPI_DMAAbortOnError                    0x08002714   Section        0  stm32f4xx_hal_spi.o(i.SPI_DMAAbortOnError)
    SPI_DMAAbortOnError                      0x08002715   Thumb Code    16  stm32f4xx_hal_spi.o(i.SPI_DMAAbortOnError)
    i.SPI_EndRxTxTransaction                 0x08002724   Section        0  stm32f4xx_hal_spi.o(i.SPI_EndRxTxTransaction)
    SPI_EndRxTxTransaction                   0x08002725   Thumb Code    80  stm32f4xx_hal_spi.o(i.SPI_EndRxTxTransaction)
    i.SPI_FLASH_BufferRead                   0x0800277c   Section        0  gw24q64.o(i.SPI_FLASH_BufferRead)
    i.SPI_FLASH_BufferWrite                  0x080027d4   Section        0  gw24q64.o(i.SPI_FLASH_BufferWrite)
    i.SPI_FLASH_BulkErase                    0x08002890   Section        0  gw24q64.o(i.SPI_FLASH_BulkErase)
    i.SPI_FLASH_PageWrite                    0x080028c0   Section        0  gw24q64.o(i.SPI_FLASH_PageWrite)
    i.SPI_FLASH_ReadDeviceID                 0x08002924   Section        0  gw24q64.o(i.SPI_FLASH_ReadDeviceID)
    i.SPI_FLASH_ReadID                       0x08002964   Section        0  gw24q64.o(i.SPI_FLASH_ReadID)
    i.SPI_FLASH_SectorErase                  0x080029ac   Section        0  gw24q64.o(i.SPI_FLASH_SectorErase)
    i.SPI_FLASH_SectorErase_BYNUMBER         0x080029f8   Section        0  gw24q64.o(i.SPI_FLASH_SectorErase_BYNUMBER)
    i.SPI_FLASH_SendByte                     0x08002a20   Section        0  gw24q64.o(i.SPI_FLASH_SendByte)
    i.SPI_FLASH_WaitForWriteEnd              0x08002a4c   Section        0  gw24q64.o(i.SPI_FLASH_WaitForWriteEnd)
    i.SPI_FLASH_WriteEnable                  0x08002a7c   Section        0  gw24q64.o(i.SPI_FLASH_WriteEnable)
    i.SPI_WaitFlagStateUntilTimeout          0x08002aa4   Section        0  stm32f4xx_hal_spi.o(i.SPI_WaitFlagStateUntilTimeout)
    SPI_WaitFlagStateUntilTimeout            0x08002aa5   Thumb Code   148  stm32f4xx_hal_spi.o(i.SPI_WaitFlagStateUntilTimeout)
    i.StartDefaultTask                       0x08002b38   Section        0  freertos.o(i.StartDefaultTask)
    i.SysTick_Handler                        0x08002b40   Section        0  port.o(i.SysTick_Handler)
    i.SystemClock_Config                     0x08002b6c   Section        0  main.o(i.SystemClock_Config)
    i.SystemInit                             0x08002bf8   Section        0  system_stm32f4xx.o(i.SystemInit)
    i.TIM6_DAC_IRQHandler                    0x08002c4c   Section        0  stm32f4xx_it.o(i.TIM6_DAC_IRQHandler)
    i.TIM7_IRQHandler                        0x08002c58   Section        0  stm32f4xx_it.o(i.TIM7_IRQHandler)
    i.TIM_Base_SetConfig                     0x08002c64   Section        0  stm32f4xx_hal_tim.o(i.TIM_Base_SetConfig)
    i.TWLED0_init                            0x08002d2c   Section        0  gtwled.o(i.TWLED0_init)
    i.TWLED0_write                           0x08002d60   Section        0  gtwled.o(i.TWLED0_write)
    i.TWLED1_init                            0x08002d74   Section        0  gtwled.o(i.TWLED1_init)
    i.TWLED1_write                           0x08002da8   Section        0  gtwled.o(i.TWLED1_write)
    i.UART_DMAAbortOnError                   0x08002dbc   Section        0  stm32f4xx_hal_uart.o(i.UART_DMAAbortOnError)
    UART_DMAAbortOnError                     0x08002dbd   Thumb Code    16  stm32f4xx_hal_uart.o(i.UART_DMAAbortOnError)
    i.UART_EndRxTransfer                     0x08002dcc   Section        0  stm32f4xx_hal_uart.o(i.UART_EndRxTransfer)
    UART_EndRxTransfer                       0x08002dcd   Thumb Code    28  stm32f4xx_hal_uart.o(i.UART_EndRxTransfer)
    i.UART_Receive_IT                        0x08002de8   Section        0  stm32f4xx_hal_uart.o(i.UART_Receive_IT)
    UART_Receive_IT                          0x08002de9   Thumb Code   150  stm32f4xx_hal_uart.o(i.UART_Receive_IT)
    i.UART_SetConfig                         0x08002e80   Section        0  stm32f4xx_hal_uart.o(i.UART_SetConfig)
    UART_SetConfig                           0x08002e81   Thumb Code   676  stm32f4xx_hal_uart.o(i.UART_SetConfig)
    i.UART_Transmit_IT                       0x0800312c   Section        0  stm32f4xx_hal_uart.o(i.UART_Transmit_IT)
    UART_Transmit_IT                         0x0800312d   Thumb Code    98  stm32f4xx_hal_uart.o(i.UART_Transmit_IT)
    i.UART_WaitOnFlagUntilTimeout            0x0800318e   Section        0  stm32f4xx_hal_uart.o(i.UART_WaitOnFlagUntilTimeout)
    UART_WaitOnFlagUntilTimeout              0x0800318f   Thumb Code   100  stm32f4xx_hal_uart.o(i.UART_WaitOnFlagUntilTimeout)
    i.USART1_IRQHandler                      0x080031f4   Section        0  stm32f4xx_it.o(i.USART1_IRQHandler)
    i.USART2_IRQHandler                      0x08003200   Section        0  stm32f4xx_it.o(i.USART2_IRQHandler)
    i.USART3_IRQHandler                      0x0800320c   Section        0  stm32f4xx_it.o(i.USART3_IRQHandler)
    i.USART6_IRQHandler                      0x08003218   Section        0  stm32f4xx_it.o(i.USART6_IRQHandler)
    i.UsageFault_Handler                     0x08003224   Section        0  stm32f4xx_it.o(i.UsageFault_Handler)
    i.W24Q64_Init                            0x08003228   Section        0  gw24q64.o(i.W24Q64_Init)
    i.__0printf                              0x080032dc   Section        0  printfa.o(i.__0printf)
    i.__0snprintf                            0x080032fc   Section        0  printfa.o(i.__0snprintf)
    i.__0sprintf                             0x0800332c   Section        0  printfa.o(i.__0sprintf)
    i.__0vsnprintf                           0x08003354   Section        0  printfa.o(i.__0vsnprintf)
    i.__0vsprintf                            0x08003380   Section        0  printfa.o(i.__0vsprintf)
    i.__NVIC_SetPriority                     0x080033a4   Section        0  stm32f4xx_hal_cortex.o(i.__NVIC_SetPriority)
    __NVIC_SetPriority                       0x080033a5   Thumb Code    32  stm32f4xx_hal_cortex.o(i.__NVIC_SetPriority)
    i.__aeabi_errno_addr                     0x080033c4   Section        0  errno.o(i.__aeabi_errno_addr)
    i.__scatterload_copy                     0x080033cc   Section       14  handlers.o(i.__scatterload_copy)
    i.__scatterload_null                     0x080033da   Section        2  handlers.o(i.__scatterload_null)
    i.__scatterload_zeroinit                 0x080033dc   Section       14  handlers.o(i.__scatterload_zeroinit)
    i._fp_digits                             0x080033ec   Section        0  printfa.o(i._fp_digits)
    _fp_digits                               0x080033ed   Thumb Code   366  printfa.o(i._fp_digits)
    i._printf_core                           0x08003570   Section        0  printfa.o(i._printf_core)
    _printf_core                             0x08003571   Thumb Code  1744  printfa.o(i._printf_core)
    i._printf_post_padding                   0x08003c4c   Section        0  printfa.o(i._printf_post_padding)
    _printf_post_padding                     0x08003c4d   Thumb Code    36  printfa.o(i._printf_post_padding)
    i._printf_pre_padding                    0x08003c70   Section        0  printfa.o(i._printf_pre_padding)
    _printf_pre_padding                      0x08003c71   Thumb Code    46  printfa.o(i._printf_pre_padding)
    i._snputc                                0x08003c9e   Section        0  printfa.o(i._snputc)
    _snputc                                  0x08003c9f   Thumb Code    22  printfa.o(i._snputc)
    i._sputc                                 0x08003cb4   Section        0  printfa.o(i._sputc)
    _sputc                                   0x08003cb5   Thumb Code    10  printfa.o(i._sputc)
    i.align_write                            0x08003cbe   Section        0  ef_env.o(i.align_write)
    align_write                              0x08003cbf   Thumb Code    70  ef_env.o(i.align_write)
    i.alloc_env                              0x08003d04   Section        0  ef_env.o(i.alloc_env)
    alloc_env                                0x08003d05   Thumb Code   118  ef_env.o(i.alloc_env)
    i.alloc_env_cb                           0x08003df0   Section        0  ef_env.o(i.alloc_env_cb)
    alloc_env_cb                             0x08003df1   Thumb Code    40  ef_env.o(i.alloc_env_cb)
    i.baseflashclear                         0x08003e1c   Section        0  gflashctl.o(i.baseflashclear)
    baseflashclear                           0x08003e1d   Thumb Code    64  gflashctl.o(i.baseflashclear)
    i.button_handler                         0x08003ebc   Section        0  gmultibutton.o(i.button_handler)
    i.button_init                            0x0800406c   Section        0  gmultibutton.o(i.button_init)
    i.button_start                           0x08004098   Section        0  gmultibutton.o(i.button_start)
    i.button_ticks                           0x080040bc   Section        0  gmultibutton.o(i.button_ticks)
    i.cJSON_AddItemToArray                   0x080040ec   Section        0  cjson.o(i.cJSON_AddItemToArray)
    i.cJSON_AddItemToObject                  0x08004108   Section        0  cjson.o(i.cJSON_AddItemToObject)
    i.cJSON_CreateArray                      0x08004138   Section        0  cjson.o(i.cJSON_CreateArray)
    i.cJSON_CreateNumber                     0x08004148   Section        0  cjson.o(i.cJSON_CreateNumber)
    i.cJSON_CreateObject                     0x08004178   Section        0  cjson.o(i.cJSON_CreateObject)
    i.cJSON_CreateString                     0x08004188   Section        0  cjson.o(i.cJSON_CreateString)
    i.cJSON_Delete                           0x080041a4   Section        0  cjson.o(i.cJSON_Delete)
    i.cJSON_GetArrayItem                     0x080041ec   Section        0  cjson.o(i.cJSON_GetArrayItem)
    i.cJSON_GetArraySize                     0x080041fe   Section        0  cjson.o(i.cJSON_GetArraySize)
    i.cJSON_GetObjectItem                    0x0800420e   Section        0  cjson.o(i.cJSON_GetObjectItem)
    i.cJSON_New_Item                         0x0800422c   Section        0  cjson.o(i.cJSON_New_Item)
    cJSON_New_Item                           0x0800422d   Thumb Code    24  cjson.o(i.cJSON_New_Item)
    i.cJSON_strcasecmp                       0x08004248   Section        0  cjson.o(i.cJSON_strcasecmp)
    cJSON_strcasecmp                         0x08004249   Thumb Code    66  cjson.o(i.cJSON_strcasecmp)
    i.cJSON_strdup                           0x0800428c   Section        0  cjson.o(i.cJSON_strdup)
    cJSON_strdup                             0x0800428d   Thumb Code    34  cjson.o(i.cJSON_strdup)
    i.check_and_recovery_env_cb              0x080042b4   Section        0  ef_env.o(i.check_and_recovery_env_cb)
    check_and_recovery_env_cb                0x080042b5   Thumb Code    92  ef_env.o(i.check_and_recovery_env_cb)
    i.check_and_recovery_gc_cb               0x08004374   Section        0  ef_env.o(i.check_and_recovery_gc_cb)
    check_and_recovery_gc_cb                 0x08004375   Thumb Code    26  ef_env.o(i.check_and_recovery_gc_cb)
    i.check_sec_hdr_cb                       0x08004394   Section        0  ef_env.o(i.check_sec_hdr_cb)
    check_sec_hdr_cb                         0x08004395   Thumb Code    38  ef_env.o(i.check_sec_hdr_cb)
    i.create_env_blob                        0x080043c0   Section        0  ef_env.o(i.create_env_blob)
    create_env_blob                          0x080043c1   Thumb Code   432  ef_env.o(i.create_env_blob)
    i.del_env                                0x08004628   Section        0  ef_env.o(i.del_env)
    del_env                                  0x08004629   Thumb Code   148  ef_env.o(i.del_env)
    i.do_gc                                  0x08004714   Section        0  ef_env.o(i.do_gc)
    do_gc                                    0x08004715   Thumb Code   140  ef_env.o(i.do_gc)
    i.easyflash_init                         0x08004824   Section        0  easyflash.o(i.easyflash_init)
    i.ef_calc_crc32                          0x080048f8   Section        0  ef_utils.o(i.ef_calc_crc32)
    i.ef_env_init                            0x0800491c   Section        0  ef_env.o(i.ef_env_init)
    i.ef_env_set_default                     0x08004a30   Section        0  ef_env.o(i.ef_env_set_default)
    i.ef_get_env                             0x08004b60   Section        0  ef_env.o(i.ef_get_env)
    i.ef_get_env_blob                        0x08004bd0   Section        0  ef_env.o(i.ef_get_env_blob)
    i.ef_is_str                              0x08004c44   Section        0  ef_env.o(i.ef_is_str)
    ef_is_str                                0x08004c45   Thumb Code    26  ef_env.o(i.ef_is_str)
    i.ef_load_env                            0x08004c60   Section        0  ef_env.o(i.ef_load_env)
    i.ef_log_debug                           0x08004d1c   Section        0  ef_port.o(i.ef_log_debug)
    i.ef_log_info                            0x08004d6c   Section        0  ef_port.o(i.ef_log_info)
    i.ef_port_env_lock                       0x08004dac   Section        0  ef_port.o(i.ef_port_env_lock)
    i.ef_port_env_unlock                     0x08004db0   Section        0  ef_port.o(i.ef_port_env_unlock)
    i.ef_port_erase                          0x08004db4   Section        0  ef_port.o(i.ef_port_erase)
    i.ef_port_init                           0x08004e6c   Section        0  ef_port.o(i.ef_port_init)
    i.ef_port_read                           0x08004ea4   Section        0  ef_port.o(i.ef_port_read)
    i.ef_port_write                          0x08004eb8   Section        0  ef_port.o(i.ef_port_write)
    i.ef_print                               0x08004f58   Section        0  ef_port.o(i.ef_print)
    i.ef_save_env                            0x08004f7c   Section        0  ef_env.o(i.ef_save_env)
    i.ef_set_env                             0x08004f80   Section        0  ef_env.o(i.ef_set_env)
    i.ef_set_env_blob                        0x08004f9c   Section        0  ef_env.o(i.ef_set_env_blob)
    i.elog_init                              0x08004fec   Section        0  elog.o(i.elog_init)
    i.elog_output                            0x08005018   Section        0  elog.o(i.elog_output)
    i.elog_output_lock                       0x08005364   Section        0  elog.o(i.elog_output_lock)
    i.elog_output_lock_enabled               0x08005384   Section        0  elog.o(i.elog_output_lock_enabled)
    i.elog_output_unlock                     0x080053b0   Section        0  elog.o(i.elog_output_unlock)
    i.elog_port_get_p_info                   0x080053d0   Section        0  elog_port.o(i.elog_port_get_p_info)
    i.elog_port_get_t_info                   0x080053e0   Section        0  elog_port.o(i.elog_port_get_t_info)
    i.elog_port_get_time                     0x080053ec   Section        0  elog_port.o(i.elog_port_get_time)
    i.elog_port_init                         0x080053fc   Section        0  elog_port.o(i.elog_port_init)
    i.elog_port_output                       0x08005400   Section        0  elog_port.o(i.elog_port_output)
    i.elog_port_output_lock                  0x08005410   Section        0  elog_port.o(i.elog_port_output_lock)
    i.elog_port_output_unlock                0x08005414   Section        0  elog_port.o(i.elog_port_output_unlock)
    i.elog_raw                               0x08005418   Section        0  elog.o(i.elog_raw)
    i.elog_set_filter_lvl                    0x08005460   Section        0  elog.o(i.elog_set_filter_lvl)
    i.elog_set_fmt                           0x080054f8   Section        0  elog.o(i.elog_set_fmt)
    i.elog_start                             0x08005598   Section        0  elog.o(i.elog_start)
    i.elog_strcpy                            0x08005600   Section        0  elog_utils.o(i.elog_strcpy)
    i.env_iterator                           0x080056d4   Section        0  ef_env.o(i.env_iterator)
    env_iterator                             0x080056d5   Thumb Code    98  ef_env.o(i.env_iterator)
    i.find_env                               0x08005736   Section        0  ef_env.o(i.find_env)
    find_env                                 0x08005737   Thumb Code    66  ef_env.o(i.find_env)
    i.find_env_cb                            0x08005778   Section        0  ef_env.o(i.find_env_cb)
    find_env_cb                              0x08005779   Thumb Code    56  ef_env.o(i.find_env_cb)
    i.find_env_no_cache                      0x080057b0   Section        0  ef_env.o(i.find_env_no_cache)
    find_env_no_cache                        0x080057b1   Thumb Code    28  ef_env.o(i.find_env_no_cache)
    i.find_next_env_addr                     0x080057d0   Section        0  ef_env.o(i.find_next_env_addr)
    find_next_env_addr                       0x080057d1   Thumb Code   128  ef_env.o(i.find_next_env_addr)
    i.flash_clear_bit_clear                  0x08005854   Section        0  gflashctl.o(i.flash_clear_bit_clear)
    i.format_sector                          0x080058a4   Section        0  ef_env.o(i.format_sector)
    format_sector                            0x080058a5   Thumb Code   114  ef_env.o(i.format_sector)
    i.fputc                                  0x08005994   Section        0  gunit.o(i.fputc)
    i.free                                   0x080059cc   Section        0  malloc.o(i.free)
    i.gassert_failed                         0x08005a1c   Section        0  easyflash.o(i.gassert_failed)
    i.gc_check_cb                            0x08005a60   Section        0  ef_env.o(i.gc_check_cb)
    gc_check_cb                              0x08005a61   Thumb Code    14  ef_env.o(i.gc_check_cb)
    i.gc_collect                             0x08005a70   Section        0  ef_env.o(i.gc_collect)
    gc_collect                               0x08005a71   Thumb Code    76  ef_env.o(i.gc_collect)
    i.get_env_from_cache                     0x08005b38   Section        0  ef_env.o(i.get_env_from_cache)
    get_env_from_cache                       0x08005b39   Thumb Code   116  ef_env.o(i.get_env_from_cache)
    i.get_fmt_enabled                        0x08005bb0   Section        0  elog.o(i.get_fmt_enabled)
    get_fmt_enabled                          0x08005bb1   Thumb Code    76  elog.o(i.get_fmt_enabled)
    i.get_next_env_addr                      0x08005c54   Section        0  ef_env.o(i.get_next_env_addr)
    get_next_env_addr                        0x08005c55   Thumb Code    78  ef_env.o(i.get_next_env_addr)
    i.get_next_sector_addr                   0x08005ca4   Section        0  ef_env.o(i.get_next_sector_addr)
    get_next_sector_addr                     0x08005ca5   Thumb Code    48  ef_env.o(i.get_next_sector_addr)
    i.get_sector_from_cache                  0x08005cd8   Section        0  ef_env.o(i.get_sector_from_cache)
    get_sector_from_cache                    0x08005cd9   Thumb Code    40  ef_env.o(i.get_sector_from_cache)
    i.get_status                             0x08005d04   Section        0  ef_env.o(i.get_status)
    get_status                               0x08005d05   Thumb Code    30  ef_env.o(i.get_status)
    i.json_to_struct                         0x08005d24   Section        0  gs2j_test.o(i.json_to_struct)
    json_to_struct                           0x08005d25   Thumb Code   154  gs2j_test.o(i.json_to_struct)
    i.ledoff1                                0x08005dec   Section        0  gtwled.o(i.ledoff1)
    i.ledoff2                                0x08005dfc   Section        0  gtwled.o(i.ledoff2)
    i.ledon1                                 0x08005e0c   Section        0  gtwled.o(i.ledon1)
    i.ledon2                                 0x08005e1c   Section        0  gtwled.o(i.ledon2)
    i.main                                   0x08005e2c   Section        0  main.o(i.main)
    i.makeFreeRtosPriority                   0x08005e94   Section        0  cmsis_os.o(i.makeFreeRtosPriority)
    makeFreeRtosPriority                     0x08005e95   Thumb Code    12  cmsis_os.o(i.makeFreeRtosPriority)
    i.malloc                                 0x08005ea0   Section        0  malloc.o(i.malloc)
    i.memctl_loop                            0x08005f0c   Section        0  gflashctl.o(i.memctl_loop)
    i.move_env                               0x08005f6c   Section        0  ef_env.o(i.move_env)
    move_env                                 0x08005f6d   Thumb Code   270  ef_env.o(i.move_env)
    i.new_env                                0x080060ec   Section        0  ef_env.o(i.new_env)
    new_env                                  0x080060ed   Thumb Code    62  ef_env.o(i.new_env)
    i.once_timer_list_loop                   0x08006170   Section        0  gtimer.o(i.once_timer_list_loop)
    i.once_timer_register                    0x080061ac   Section        0  gtimer.o(i.once_timer_register)
    i.once_timer_start                       0x08006238   Section        0  gtimer.o(i.once_timer_start)
    i.once_timer_stop                        0x080062a0   Section        0  gtimer.o(i.once_timer_stop)
    i.osDelay                                0x08006308   Section        0  cmsis_os.o(i.osDelay)
    i.osKernelStart                          0x08006316   Section        0  cmsis_os.o(i.osKernelStart)
    i.osThreadCreate                         0x08006320   Section        0  cmsis_os.o(i.osThreadCreate)
    i.prvAddCurrentTaskToDelayedList         0x08006374   Section        0  tasks.o(i.prvAddCurrentTaskToDelayedList)
    prvAddCurrentTaskToDelayedList           0x08006375   Thumb Code   102  tasks.o(i.prvAddCurrentTaskToDelayedList)
    i.prvAddNewTaskToReadyList               0x080063e4   Section        0  tasks.o(i.prvAddNewTaskToReadyList)
    prvAddNewTaskToReadyList                 0x080063e5   Thumb Code   194  tasks.o(i.prvAddNewTaskToReadyList)
    i.prvDeleteTCB                           0x080064b4   Section        0  tasks.o(i.prvDeleteTCB)
    prvDeleteTCB                             0x080064b5   Thumb Code    52  tasks.o(i.prvDeleteTCB)
    i.prvHeapInit                            0x080064e8   Section        0  heap_4.o(i.prvHeapInit)
    prvHeapInit                              0x080064e9   Thumb Code    66  heap_4.o(i.prvHeapInit)
    i.prvIdleTask                            0x08006534   Section        0  tasks.o(i.prvIdleTask)
    prvIdleTask                              0x08006535   Thumb Code    82  tasks.o(i.prvIdleTask)
    i.prvInitialiseNewTask                   0x08006594   Section        0  tasks.o(i.prvInitialiseNewTask)
    prvInitialiseNewTask                     0x08006595   Thumb Code   142  tasks.o(i.prvInitialiseNewTask)
    i.prvInsertBlockIntoFreeList             0x08006624   Section        0  heap_4.o(i.prvInsertBlockIntoFreeList)
    prvInsertBlockIntoFreeList               0x08006625   Thumb Code    72  heap_4.o(i.prvInsertBlockIntoFreeList)
    i.prvResetNextTaskUnblockTime            0x08006670   Section        0  tasks.o(i.prvResetNextTaskUnblockTime)
    prvResetNextTaskUnblockTime              0x08006671   Thumb Code    26  tasks.o(i.prvResetNextTaskUnblockTime)
    i.prvTaskExitError                       0x08006690   Section        0  port.o(i.prvTaskExitError)
    prvTaskExitError                         0x08006691   Thumb Code    36  port.o(i.prvTaskExitError)
    i.putc                                   0x080066b8   Section        0  putc.o(i.putc)
    i.pvPortMalloc                           0x080066bc   Section        0  heap_4.o(i.pvPortMalloc)
    i.pxPortInitialiseStack                  0x08006794   Section        0  port.o(i.pxPortInitialiseStack)
    i.read_button1_GPIO                      0x080067c0   Section        0  gmultibutton.o(i.read_button1_GPIO)
    i.read_env                               0x080067d0   Section        0  ef_env.o(i.read_env)
    read_env                                 0x080067d1   Thumb Code   264  ef_env.o(i.read_env)
    i.read_sector_meta_data                  0x0800696c   Section        0  ef_env.o(i.read_sector_meta_data)
    read_sector_meta_data                    0x0800696d   Thumb Code   382  ef_env.o(i.read_sector_meta_data)
    i.read_status                            0x08006ba0   Section        0  ef_env.o(i.read_status)
    read_status                              0x08006ba1   Thumb Code    56  ef_env.o(i.read_status)
    i.sector_iterator                        0x08006c48   Section        0  ef_env.o(i.sector_iterator)
    sector_iterator                          0x08006c49   Thumb Code    86  ef_env.o(i.sector_iterator)
    i.sector_statistics_cb                   0x08006c9e   Section        0  ef_env.o(i.sector_statistics_cb)
    sector_statistics_cb                     0x08006c9f   Thumb Code    34  ef_env.o(i.sector_statistics_cb)
    i.set_env                                0x08006cc0   Section        0  ef_env.o(i.set_env)
    set_env                                  0x08006cc1   Thumb Code   140  ef_env.o(i.set_env)
    i.set_status                             0x08006d54   Section        0  ef_env.o(i.set_status)
    set_status                               0x08006d55   Thumb Code    42  ef_env.o(i.set_status)
    i.spi_flash_get_lock                     0x08006d80   Section        0  gw24q64.o(i.spi_flash_get_lock)
    spi_flash_get_lock                       0x08006d81   Thumb Code    26  gw24q64.o(i.spi_flash_get_lock)
    i.spi_flash_release_lock                 0x08006da0   Section        0  gw24q64.o(i.spi_flash_release_lock)
    spi_flash_release_lock                   0x08006da1   Thumb Code     8  gw24q64.o(i.spi_flash_release_lock)
    i.struct_to_json                         0x08006dac   Section        0  gs2j_test.o(i.struct_to_json)
    struct_to_json                           0x08006dad   Thumb Code   164  gs2j_test.o(i.struct_to_json)
    i.test_button                            0x08006e78   Section        0  gmultibutton.o(i.test_button)
    i.test_easyflash                         0x08006f04   Section        0  easyflash.o(i.test_easyflash)
    i.test_elog                              0x0800702c   Section        0  test_elog.o(i.test_elog)
    i.test_led                               0x08007110   Section        0  gtwled.o(i.test_led)
    i.test_s2j                               0x0800712c   Section        0  gs2j_test.o(i.test_s2j)
    i.twinkler_list_loop                     0x08007190   Section        0  gtwinkle.o(i.twinkler_list_loop)
    i.twinkler_regist                        0x080071ec   Section        0  gtwinkle.o(i.twinkler_regist)
    i.twinkler_set                           0x08007288   Section        0  gtwinkle.o(i.twinkler_set)
    i.update_env_cache                       0x080072c0   Section        0  ef_env.o(i.update_env_cache)
    update_env_cache                         0x080072c1   Thumb Code   170  ef_env.o(i.update_env_cache)
    i.update_sec_status                      0x08007370   Section        0  ef_env.o(i.update_sec_status)
    update_sec_status                        0x08007371   Thumb Code    90  ef_env.o(i.update_sec_status)
    i.update_sector_cache                    0x080073cc   Section        0  ef_env.o(i.update_sector_cache)
    update_sector_cache                      0x080073cd   Thumb Code    90  ef_env.o(i.update_sector_cache)
    i.uxListRemove                           0x0800742c   Section        0  list.o(i.uxListRemove)
    i.vApplicationGetIdleTaskMemory          0x08007454   Section        0  freertos.o(i.vApplicationGetIdleTaskMemory)
    i.vListInitialise                        0x08007468   Section        0  list.o(i.vListInitialise)
    i.vListInitialiseItem                    0x0800747e   Section        0  list.o(i.vListInitialiseItem)
    i.vListInsert                            0x08007484   Section        0  list.o(i.vListInsert)
    i.vListInsertEnd                         0x080074b4   Section        0  list.o(i.vListInsertEnd)
    i.vPortEnterCritical                     0x080074cc   Section        0  port.o(i.vPortEnterCritical)
    i.vPortExitCritical                      0x0800750c   Section        0  port.o(i.vPortExitCritical)
    i.vPortFree                              0x08007534   Section        0  heap_4.o(i.vPortFree)
    i.vPortSetupTimerInterrupt               0x08007590   Section        0  port.o(i.vPortSetupTimerInterrupt)
    i.vTaskDelay                             0x080075b4   Section        0  tasks.o(i.vTaskDelay)
    i.vTaskStartScheduler                    0x08007600   Section        0  tasks.o(i.vTaskStartScheduler)
    i.vTaskSuspendAll                        0x0800766c   Section        0  tasks.o(i.vTaskSuspendAll)
    i.vTaskSwitchContext                     0x0800767c   Section        0  tasks.o(i.vTaskSwitchContext)
    i.write_status                           0x080076d8   Section        0  ef_env.o(i.write_status)
    write_status                             0x080076d9   Thumb Code    84  ef_env.o(i.write_status)
    i.xPortStartScheduler                    0x080077b8   Section        0  port.o(i.xPortStartScheduler)
    i.xTaskCreate                            0x080078ac   Section        0  tasks.o(i.xTaskCreate)
    i.xTaskCreateStatic                      0x08007906   Section        0  tasks.o(i.xTaskCreateStatic)
    i.xTaskIncrementTick                     0x0800795c   Section        0  tasks.o(i.xTaskIncrementTick)
    i.xTaskResumeAll                         0x08007a24   Section        0  tasks.o(i.xTaskResumeAll)
    .constdata                               0x08007ae8   Section       28  freertos.o(.constdata)
    .constdata                               0x08007b04   Section       16  system_stm32f4xx.o(.constdata)
    .constdata                               0x08007b14   Section        8  system_stm32f4xx.o(.constdata)
    .constdata                               0x08007b1c   Section      140  elog.o(.constdata)
    __FUNCTION__                             0x08007b1c   Data          11  elog.o(.constdata)
    __FUNCTION__                             0x08007b27   Data          24  elog.o(.constdata)
    __FUNCTION__                             0x08007b3f   Data          13  elog.o(.constdata)
    __FUNCTION__                             0x08007b4c   Data          16  elog.o(.constdata)
    __FUNCTION__                             0x08007b5c   Data          20  elog.o(.constdata)
    __FUNCTION__                             0x08007b70   Data          12  elog.o(.constdata)
    __FUNCTION__                             0x08007b7c   Data          16  elog.o(.constdata)
    __FUNCTION__                             0x08007b8c   Data          14  elog.o(.constdata)
    __FUNCTION__                             0x08007b9a   Data          14  elog.o(.constdata)
    .constdata                               0x08007ba8   Section       35  elog_utils.o(.constdata)
    __FUNCTION__                             0x08007ba8   Data          12  elog_utils.o(.constdata)
    __FUNCTION__                             0x08007bb4   Data          11  elog_utils.o(.constdata)
    __FUNCTION__                             0x08007bbf   Data          12  elog_utils.o(.constdata)
    .constdata                               0x08007bcb   Section       10  test_elog.o(.constdata)
    __FUNCTION__                             0x08007bcb   Data          10  test_elog.o(.constdata)
    .constdata                               0x08007bd5   Section       15  easyflash.o(.constdata)
    __FUNCTION__                             0x08007bd5   Data          15  easyflash.o(.constdata)
    .constdata                               0x08007be4   Section      101  ef_env.o(.constdata)
    __FUNCTION__                             0x08007be4   Data          13  ef_env.o(.constdata)
    __FUNCTION__                             0x08007bf1   Data          12  ef_env.o(.constdata)
    __FUNCTION__                             0x08007bfd   Data           9  ef_env.o(.constdata)
    __FUNCTION__                             0x08007c06   Data          22  ef_env.o(.constdata)
    __FUNCTION__                             0x08007c1c   Data          14  ef_env.o(.constdata)
    __FUNCTION__                             0x08007c2a   Data          19  ef_env.o(.constdata)
    __FUNCTION__                             0x08007c3d   Data          12  ef_env.o(.constdata)
    .constdata                               0x08007c4c   Section     1024  ef_utils.o(.constdata)
    crc32_table                              0x08007c4c   Data        1024  ef_utils.o(.constdata)
    .constdata                               0x0800804c   Section      104  ef_port.o(.constdata)
    default_env_set                          0x0800804c   Data          60  ef_port.o(.constdata)
    __FUNCTION__                             0x08008088   Data          14  ef_port.o(.constdata)
    __FUNCTION__                             0x08008096   Data          14  ef_port.o(.constdata)
    .constdata                               0x080080b4   Section       11  gunit.o(.constdata)
    __FUNCTION__                             0x080080b4   Data          11  gunit.o(.constdata)
    .constdata                               0x080080bf   Section      183  gmultibutton.o(.constdata)
    __FUNCTION__                             0x080080bf   Data          24  gmultibutton.o(.constdata)
    __FUNCTION__                             0x080080d7   Data          22  gmultibutton.o(.constdata)
    __FUNCTION__                             0x080080ed   Data          26  gmultibutton.o(.constdata)
    __FUNCTION__                             0x08008107   Data          26  gmultibutton.o(.constdata)
    __FUNCTION__                             0x08008121   Data          26  gmultibutton.o(.constdata)
    __FUNCTION__                             0x0800813b   Data          30  gmultibutton.o(.constdata)
    __FUNCTION__                             0x08008159   Data          29  gmultibutton.o(.constdata)
    .constdata                               0x08008176   Section       16  gtwinkle.o(.constdata)
    __FUNCTION__                             0x08008176   Data          16  gtwinkle.o(.constdata)
    .constdata                               0x08008186   Section      181  gflashctl.o(.constdata)
    __FUNCTION__                             0x08008186   Data          18  gflashctl.o(.constdata)
    __FUNCTION__                             0x08008198   Data          18  gflashctl.o(.constdata)
    __FUNCTION__                             0x080081aa   Data          18  gflashctl.o(.constdata)
    __FUNCTION__                             0x080081bc   Data          18  gflashctl.o(.constdata)
    __FUNCTION__                             0x080081ce   Data          18  gflashctl.o(.constdata)
    __FUNCTION__                             0x080081e0   Data          18  gflashctl.o(.constdata)
    __FUNCTION__                             0x080081f2   Data          18  gflashctl.o(.constdata)
    __FUNCTION__                             0x08008204   Data          18  gflashctl.o(.constdata)
    __FUNCTION__                             0x08008216   Data          15  gflashctl.o(.constdata)
    __FUNCTION__                             0x08008225   Data          22  gflashctl.o(.constdata)
    .constdata                               0x0800823b   Section       31  gtimer.o(.constdata)
    __FUNCTION__                             0x0800823b   Data          20  gtimer.o(.constdata)
    __FUNCTION__                             0x0800824f   Data          11  gtimer.o(.constdata)
    .constdata                               0x0800825a   Section      129  ctype_o.o(.constdata)
    .constdata                               0x080082dc   Section        4  ctype_o.o(.constdata)
    table                                    0x080082dc   Data           4  ctype_o.o(.constdata)
    .conststring                             0x080082e0   Section       12  freertos.o(.conststring)
    .conststring                             0x080082ec   Section      139  elog.o(.conststring)
    .conststring                             0x08008378   Section       73  elog_utils.o(.conststring)
    .conststring                             0x080083c4   Section       72  test_elog.o(.conststring)
    .conststring                             0x0800840c   Section       73  easyflash.o(.conststring)
    .conststring                             0x08008458   Section      303  ef_env.o(.conststring)
    .conststring                             0x08008588   Section       91  ef_port.o(.conststring)
    .data                                    0x20000000   Section        4  freertos.o(.data)
    .data                                    0x20000004   Section       12  stm32f4xx_hal.o(.data)
    .data                                    0x20000010   Section        4  system_stm32f4xx.o(.data)
    .data                                    0x20000014   Section       60  tasks.o(.data)
    pxDelayedTaskList                        0x20000018   Data           4  tasks.o(.data)
    pxOverflowDelayedTaskList                0x2000001c   Data           4  tasks.o(.data)
    uxDeletedTasksWaitingCleanUp             0x20000020   Data           4  tasks.o(.data)
    uxCurrentNumberOfTasks                   0x20000024   Data           4  tasks.o(.data)
    xTickCount                               0x20000028   Data           4  tasks.o(.data)
    uxTopReadyPriority                       0x2000002c   Data           4  tasks.o(.data)
    xSchedulerRunning                        0x20000030   Data           4  tasks.o(.data)
    uxPendedTicks                            0x20000034   Data           4  tasks.o(.data)
    xYieldPending                            0x20000038   Data           4  tasks.o(.data)
    xNumOfOverflows                          0x2000003c   Data           4  tasks.o(.data)
    uxTaskNumber                             0x20000040   Data           4  tasks.o(.data)
    xNextTaskUnblockTime                     0x20000044   Data           4  tasks.o(.data)
    xIdleTaskHandle                          0x20000048   Data           4  tasks.o(.data)
    uxSchedulerSuspended                     0x2000004c   Data           4  tasks.o(.data)
    .data                                    0x20000050   Section       24  heap_4.o(.data)
    pxEnd                                    0x20000050   Data           4  heap_4.o(.data)
    xFreeBytesRemaining                      0x20000054   Data           4  heap_4.o(.data)
    xMinimumEverFreeBytesRemaining           0x20000058   Data           4  heap_4.o(.data)
    xBlockAllocatedBit                       0x2000005c   Data           4  heap_4.o(.data)
    xStart                                   0x20000060   Data           8  heap_4.o(.data)
    .data                                    0x20000068   Section       12  port.o(.data)
    ucMaxSysCallPriority                     0x20000068   Data           1  port.o(.data)
    uxCriticalNesting                        0x2000006c   Data           4  port.o(.data)
    ulMaxPRIGROUPValue                       0x20000070   Data           4  port.o(.data)
    .data                                    0x20000074   Section       52  elog.o(.data)
    level_output_info                        0x20000078   Data          24  elog.o(.data)
    color_output_info                        0x20000090   Data          24  elog.o(.data)
    .data                                    0x200000a8   Section       16  ef_env.o(.data)
    init_ok                                  0x200000a8   Data           1  ef_env.o(.data)
    gc_request                               0x200000a9   Data           1  ef_env.o(.data)
    in_recovery_check                        0x200000aa   Data           1  ef_env.o(.data)
    last_is_complete_del                     0x200000ab   Data           1  ef_env.o(.data)
    env_start_addr                           0x200000ac   Data           4  ef_env.o(.data)
    default_env_set_size                     0x200000b0   Data           4  ef_env.o(.data)
    default_env_set                          0x200000b4   Data           4  ef_env.o(.data)
    .data                                    0x200000b8   Section       56  gs2j_test.o(.data)
    orignal_student_obj                      0x200000b8   Data          56  gs2j_test.o(.data)
    .data                                    0x200000f0   Section       12  cjson.o(.data)
    cJSON_malloc                             0x200000f0   Data           4  cjson.o(.data)
    cJSON_free                               0x200000f4   Data           4  cjson.o(.data)
    ep                                       0x200000f8   Data           4  cjson.o(.data)
    .data                                    0x200000fc   Section        8  s2j.o(.data)
    .data                                    0x20000104   Section        8  gmultibutton.o(.data)
    head_handle                              0x20000104   Data           4  gmultibutton.o(.data)
    into                                     0x20000108   Data           4  gmultibutton.o(.data)
    .data                                    0x2000010c   Section        8  gtwinkle.o(.data)
    ID                                       0x2000010c   Data           1  gtwinkle.o(.data)
    head                                     0x20000110   Data           4  gtwinkle.o(.data)
    .data                                    0x20000114   Section        8  gtwinkle.o(.data)
    .data                                    0x2000011c   Section      100  gflashctl.o(.data)
    .data                                    0x20000180   Section       36  gw24q64.o(.data)
    .data                                    0x200001a4   Section       20  gtwled.o(.data)
    id                                       0x200001a4   Data           2  gtwled.o(.data)
    .data                                    0x200001b8   Section       28  gtimer.o(.data)
    SoncetimerTaskId                         0x200001b8   Data           1  gtimer.o(.data)
    Soncetimerhead                           0x200001bc   Data           4  gtimer.o(.data)
    cnt                                      0x200001c0   Data           4  gtimer.o(.data)
    cnt                                      0x200001c4   Data           4  gtimer.o(.data)
    .data                                    0x200001d4   Section        4  stdout.o(.data)
    .data                                    0x200001d8   Section        4  mvars.o(.data)
    .data                                    0x200001dc   Section        4  mvars.o(.data)
    .data                                    0x200001e0   Section        4  errno.o(.data)
    _errno                                   0x200001e0   Data           4  errno.o(.data)
    .bss                                     0x200001e4   Section      596  freertos.o(.bss)
    xIdleTaskTCBBuffer                       0x200001e4   Data          84  freertos.o(.bss)
    xIdleStack                               0x20000238   Data         512  freertos.o(.bss)
    .bss                                     0x20000438   Section       16  rng.o(.bss)
    .bss                                     0x20000448   Section      264  spi.o(.bss)
    .bss                                     0x20000550   Section       64  tim.o(.bss)
    .bss                                     0x20000590   Section      256  usart.o(.bss)
    .bss                                     0x20000690   Section       64  stm32f4xx_hal_timebase_tim.o(.bss)
    .bss                                     0x200006d0   Section      240  tasks.o(.bss)
    pxReadyTasksLists                        0x200006d0   Data         140  tasks.o(.bss)
    xDelayedTaskList1                        0x2000075c   Data          20  tasks.o(.bss)
    xDelayedTaskList2                        0x20000770   Data          20  tasks.o(.bss)
    xPendingReadyList                        0x20000784   Data          20  tasks.o(.bss)
    xTasksWaitingTermination                 0x20000798   Data          20  tasks.o(.bss)
    xSuspendedTaskList                       0x200007ac   Data          20  tasks.o(.bss)
    .bss                                     0x200007c0   Section    15360  heap_4.o(.bss)
    ucHeap                                   0x200007c0   Data       15360  heap_4.o(.bss)
    .bss                                     0x200043c0   Section     1108  elog.o(.bss)
    log_buf                                  0x200043c0   Data        1024  elog.o(.bss)
    elog                                     0x200047c0   Data          84  elog.o(.bss)
    .bss                                     0x20004814   Section      372  ef_env.o(.bss)
    value                                    0x200048b4   Data         129  ef_env.o(.bss)
    env                                      0x20004938   Data          56  ef_env.o(.bss)
    sector                                   0x20004970   Data          24  ef_env.o(.bss)
    .bss                                     0x20004988   Section      128  ef_port.o(.bss)
    log_buf                                  0x20004988   Data         128  ef_port.o(.bss)
    .bss                                     0x20004a08   Section       40  gmultibutton.o(.bss)
    btn1                                     0x20004a08   Data          40  gmultibutton.o(.bss)
    .bss                                     0x20004a30   Section       72  gkbaseusart.o(.bss)
    .bss                                     0x20004a78   Section      100  gw24q64.o(.bss)
    .bss                                     0x20004adc   Section       80  gtwled.o(.bss)
    HEAP                                     0x20004b30   Section     4096  startup_stm32f405xx.o(HEAP)
    STACK                                    0x20005b30   Section     8192  startup_stm32f405xx.o(STACK)

    Global Symbols

    Symbol Name                              Value     Ov Type        Size  Object(Section)

    BuildAttributes$$THM_ISAv4$E$P$D$K$B$S$7EM$VFPi3$EXTD16$VFPS$VFMA$PE$A:L22UL41UL21$X:L11$S22US41US21$IEEE1$IW$USESV6$~STKCKD$USESV7$~SHL$OTIME$ROPI$IEEEX$EBA8$MICROLIB$REQ8$PRES8$EABIv2 0x00000000   Number         0  anon$$obj.o ABSOLUTE
    __ARM_use_no_argv                        0x00000000   Number         0  main.o ABSOLUTE
    _printf_a                                0x00000000   Number         0  stubs.o ABSOLUTE
    _printf_c                                0x00000000   Number         0  stubs.o ABSOLUTE
    _printf_charcount                        0x00000000   Number         0  stubs.o ABSOLUTE
    _printf_d                                0x00000000   Number         0  stubs.o ABSOLUTE
    _printf_e                                0x00000000   Number         0  stubs.o ABSOLUTE
    _printf_f                                0x00000000   Number         0  stubs.o ABSOLUTE
    _printf_flags                            0x00000000   Number         0  stubs.o ABSOLUTE
    _printf_fp_dec                           0x00000000   Number         0  stubs.o ABSOLUTE
    _printf_fp_hex                           0x00000000   Number         0  stubs.o ABSOLUTE
    _printf_g                                0x00000000   Number         0  stubs.o ABSOLUTE
    _printf_i                                0x00000000   Number         0  stubs.o ABSOLUTE
    _printf_int_dec                          0x00000000   Number         0  stubs.o ABSOLUTE
    _printf_l                                0x00000000   Number         0  stubs.o ABSOLUTE
    _printf_lc                               0x00000000   Number         0  stubs.o ABSOLUTE
    _printf_ll                               0x00000000   Number         0  stubs.o ABSOLUTE
    _printf_lld                              0x00000000   Number         0  stubs.o ABSOLUTE
    _printf_lli                              0x00000000   Number         0  stubs.o ABSOLUTE
    _printf_llo                              0x00000000   Number         0  stubs.o ABSOLUTE
    _printf_llu                              0x00000000   Number         0  stubs.o ABSOLUTE
    _printf_llx                              0x00000000   Number         0  stubs.o ABSOLUTE
    _printf_longlong_dec                     0x00000000   Number         0  stubs.o ABSOLUTE
    _printf_longlong_hex                     0x00000000   Number         0  stubs.o ABSOLUTE
    _printf_longlong_oct                     0x00000000   Number         0  stubs.o ABSOLUTE
    _printf_ls                               0x00000000   Number         0  stubs.o ABSOLUTE
    _printf_mbtowc                           0x00000000   Number         0  stubs.o ABSOLUTE
    _printf_n                                0x00000000   Number         0  stubs.o ABSOLUTE
    _printf_o                                0x00000000   Number         0  stubs.o ABSOLUTE
    _printf_p                                0x00000000   Number         0  stubs.o ABSOLUTE
    _printf_percent                          0x00000000   Number         0  stubs.o ABSOLUTE
    _printf_pre_padding                      0x00000000   Number         0  stubs.o ABSOLUTE
    _printf_return_value                     0x00000000   Number         0  stubs.o ABSOLUTE
    _printf_s                                0x00000000   Number         0  stubs.o ABSOLUTE
    _printf_sizespec                         0x00000000   Number         0  stubs.o ABSOLUTE
    _printf_str                              0x00000000   Number         0  stubs.o ABSOLUTE
    _printf_truncate_signed                  0x00000000   Number         0  stubs.o ABSOLUTE
    _printf_truncate_unsigned                0x00000000   Number         0  stubs.o ABSOLUTE
    _printf_u                                0x00000000   Number         0  stubs.o ABSOLUTE
    _printf_wc                               0x00000000   Number         0  stubs.o ABSOLUTE
    _printf_wctomb                           0x00000000   Number         0  stubs.o ABSOLUTE
    _printf_widthprec                        0x00000000   Number         0  stubs.o ABSOLUTE
    _printf_x                                0x00000000   Number         0  stubs.o ABSOLUTE
    __cpp_initialize__aeabi_                  - Undefined Weak Reference
    __cxa_finalize                            - Undefined Weak Reference
    _clock_init                               - Undefined Weak Reference
    _microlib_exit                            - Undefined Weak Reference
    _scanf_longlong                           - Undefined Weak Reference
    _scanf_string                             - Undefined Weak Reference
    __Vectors_Size                           0x00000188   Number         0  startup_stm32f405xx.o ABSOLUTE
    __Vectors                                0x08000000   Data           4  startup_stm32f405xx.o(RESET)
    __Vectors_End                            0x08000188   Data           0  startup_stm32f405xx.o(RESET)
    __main                                   0x08000189   Thumb Code     0  entry.o(.ARM.Collect$$$$00000000)
    _main_stk                                0x08000189   Thumb Code     0  entry2.o(.ARM.Collect$$$$00000001)
    _main_scatterload                        0x0800018d   Thumb Code     0  entry5.o(.ARM.Collect$$$$00000004)
    __main_after_scatterload                 0x08000191   Thumb Code     0  entry5.o(.ARM.Collect$$$$00000004)
    _main_clock                              0x08000191   Thumb Code     0  entry7b.o(.ARM.Collect$$$$00000008)
    _main_cpp_init                           0x08000191   Thumb Code     0  entry8b.o(.ARM.Collect$$$$0000000A)
    _main_init                               0x08000191   Thumb Code     0  entry9a.o(.ARM.Collect$$$$0000000B)
    __rt_final_cpp                           0x08000199   Thumb Code     0  entry10a.o(.ARM.Collect$$$$0000000D)
    __rt_final_exit                          0x08000199   Thumb Code     0  entry11a.o(.ARM.Collect$$$$0000000F)
    SVC_Handler                              0x0800019d   Thumb Code    28  port.o(.emb_text)
    __asm___6_port_c_39a90d8d__prvStartFirstTask 0x080001bd   Thumb Code    36  port.o(.emb_text)
    __asm___6_port_c_39a90d8d__prvEnableVFP  0x080001e5   Thumb Code    16  port.o(.emb_text)
    PendSV_Handler                           0x080001f9   Thumb Code    88  port.o(.emb_text)
    vPortGetIPSR                             0x08000255   Thumb Code     6  port.o(.emb_text)
    Reset_Handler                            0x0800025d   Thumb Code     8  startup_stm32f405xx.o(.text)
    ADC_IRQHandler                           0x08000277   Thumb Code     0  startup_stm32f405xx.o(.text)
    CAN1_RX0_IRQHandler                      0x08000277   Thumb Code     0  startup_stm32f405xx.o(.text)
    CAN1_RX1_IRQHandler                      0x08000277   Thumb Code     0  startup_stm32f405xx.o(.text)
    CAN1_SCE_IRQHandler                      0x08000277   Thumb Code     0  startup_stm32f405xx.o(.text)
    CAN1_TX_IRQHandler                       0x08000277   Thumb Code     0  startup_stm32f405xx.o(.text)
    CAN2_RX0_IRQHandler                      0x08000277   Thumb Code     0  startup_stm32f405xx.o(.text)
    CAN2_RX1_IRQHandler                      0x08000277   Thumb Code     0  startup_stm32f405xx.o(.text)
    CAN2_SCE_IRQHandler                      0x08000277   Thumb Code     0  startup_stm32f405xx.o(.text)
    CAN2_TX_IRQHandler                       0x08000277   Thumb Code     0  startup_stm32f405xx.o(.text)
    DMA1_Stream0_IRQHandler                  0x08000277   Thumb Code     0  startup_stm32f405xx.o(.text)
    DMA1_Stream1_IRQHandler                  0x08000277   Thumb Code     0  startup_stm32f405xx.o(.text)
    DMA1_Stream2_IRQHandler                  0x08000277   Thumb Code     0  startup_stm32f405xx.o(.text)
    DMA1_Stream3_IRQHandler                  0x08000277   Thumb Code     0  startup_stm32f405xx.o(.text)
    DMA1_Stream4_IRQHandler                  0x08000277   Thumb Code     0  startup_stm32f405xx.o(.text)
    DMA1_Stream5_IRQHandler                  0x08000277   Thumb Code     0  startup_stm32f405xx.o(.text)
    DMA1_Stream6_IRQHandler                  0x08000277   Thumb Code     0  startup_stm32f405xx.o(.text)
    DMA1_Stream7_IRQHandler                  0x08000277   Thumb Code     0  startup_stm32f405xx.o(.text)
    DMA2_Stream0_IRQHandler                  0x08000277   Thumb Code     0  startup_stm32f405xx.o(.text)
    DMA2_Stream1_IRQHandler                  0x08000277   Thumb Code     0  startup_stm32f405xx.o(.text)
    DMA2_Stream2_IRQHandler                  0x08000277   Thumb Code     0  startup_stm32f405xx.o(.text)
    DMA2_Stream3_IRQHandler                  0x08000277   Thumb Code     0  startup_stm32f405xx.o(.text)
    DMA2_Stream4_IRQHandler                  0x08000277   Thumb Code     0  startup_stm32f405xx.o(.text)
    DMA2_Stream5_IRQHandler                  0x08000277   Thumb Code     0  startup_stm32f405xx.o(.text)
    DMA2_Stream6_IRQHandler                  0x08000277   Thumb Code     0  startup_stm32f405xx.o(.text)
    DMA2_Stream7_IRQHandler                  0x08000277   Thumb Code     0  startup_stm32f405xx.o(.text)
    EXTI0_IRQHandler                         0x08000277   Thumb Code     0  startup_stm32f405xx.o(.text)
    EXTI15_10_IRQHandler                     0x08000277   Thumb Code     0  startup_stm32f405xx.o(.text)
    EXTI1_IRQHandler                         0x08000277   Thumb Code     0  startup_stm32f405xx.o(.text)
    EXTI2_IRQHandler                         0x08000277   Thumb Code     0  startup_stm32f405xx.o(.text)
    EXTI3_IRQHandler                         0x08000277   Thumb Code     0  startup_stm32f405xx.o(.text)
    EXTI4_IRQHandler                         0x08000277   Thumb Code     0  startup_stm32f405xx.o(.text)
    EXTI9_5_IRQHandler                       0x08000277   Thumb Code     0  startup_stm32f405xx.o(.text)
    FLASH_IRQHandler                         0x08000277   Thumb Code     0  startup_stm32f405xx.o(.text)
    FMC_IRQHandler                           0x08000277   Thumb Code     0  startup_stm32f405xx.o(.text)
    FPU_IRQHandler                           0x08000277   Thumb Code     0  startup_stm32f405xx.o(.text)
    I2C1_ER_IRQHandler                       0x08000277   Thumb Code     0  startup_stm32f405xx.o(.text)
    I2C1_EV_IRQHandler                       0x08000277   Thumb Code     0  startup_stm32f405xx.o(.text)
    I2C2_ER_IRQHandler                       0x08000277   Thumb Code     0  startup_stm32f405xx.o(.text)
    I2C2_EV_IRQHandler                       0x08000277   Thumb Code     0  startup_stm32f405xx.o(.text)
    I2C3_ER_IRQHandler                       0x08000277   Thumb Code     0  startup_stm32f405xx.o(.text)
    I2C3_EV_IRQHandler                       0x08000277   Thumb Code     0  startup_stm32f405xx.o(.text)
    OTG_FS_IRQHandler                        0x08000277   Thumb Code     0  startup_stm32f405xx.o(.text)
    OTG_FS_WKUP_IRQHandler                   0x08000277   Thumb Code     0  startup_stm32f405xx.o(.text)
    OTG_HS_EP1_IN_IRQHandler                 0x08000277   Thumb Code     0  startup_stm32f405xx.o(.text)
    OTG_HS_EP1_OUT_IRQHandler                0x08000277   Thumb Code     0  startup_stm32f405xx.o(.text)
    OTG_HS_IRQHandler                        0x08000277   Thumb Code     0  startup_stm32f405xx.o(.text)
    OTG_HS_WKUP_IRQHandler                   0x08000277   Thumb Code     0  startup_stm32f405xx.o(.text)
    PVD_IRQHandler                           0x08000277   Thumb Code     0  startup_stm32f405xx.o(.text)
    RTC_Alarm_IRQHandler                     0x08000277   Thumb Code     0  startup_stm32f405xx.o(.text)
    RTC_WKUP_IRQHandler                      0x08000277   Thumb Code     0  startup_stm32f405xx.o(.text)
    SDIO_IRQHandler                          0x08000277   Thumb Code     0  startup_stm32f405xx.o(.text)
    TAMP_STAMP_IRQHandler                    0x08000277   Thumb Code     0  startup_stm32f405xx.o(.text)
    TIM1_BRK_TIM9_IRQHandler                 0x08000277   Thumb Code     0  startup_stm32f405xx.o(.text)
    TIM1_CC_IRQHandler                       0x08000277   Thumb Code     0  startup_stm32f405xx.o(.text)
    TIM1_TRG_COM_TIM11_IRQHandler            0x08000277   Thumb Code     0  startup_stm32f405xx.o(.text)
    TIM1_UP_TIM10_IRQHandler                 0x08000277   Thumb Code     0  startup_stm32f405xx.o(.text)
    TIM2_IRQHandler                          0x08000277   Thumb Code     0  startup_stm32f405xx.o(.text)
    TIM3_IRQHandler                          0x08000277   Thumb Code     0  startup_stm32f405xx.o(.text)
    TIM4_IRQHandler                          0x08000277   Thumb Code     0  startup_stm32f405xx.o(.text)
    TIM5_IRQHandler                          0x08000277   Thumb Code     0  startup_stm32f405xx.o(.text)
    TIM8_BRK_TIM12_IRQHandler                0x08000277   Thumb Code     0  startup_stm32f405xx.o(.text)
    TIM8_CC_IRQHandler                       0x08000277   Thumb Code     0  startup_stm32f405xx.o(.text)
    TIM8_TRG_COM_TIM14_IRQHandler            0x08000277   Thumb Code     0  startup_stm32f405xx.o(.text)
    TIM8_UP_TIM13_IRQHandler                 0x08000277   Thumb Code     0  startup_stm32f405xx.o(.text)
    UART4_IRQHandler                         0x08000277   Thumb Code     0  startup_stm32f405xx.o(.text)
    UART5_IRQHandler                         0x08000277   Thumb Code     0  startup_stm32f405xx.o(.text)
    WWDG_IRQHandler                          0x08000277   Thumb Code     0  startup_stm32f405xx.o(.text)
    __aeabi_uldivmod                         0x08000281   Thumb Code    98  uldiv.o(.text)
    tolower                                  0x080002e3   Thumb Code    12  tolower.o(.text)
    __aeabi_memcpy                           0x080002ef   Thumb Code    36  memcpya.o(.text)
    __aeabi_memcpy4                          0x080002ef   Thumb Code     0  memcpya.o(.text)
    __aeabi_memcpy8                          0x080002ef   Thumb Code     0  memcpya.o(.text)
    __aeabi_memset                           0x08000313   Thumb Code    14  memseta.o(.text)
    __aeabi_memset4                          0x08000313   Thumb Code     0  memseta.o(.text)
    __aeabi_memset8                          0x08000313   Thumb Code     0  memseta.o(.text)
    __aeabi_memclr                           0x08000321   Thumb Code     4  memseta.o(.text)
    __aeabi_memclr4                          0x08000321   Thumb Code     0  memseta.o(.text)
    __aeabi_memclr8                          0x08000321   Thumb Code     0  memseta.o(.text)
    memset                                   0x08000325   Thumb Code    18  memseta.o(.text)
    strstr                                   0x08000337   Thumb Code    36  strstr.o(.text)
    strncpy                                  0x0800035b   Thumb Code    24  strncpy.o(.text)
    strlen                                   0x08000373   Thumb Code    14  strlen.o(.text)
    memcmp                                   0x08000381   Thumb Code    26  memcmp.o(.text)
    strcpy                                   0x0800039b   Thumb Code    18  strcpy.o(.text)
    strncmp                                  0x080003ad   Thumb Code    30  strncmp.o(.text)
    atol                                     0x080003cb   Thumb Code    26  atol.o(.text)
    __aeabi_dadd                             0x080003e5   Thumb Code   322  dadd.o(.text)
    __aeabi_dsub                             0x08000527   Thumb Code     6  dadd.o(.text)
    __aeabi_drsub                            0x0800052d   Thumb Code     6  dadd.o(.text)
    __aeabi_dmul                             0x08000533   Thumb Code   228  dmul.o(.text)
    __aeabi_ui2d                             0x08000617   Thumb Code    26  dfltui.o(.text)
    __aeabi_d2iz                             0x08000631   Thumb Code    62  dfixi.o(.text)
    __aeabi_cdrcmple                         0x08000671   Thumb Code    48  cdrcmple.o(.text)
    __aeabi_uidiv                            0x080006a1   Thumb Code     0  uidiv.o(.text)
    __aeabi_uidivmod                         0x080006a1   Thumb Code    44  uidiv.o(.text)
    __aeabi_llsl                             0x080006cd   Thumb Code    30  llshl.o(.text)
    _ll_shift_l                              0x080006cd   Thumb Code     0  llshl.o(.text)
    __aeabi_llsr                             0x080006eb   Thumb Code    32  llushr.o(.text)
    _ll_ushift_r                             0x080006eb   Thumb Code     0  llushr.o(.text)
    __aeabi_lasr                             0x0800070b   Thumb Code    36  llsshr.o(.text)
    _ll_sshift_r                             0x0800070b   Thumb Code     0  llsshr.o(.text)
    _chval                                   0x0800072f   Thumb Code    28  _chval.o(.text)
    strtol                                   0x0800074b   Thumb Code   112  strtol.o(.text)
    __I$use$fp                               0x080007bb   Thumb Code     0  iusefp.o(.text)
    _double_round                            0x080007bb   Thumb Code    30  depilogue.o(.text)
    _double_epilogue                         0x080007d9   Thumb Code   156  depilogue.o(.text)
    __aeabi_ddiv                             0x08000875   Thumb Code   222  ddiv.o(.text)
    __aeabi_d2ulz                            0x08000953   Thumb Code    48  dfixul.o(.text)
    __scatterload                            0x08000985   Thumb Code    28  init.o(.text)
    __scatterload_rt2                        0x08000985   Thumb Code     0  init.o(.text)
    __rt_ctype_table                         0x080009a9   Thumb Code     4  ctype_o.o(.text)
    _strtoul                                 0x080009b1   Thumb Code   158  _strtoul.o(.text)
    __decompress                             0x08000a4f   Thumb Code     0  __dczerorl2.o(.text)
    __decompress1                            0x08000a4f   Thumb Code    86  __dczerorl2.o(.text)
    BTN1_DOUBLE_Click_Handler                0x08000aa5   Thumb Code    10  gmultibutton.o(i.BTN1_DOUBLE_Click_Handler)
    BTN1_LONG_PRESS_HOLD_Handler             0x08000ad5   Thumb Code    10  gmultibutton.o(i.BTN1_LONG_PRESS_HOLD_Handler)
    BTN1_LONG_RRESS_START_Handler            0x08000b05   Thumb Code    10  gmultibutton.o(i.BTN1_LONG_RRESS_START_Handler)
    BTN1_PRESS_DOWN_Handler                  0x08000b3d   Thumb Code    10  gmultibutton.o(i.BTN1_PRESS_DOWN_Handler)
    BTN1_PRESS_REPEAT_Handler                0x08000b75   Thumb Code    10  gmultibutton.o(i.BTN1_PRESS_REPEAT_Handler)
    BTN1_PRESS_UP_Handler                    0x08000bad   Thumb Code    22  gmultibutton.o(i.BTN1_PRESS_UP_Handler)
    BTN1_SINGLE_Click_Handler                0x08000bed   Thumb Code    10  gmultibutton.o(i.BTN1_SINGLE_Click_Handler)
    BusFault_Handler                         0x08000c1d   Thumb Code     2  stm32f4xx_it.o(i.BusFault_Handler)
    DebugMon_Handler                         0x08000c1f   Thumb Code     2  stm32f4xx_it.o(i.DebugMon_Handler)
    Error_Handler                            0x08000c21   Thumb Code     2  main.o(i.Error_Handler)
    GMX_NVIC_SetIRQ                          0x08000c23   Thumb Code   128  gunit.o(i.GMX_NVIC_SetIRQ)
    G_lovexin                                0x08000ca5   Thumb Code   158  gunit.o(i.G_lovexin)
    G_mcuReset                               0x08000d61   Thumb Code    22  gunit.o(i.G_mcuReset)
    HAL_DMA_Abort_IT                         0x08000dad   Thumb Code    36  stm32f4xx_hal_dma.o(i.HAL_DMA_Abort_IT)
    HAL_Delay                                0x08000dd1   Thumb Code    32  stm32f4xx_hal.o(i.HAL_Delay)
    HAL_GPIO_Init                            0x08000df5   Thumb Code   388  stm32f4xx_hal_gpio.o(i.HAL_GPIO_Init)
    HAL_GPIO_ReadPin                         0x08000fa5   Thumb Code    10  stm32f4xx_hal_gpio.o(i.HAL_GPIO_ReadPin)
    HAL_GPIO_WritePin                        0x08000faf   Thumb Code    10  stm32f4xx_hal_gpio.o(i.HAL_GPIO_WritePin)
    HAL_GetTick                              0x08000fb9   Thumb Code     6  stm32f4xx_hal.o(i.HAL_GetTick)
    HAL_IncTick                              0x08000fc5   Thumb Code    12  stm32f4xx_hal.o(i.HAL_IncTick)
    HAL_Init                                 0x08000fd5   Thumb Code    48  stm32f4xx_hal.o(i.HAL_Init)
    HAL_InitTick                             0x08001009   Thumb Code   100  stm32f4xx_hal_timebase_tim.o(i.HAL_InitTick)
    HAL_MspInit                              0x0800107d   Thumb Code    70  stm32f4xx_hal_msp.o(i.HAL_MspInit)
    HAL_NVIC_DisableIRQ                      0x080010c9   Thumb Code    34  stm32f4xx_hal_cortex.o(i.HAL_NVIC_DisableIRQ)
    HAL_NVIC_EnableIRQ                       0x080010eb   Thumb Code    26  stm32f4xx_hal_cortex.o(i.HAL_NVIC_EnableIRQ)
    HAL_NVIC_SetPriority                     0x08001105   Thumb Code    60  stm32f4xx_hal_cortex.o(i.HAL_NVIC_SetPriority)
    HAL_NVIC_SetPriorityGrouping             0x08001145   Thumb Code    26  stm32f4xx_hal_cortex.o(i.HAL_NVIC_SetPriorityGrouping)
    HAL_NVIC_SystemReset                     0x08001169   Thumb Code    26  stm32f4xx_hal_cortex.o(i.HAL_NVIC_SystemReset)
    HAL_RCC_ClockConfig                      0x0800118d   Thumb Code   286  stm32f4xx_hal_rcc.o(i.HAL_RCC_ClockConfig)
    HAL_RCC_GetClockConfig                   0x080012bd   Thumb Code    54  stm32f4xx_hal_rcc.o(i.HAL_RCC_GetClockConfig)
    HAL_RCC_GetPCLK1Freq                     0x080012fd   Thumb Code    20  stm32f4xx_hal_rcc.o(i.HAL_RCC_GetPCLK1Freq)
    HAL_RCC_GetPCLK2Freq                     0x0800131d   Thumb Code    20  stm32f4xx_hal_rcc.o(i.HAL_RCC_GetPCLK2Freq)
    HAL_RCC_GetSysClockFreq                  0x0800133d   Thumb Code    88  stm32f4xx_hal_rcc.o(i.HAL_RCC_GetSysClockFreq)
    HAL_RCC_OscConfig                        0x0800139d   Thumb Code   770  stm32f4xx_hal_rcc.o(i.HAL_RCC_OscConfig)
    HAL_RNG_ErrorCallback                    0x080016b9   Thumb Code     2  stm32f4xx_hal_rng.o(i.HAL_RNG_ErrorCallback)
    HAL_RNG_IRQHandler                       0x080016bb   Thumb Code    94  stm32f4xx_hal_rng.o(i.HAL_RNG_IRQHandler)
    HAL_RNG_Init                             0x08001719   Thumb Code    50  stm32f4xx_hal_rng.o(i.HAL_RNG_Init)
    HAL_RNG_MspInit                          0x0800174d   Thumb Code    50  rng.o(i.HAL_RNG_MspInit)
    HAL_RNG_ReadyDataCallback                0x08001789   Thumb Code     2  stm32f4xx_hal_rng.o(i.HAL_RNG_ReadyDataCallback)
    HAL_SPI_ErrorCallback                    0x0800178b   Thumb Code     2  stm32f4xx_hal_spi.o(i.HAL_SPI_ErrorCallback)
    HAL_SPI_IRQHandler                       0x0800178d   Thumb Code   246  stm32f4xx_hal_spi.o(i.HAL_SPI_IRQHandler)
    HAL_SPI_Init                             0x08001889   Thumb Code   128  stm32f4xx_hal_spi.o(i.HAL_SPI_Init)
    HAL_SPI_MspInit                          0x08001909   Thumb Code   304  spi.o(i.HAL_SPI_MspInit)
    HAL_SPI_TransmitReceive                  0x08001a55   Thumb Code   482  stm32f4xx_hal_spi.o(i.HAL_SPI_TransmitReceive)
    HAL_TIMEx_BreakCallback                  0x08001c37   Thumb Code     2  stm32f4xx_hal_tim_ex.o(i.HAL_TIMEx_BreakCallback)
    HAL_TIMEx_CommutCallback                 0x08001c39   Thumb Code     2  stm32f4xx_hal_tim_ex.o(i.HAL_TIMEx_CommutCallback)
    HAL_TIMEx_MasterConfigSynchronization    0x08001c3b   Thumb Code    66  stm32f4xx_hal_tim_ex.o(i.HAL_TIMEx_MasterConfigSynchronization)
    HAL_TIM_Base_Init                        0x08001c7d   Thumb Code    54  stm32f4xx_hal_tim.o(i.HAL_TIM_Base_Init)
    HAL_TIM_Base_MspInit                     0x08001cb5   Thumb Code    50  tim.o(i.HAL_TIM_Base_MspInit)
    HAL_TIM_Base_Start_IT                    0x08001cf1   Thumb Code    34  stm32f4xx_hal_tim.o(i.HAL_TIM_Base_Start_IT)
    HAL_TIM_IC_CaptureCallback               0x08001d13   Thumb Code     2  stm32f4xx_hal_tim.o(i.HAL_TIM_IC_CaptureCallback)
    HAL_TIM_IRQHandler                       0x08001d15   Thumb Code   358  stm32f4xx_hal_tim.o(i.HAL_TIM_IRQHandler)
    HAL_TIM_OC_DelayElapsedCallback          0x08001e7b   Thumb Code     2  stm32f4xx_hal_tim.o(i.HAL_TIM_OC_DelayElapsedCallback)
    HAL_TIM_PWM_PulseFinishedCallback        0x08001e7d   Thumb Code     2  stm32f4xx_hal_tim.o(i.HAL_TIM_PWM_PulseFinishedCallback)
    HAL_TIM_PeriodElapsedCallback            0x08001e81   Thumb Code    46  main.o(i.HAL_TIM_PeriodElapsedCallback)
    HAL_TIM_TriggerCallback                  0x08001eb9   Thumb Code     2  stm32f4xx_hal_tim.o(i.HAL_TIM_TriggerCallback)
    HAL_UART_ErrorCallback                   0x08001ebb   Thumb Code     2  stm32f4xx_hal_uart.o(i.HAL_UART_ErrorCallback)
    HAL_UART_IRQHandler                      0x08001ebd   Thumb Code   266  stm32f4xx_hal_uart.o(i.HAL_UART_IRQHandler)
    HAL_UART_Init                            0x08001fcd   Thumb Code    98  stm32f4xx_hal_uart.o(i.HAL_UART_Init)
    HAL_UART_MspInit                         0x08002031   Thumb Code   312  usart.o(i.HAL_UART_MspInit)
    HAL_UART_Receive_IT                      0x08002185   Thumb Code    82  stm32f4xx_hal_uart.o(i.HAL_UART_Receive_IT)
    HAL_UART_RxCpltCallback                  0x080021d9   Thumb Code   144  gkbaseusart.o(i.HAL_UART_RxCpltCallback)
    HAL_UART_Transmit                        0x08002279   Thumb Code   186  stm32f4xx_hal_uart.o(i.HAL_UART_Transmit)
    HAL_UART_TxCpltCallback                  0x08002333   Thumb Code     2  stm32f4xx_hal_uart.o(i.HAL_UART_TxCpltCallback)
    HASH_RNG_IRQHandler                      0x08002335   Thumb Code     6  stm32f4xx_it.o(i.HASH_RNG_IRQHandler)
    HardFault_Handler                        0x08002341   Thumb Code     2  stm32f4xx_it.o(i.HardFault_Handler)
    MX_FREERTOS_Init                         0x08002345   Thumb Code    30  freertos.o(i.MX_FREERTOS_Init)
    MX_GPIO_Init                             0x0800236d   Thumb Code   330  gpio.o(i.MX_GPIO_Init)
    MX_RNG_Init                              0x080024d1   Thumb Code    28  rng.o(i.MX_RNG_Init)
    MX_SPI1_Init                             0x080024f5   Thumb Code    62  spi.o(i.MX_SPI1_Init)
    MX_SPI2_Init                             0x0800253d   Thumb Code    60  spi.o(i.MX_SPI2_Init)
    MX_SPI3_Init                             0x08002581   Thumb Code    60  spi.o(i.MX_SPI3_Init)
    MX_TIM6_Init                             0x080025c5   Thumb Code    60  tim.o(i.MX_TIM6_Init)
    MX_USART1_UART_Init                      0x08002609   Thumb Code    48  usart.o(i.MX_USART1_UART_Init)
    MX_USART2_UART_Init                      0x08002641   Thumb Code    48  usart.o(i.MX_USART2_UART_Init)
    MX_USART3_UART_Init                      0x08002679   Thumb Code    48  usart.o(i.MX_USART3_UART_Init)
    MX_USART6_UART_Init                      0x080026b1   Thumb Code    48  usart.o(i.MX_USART6_UART_Init)
    MemManage_Handler                        0x080026e9   Thumb Code     2  stm32f4xx_it.o(i.MemManage_Handler)
    NMI_Handler                              0x080026eb   Thumb Code     2  stm32f4xx_it.o(i.NMI_Handler)
    RCC_IRQHandler                           0x080026ed   Thumb Code     2  stm32f4xx_it.o(i.RCC_IRQHandler)
    SPI1_IRQHandler                          0x080026f1   Thumb Code     6  stm32f4xx_it.o(i.SPI1_IRQHandler)
    SPI2_IRQHandler                          0x080026fd   Thumb Code     6  stm32f4xx_it.o(i.SPI2_IRQHandler)
    SPI3_IRQHandler                          0x08002709   Thumb Code     6  stm32f4xx_it.o(i.SPI3_IRQHandler)
    SPI_FLASH_BufferRead                     0x0800277d   Thumb Code    82  gw24q64.o(i.SPI_FLASH_BufferRead)
    SPI_FLASH_BufferWrite                    0x080027d5   Thumb Code   188  gw24q64.o(i.SPI_FLASH_BufferWrite)
    SPI_FLASH_BulkErase                      0x08002891   Thumb Code    42  gw24q64.o(i.SPI_FLASH_BulkErase)
    SPI_FLASH_PageWrite                      0x080028c1   Thumb Code    94  gw24q64.o(i.SPI_FLASH_PageWrite)
    SPI_FLASH_ReadDeviceID                   0x08002925   Thumb Code    60  gw24q64.o(i.SPI_FLASH_ReadDeviceID)
    SPI_FLASH_ReadID                         0x08002965   Thumb Code    68  gw24q64.o(i.SPI_FLASH_ReadID)
    SPI_FLASH_SectorErase                    0x080029ad   Thumb Code    70  gw24q64.o(i.SPI_FLASH_SectorErase)
    SPI_FLASH_SectorErase_BYNUMBER           0x080029f9   Thumb Code    34  gw24q64.o(i.SPI_FLASH_SectorErase_BYNUMBER)
    SPI_FLASH_SendByte                       0x08002a21   Thumb Code    38  gw24q64.o(i.SPI_FLASH_SendByte)
    SPI_FLASH_WaitForWriteEnd                0x08002a4d   Thumb Code    44  gw24q64.o(i.SPI_FLASH_WaitForWriteEnd)
    SPI_FLASH_WriteEnable                    0x08002a7d   Thumb Code    34  gw24q64.o(i.SPI_FLASH_WriteEnable)
    StartDefaultTask                         0x08002b39   Thumb Code     8  freertos.o(i.StartDefaultTask)
    SysTick_Handler                          0x08002b41   Thumb Code    38  port.o(i.SysTick_Handler)
    SystemClock_Config                       0x08002b6d   Thumb Code   130  main.o(i.SystemClock_Config)
    SystemInit                               0x08002bf9   Thumb Code    66  system_stm32f4xx.o(i.SystemInit)
    TIM6_DAC_IRQHandler                      0x08002c4d   Thumb Code     6  stm32f4xx_it.o(i.TIM6_DAC_IRQHandler)
    TIM7_IRQHandler                          0x08002c59   Thumb Code     6  stm32f4xx_it.o(i.TIM7_IRQHandler)
    TIM_Base_SetConfig                       0x08002c65   Thumb Code   156  stm32f4xx_hal_tim.o(i.TIM_Base_SetConfig)
    TWLED0_init                              0x08002d2d   Thumb Code    32  gtwled.o(i.TWLED0_init)
    TWLED0_write                             0x08002d61   Thumb Code    12  gtwled.o(i.TWLED0_write)
    TWLED1_init                              0x08002d75   Thumb Code    32  gtwled.o(i.TWLED1_init)
    TWLED1_write                             0x08002da9   Thumb Code    12  gtwled.o(i.TWLED1_write)
    USART1_IRQHandler                        0x080031f5   Thumb Code     6  stm32f4xx_it.o(i.USART1_IRQHandler)
    USART2_IRQHandler                        0x08003201   Thumb Code     6  stm32f4xx_it.o(i.USART2_IRQHandler)
    USART3_IRQHandler                        0x0800320d   Thumb Code     6  stm32f4xx_it.o(i.USART3_IRQHandler)
    USART6_IRQHandler                        0x08003219   Thumb Code     6  stm32f4xx_it.o(i.USART6_IRQHandler)
    UsageFault_Handler                       0x08003225   Thumb Code     2  stm32f4xx_it.o(i.UsageFault_Handler)
    W24Q64_Init                              0x08003229   Thumb Code   106  gw24q64.o(i.W24Q64_Init)
    __0printf                                0x080032dd   Thumb Code    22  printfa.o(i.__0printf)
    __1printf                                0x080032dd   Thumb Code     0  printfa.o(i.__0printf)
    __2printf                                0x080032dd   Thumb Code     0  printfa.o(i.__0printf)
    __c89printf                              0x080032dd   Thumb Code     0  printfa.o(i.__0printf)
    printf                                   0x080032dd   Thumb Code     0  printfa.o(i.__0printf)
    __0snprintf                              0x080032fd   Thumb Code    44  printfa.o(i.__0snprintf)
    __1snprintf                              0x080032fd   Thumb Code     0  printfa.o(i.__0snprintf)
    __2snprintf                              0x080032fd   Thumb Code     0  printfa.o(i.__0snprintf)
    __c89snprintf                            0x080032fd   Thumb Code     0  printfa.o(i.__0snprintf)
    snprintf                                 0x080032fd   Thumb Code     0  printfa.o(i.__0snprintf)
    __0sprintf                               0x0800332d   Thumb Code    34  printfa.o(i.__0sprintf)
    __1sprintf                               0x0800332d   Thumb Code     0  printfa.o(i.__0sprintf)
    __2sprintf                               0x0800332d   Thumb Code     0  printfa.o(i.__0sprintf)
    __c89sprintf                             0x0800332d   Thumb Code     0  printfa.o(i.__0sprintf)
    sprintf                                  0x0800332d   Thumb Code     0  printfa.o(i.__0sprintf)
    __0vsnprintf                             0x08003355   Thumb Code    40  printfa.o(i.__0vsnprintf)
    __1vsnprintf                             0x08003355   Thumb Code     0  printfa.o(i.__0vsnprintf)
    __2vsnprintf                             0x08003355   Thumb Code     0  printfa.o(i.__0vsnprintf)
    __c89vsnprintf                           0x08003355   Thumb Code     0  printfa.o(i.__0vsnprintf)
    vsnprintf                                0x08003355   Thumb Code     0  printfa.o(i.__0vsnprintf)
    __0vsprintf                              0x08003381   Thumb Code    30  printfa.o(i.__0vsprintf)
    __1vsprintf                              0x08003381   Thumb Code     0  printfa.o(i.__0vsprintf)
    __2vsprintf                              0x08003381   Thumb Code     0  printfa.o(i.__0vsprintf)
    __c89vsprintf                            0x08003381   Thumb Code     0  printfa.o(i.__0vsprintf)
    vsprintf                                 0x08003381   Thumb Code     0  printfa.o(i.__0vsprintf)
    __aeabi_errno_addr                       0x080033c5   Thumb Code     4  errno.o(i.__aeabi_errno_addr)
    __rt_errno_addr                          0x080033c5   Thumb Code     0  errno.o(i.__aeabi_errno_addr)
    __scatterload_copy                       0x080033cd   Thumb Code    14  handlers.o(i.__scatterload_copy)
    __scatterload_null                       0x080033db   Thumb Code     2  handlers.o(i.__scatterload_null)
    __scatterload_zeroinit                   0x080033dd   Thumb Code    14  handlers.o(i.__scatterload_zeroinit)
    button_handler                           0x08003ebd   Thumb Code   432  gmultibutton.o(i.button_handler)
    button_init                              0x0800406d   Thumb Code    44  gmultibutton.o(i.button_init)
    button_start                             0x08004099   Thumb Code    32  gmultibutton.o(i.button_start)
    button_ticks                             0x080040bd   Thumb Code    42  gmultibutton.o(i.button_ticks)
    cJSON_AddItemToArray                     0x080040ed   Thumb Code    28  cjson.o(i.cJSON_AddItemToArray)
    cJSON_AddItemToObject                    0x08004109   Thumb Code    42  cjson.o(i.cJSON_AddItemToObject)
    cJSON_CreateArray                        0x08004139   Thumb Code    16  cjson.o(i.cJSON_CreateArray)
    cJSON_CreateNumber                       0x08004149   Thumb Code    48  cjson.o(i.cJSON_CreateNumber)
    cJSON_CreateObject                       0x08004179   Thumb Code    16  cjson.o(i.cJSON_CreateObject)
    cJSON_CreateString                       0x08004189   Thumb Code    28  cjson.o(i.cJSON_CreateString)
    cJSON_Delete                             0x080041a5   Thumb Code    66  cjson.o(i.cJSON_Delete)
    cJSON_GetArrayItem                       0x080041ed   Thumb Code    18  cjson.o(i.cJSON_GetArrayItem)
    cJSON_GetArraySize                       0x080041ff   Thumb Code    16  cjson.o(i.cJSON_GetArraySize)
    cJSON_GetObjectItem                      0x0800420f   Thumb Code    28  cjson.o(i.cJSON_GetObjectItem)
    easyflash_init                           0x08004825   Thumb Code    64  easyflash.o(i.easyflash_init)
    ef_calc_crc32                            0x080048f9   Thumb Code    32  ef_utils.o(i.ef_calc_crc32)
    ef_env_init                              0x0800491d   Thumb Code   110  ef_env.o(i.ef_env_init)
    ef_env_set_default                       0x08004a31   Thumb Code   164  ef_env.o(i.ef_env_set_default)
    ef_get_env                               0x08004b61   Thumb Code    46  ef_env.o(i.ef_get_env)
    ef_get_env_blob                          0x08004bd1   Thumb Code    84  ef_env.o(i.ef_get_env_blob)
    ef_load_env                              0x08004c61   Thumb Code   106  ef_env.o(i.ef_load_env)
    ef_log_debug                             0x08004d1d   Thumb Code    46  ef_port.o(i.ef_log_debug)
    ef_log_info                              0x08004d6d   Thumb Code    42  ef_port.o(i.ef_log_info)
    ef_port_env_lock                         0x08004dad   Thumb Code     4  ef_port.o(i.ef_port_env_lock)
    ef_port_env_unlock                       0x08004db1   Thumb Code     4  ef_port.o(i.ef_port_env_unlock)
    ef_port_erase                            0x08004db5   Thumb Code    46  ef_port.o(i.ef_port_erase)
    ef_port_init                             0x08004e6d   Thumb Code    24  ef_port.o(i.ef_port_init)
    ef_port_read                             0x08004ea5   Thumb Code    16  ef_port.o(i.ef_port_read)
    ef_port_write                            0x08004eb9   Thumb Code    38  ef_port.o(i.ef_port_write)
    ef_print                                 0x08004f59   Thumb Code    28  ef_port.o(i.ef_print)
    ef_save_env                              0x08004f7d   Thumb Code     4  ef_env.o(i.ef_save_env)
    ef_set_env                               0x08004f81   Thumb Code    26  ef_env.o(i.ef_set_env)
    ef_set_env_blob                          0x08004f9d   Thumb Code    48  ef_env.o(i.ef_set_env_blob)
    elog_init                                0x08004fed   Thumb Code    40  elog.o(i.elog_init)
    elog_output                              0x08005019   Thumb Code   708  elog.o(i.elog_output)
    elog_output_lock                         0x08005365   Thumb Code    28  elog.o(i.elog_output_lock)
    elog_output_lock_enabled                 0x08005385   Thumb Code    40  elog.o(i.elog_output_lock_enabled)
    elog_output_unlock                       0x080053b1   Thumb Code    28  elog.o(i.elog_output_unlock)
    elog_port_get_p_info                     0x080053d1   Thumb Code     4  elog_port.o(i.elog_port_get_p_info)
    elog_port_get_t_info                     0x080053e1   Thumb Code     4  elog_port.o(i.elog_port_get_t_info)
    elog_port_get_time                       0x080053ed   Thumb Code     4  elog_port.o(i.elog_port_get_time)
    elog_port_init                           0x080053fd   Thumb Code     4  elog_port.o(i.elog_port_init)
    elog_port_output                         0x08005401   Thumb Code     8  elog_port.o(i.elog_port_output)
    elog_port_output_lock                    0x08005411   Thumb Code     4  elog_port.o(i.elog_port_output_lock)
    elog_port_output_unlock                  0x08005415   Thumb Code     4  elog_port.o(i.elog_port_output_unlock)
    elog_raw                                 0x08005419   Thumb Code    62  elog.o(i.elog_raw)
    elog_set_filter_lvl                      0x08005461   Thumb Code    64  elog.o(i.elog_set_filter_lvl)
    elog_set_fmt                             0x080054f9   Thumb Code    70  elog.o(i.elog_set_fmt)
    elog_start                               0x08005599   Thumb Code    34  elog.o(i.elog_start)
    elog_strcpy                              0x08005601   Thumb Code   148  elog_utils.o(i.elog_strcpy)
    flash_clear_bit_clear                    0x08005855   Thumb Code    62  gflashctl.o(i.flash_clear_bit_clear)
    fputc                                    0x08005995   Thumb Code    50  gunit.o(i.fputc)
    free                                     0x080059cd   Thumb Code    76  malloc.o(i.free)
    gassert_failed                           0x08005a1d   Thumb Code    10  easyflash.o(i.gassert_failed)
    ledoff1                                  0x08005ded   Thumb Code    10  gtwled.o(i.ledoff1)
    ledoff2                                  0x08005dfd   Thumb Code    10  gtwled.o(i.ledoff2)
    ledon1                                   0x08005e0d   Thumb Code    12  gtwled.o(i.ledon1)
    ledon2                                   0x08005e1d   Thumb Code    10  gtwled.o(i.ledon2)
    main                                     0x08005e2d   Thumb Code    94  main.o(i.main)
    malloc                                   0x08005ea1   Thumb Code    92  malloc.o(i.malloc)
    memctl_loop                              0x08005f0d   Thumb Code    52  gflashctl.o(i.memctl_loop)
    once_timer_list_loop                     0x08006171   Thumb Code    56  gtimer.o(i.once_timer_list_loop)
    once_timer_register                      0x080061ad   Thumb Code    70  gtimer.o(i.once_timer_register)
    once_timer_start                         0x08006239   Thumb Code    52  gtimer.o(i.once_timer_start)
    once_timer_stop                          0x080062a1   Thumb Code    50  gtimer.o(i.once_timer_stop)
    osDelay                                  0x08006309   Thumb Code    14  cmsis_os.o(i.osDelay)
    osKernelStart                            0x08006317   Thumb Code    10  cmsis_os.o(i.osKernelStart)
    osThreadCreate                           0x08006321   Thumb Code    84  cmsis_os.o(i.osThreadCreate)
    putc                                     0x080066b9   Thumb Code     4  putc.o(i.putc)
    pvPortMalloc                             0x080066bd   Thumb Code   210  heap_4.o(i.pvPortMalloc)
    pxPortInitialiseStack                    0x08006795   Thumb Code    40  port.o(i.pxPortInitialiseStack)
    read_button1_GPIO                        0x080067c1   Thumb Code    10  gmultibutton.o(i.read_button1_GPIO)
    test_button                              0x08006e79   Thumb Code    64  gmultibutton.o(i.test_button)
    test_easyflash                           0x08006f05   Thumb Code    98  easyflash.o(i.test_easyflash)
    test_elog                                0x0800702d   Thumb Code   188  test_elog.o(i.test_elog)
    test_led                                 0x08007111   Thumb Code    22  gtwled.o(i.test_led)
    test_s2j                                 0x0800712d   Thumb Code    56  gs2j_test.o(i.test_s2j)
    twinkler_list_loop                       0x08007191   Thumb Code    88  gtwinkle.o(i.twinkler_list_loop)
    twinkler_regist                          0x080071ed   Thumb Code    94  gtwinkle.o(i.twinkler_regist)
    twinkler_set                             0x08007289   Thumb Code    50  gtwinkle.o(i.twinkler_set)
    uxListRemove                             0x0800742d   Thumb Code    38  list.o(i.uxListRemove)
    vApplicationGetIdleTaskMemory            0x08007455   Thumb Code    16  freertos.o(i.vApplicationGetIdleTaskMemory)
    vListInitialise                          0x08007469   Thumb Code    22  list.o(i.vListInitialise)
    vListInitialiseItem                      0x0800747f   Thumb Code     6  list.o(i.vListInitialiseItem)
    vListInsert                              0x08007485   Thumb Code    48  list.o(i.vListInsert)
    vListInsertEnd                           0x080074b5   Thumb Code    24  list.o(i.vListInsertEnd)
    vPortEnterCritical                       0x080074cd   Thumb Code    54  port.o(i.vPortEnterCritical)
    vPortExitCritical                        0x0800750d   Thumb Code    34  port.o(i.vPortExitCritical)
    vPortFree                                0x08007535   Thumb Code    88  heap_4.o(i.vPortFree)
    vPortSetupTimerInterrupt                 0x08007591   Thumb Code    32  port.o(i.vPortSetupTimerInterrupt)
    vTaskDelay                               0x080075b5   Thumb Code    66  tasks.o(i.vTaskDelay)
    vTaskStartScheduler                      0x08007601   Thumb Code    90  tasks.o(i.vTaskStartScheduler)
    vTaskSuspendAll                          0x0800766d   Thumb Code    10  tasks.o(i.vTaskSuspendAll)
    vTaskSwitchContext                       0x0800767d   Thumb Code    82  tasks.o(i.vTaskSwitchContext)
    xPortStartScheduler                      0x080077b9   Thumb Code   222  port.o(i.xPortStartScheduler)
    xTaskCreate                              0x080078ad   Thumb Code    90  tasks.o(i.xTaskCreate)
    xTaskCreateStatic                        0x08007907   Thumb Code    86  tasks.o(i.xTaskCreateStatic)
    xTaskIncrementTick                       0x0800795d   Thumb Code   192  tasks.o(i.xTaskIncrementTick)
    xTaskResumeAll                           0x08007a25   Thumb Code   182  tasks.o(i.xTaskResumeAll)
    AHBPrescTable                            0x08007b04   Data          16  system_stm32f4xx.o(.constdata)
    APBPrescTable                            0x08007b14   Data           8  system_stm32f4xx.o(.constdata)
    __ctype_table                            0x0800825a   Data         129  ctype_o.o(.constdata)
    Region$$Table$$Base                      0x080085e4   Number         0  anon$$obj.o(Region$$Table)
    Region$$Table$$Limit                     0x08008604   Number         0  anon$$obj.o(Region$$Table)
    defaultTaskHandle                        0x20000000   Data           4  freertos.o(.data)
    uwTickFreq                               0x20000004   Data           1  stm32f4xx_hal.o(.data)
    uwTickPrio                               0x20000008   Data           4  stm32f4xx_hal.o(.data)
    uwTick                                   0x2000000c   Data           4  stm32f4xx_hal.o(.data)
    SystemCoreClock                          0x20000010   Data           4  system_stm32f4xx.o(.data)
    pxCurrentTCB                             0x20000014   Data           4  tasks.o(.data)
    elog_assert_hook                         0x20000074   Data           4  elog.o(.data)
    s2jHook                                  0x200000fc   Data           8  s2j.o(.data)
    twinkler                                 0x20000114   Data           8  gtwinkle.o(.data)
    gflash                                   0x2000011c   Data           1  gflashctl.o(.data)
    easyparm                                 0x20000120   Data          96  gflashctl.o(.data)
    xFlashLockSemaphore                      0x20000180   Data           1  gw24q64.o(.data)
    spiflash                                 0x20000184   Data          32  gw24q64.o(.data)
    led                                      0x200001a8   Data          16  gtwled.o(.data)
    timerid                                  0x200001b9   Data           1  gtimer.o(.data)
    timerid2                                 0x200001ba   Data           1  gtimer.o(.data)
    timer                                    0x200001c8   Data          12  gtimer.o(.data)
    __stdout                                 0x200001d4   Data           4  stdout.o(.data)
    __microlib_freelist                      0x200001d8   Data           4  mvars.o(.data)
    __microlib_freelist_initialised          0x200001dc   Data           4  mvars.o(.data)
    hrng                                     0x20000438   Data          16  rng.o(.bss)
    hspi1                                    0x20000448   Data          88  spi.o(.bss)
    hspi2                                    0x200004a0   Data          88  spi.o(.bss)
    hspi3                                    0x200004f8   Data          88  spi.o(.bss)
    htim6                                    0x20000550   Data          64  tim.o(.bss)
    huart1                                   0x20000590   Data          64  usart.o(.bss)
    huart2                                   0x200005d0   Data          64  usart.o(.bss)
    huart3                                   0x20000610   Data          64  usart.o(.bss)
    huart6                                   0x20000650   Data          64  usart.o(.bss)
    htim7                                    0x20000690   Data          64  stm32f4xx_hal_timebase_tim.o(.bss)
    env_cache_table                          0x20004814   Data         128  ef_env.o(.bss)
    sector_cache_table                       0x20004894   Data          32  ef_env.o(.bss)
    GKU1                                     0x20004a30   Data          16  gkbaseusart.o(.bss)
    GKU2                                     0x20004a40   Data          16  gkbaseusart.o(.bss)
    GKU3                                     0x20004a50   Data          16  gkbaseusart.o(.bss)
    GKUF                                     0x20004a60   Data          24  gkbaseusart.o(.bss)
    data                                     0x20004a78   Data          10  gw24q64.o(.bss)
    hspiflash                                0x20004a84   Data          88  gw24q64.o(.bss)
    twled                                    0x20004adc   Data          80  gtwled.o(.bss)
    __heap_base                              0x20004b30   Data           0  startup_stm32f405xx.o(HEAP)
    __heap_limit                             0x20005b30   Data           0  startup_stm32f405xx.o(HEAP)
    __initial_sp                             0x20007b30   Data           0  startup_stm32f405xx.o(STACK)



==============================================================================

Memory Map of the image

  Image Entry point : 0x08000189

  Load Region LR_IROM1 (Base: 0x08000000, Size: 0x000087e8, Max: 0x00100000, ABSOLUTE, COMPRESSED[0x000086d8])

    Execution Region ER_IROM1 (Base: 0x08000000, Size: 0x00008604, Max: 0x00100000, ABSOLUTE)

    Base Addr    Size         Type   Attr      Idx    E Section Name        Object

    0x08000000   0x00000188   Data   RO            3    RESET               startup_stm32f405xx.o
    0x08000188   0x00000000   Code   RO         7534  * .ARM.Collect$$$$00000000  mc_w.l(entry.o)
    0x08000188   0x00000004   Code   RO         7914    .ARM.Collect$$$$00000001  mc_w.l(entry2.o)
    0x0800018c   0x00000004   Code   RO         7917    .ARM.Collect$$$$00000004  mc_w.l(entry5.o)
    0x08000190   0x00000000   Code   RO         7919    .ARM.Collect$$$$00000008  mc_w.l(entry7b.o)
    0x08000190   0x00000000   Code   RO         7921    .ARM.Collect$$$$0000000A  mc_w.l(entry8b.o)
    0x08000190   0x00000008   Code   RO         7922    .ARM.Collect$$$$0000000B  mc_w.l(entry9a.o)
    0x08000198   0x00000000   Code   RO         7924    .ARM.Collect$$$$0000000D  mc_w.l(entry10a.o)
    0x08000198   0x00000000   Code   RO         7926    .ARM.Collect$$$$0000000F  mc_w.l(entry11a.o)
    0x08000198   0x00000004   Code   RO         7915    .ARM.Collect$$$$00002712  mc_w.l(entry2.o)
    0x0800019c   0x000000be   Code   RO         4838    .emb_text           port.o
    0x0800025a   0x00000002   PAD
    0x0800025c   0x00000024   Code   RO            4    .text               startup_stm32f405xx.o
    0x08000280   0x00000062   Code   RO         7540    .text               mc_w.l(uldiv.o)
    0x080002e2   0x0000000c   Code   RO         7544    .text               mc_w.l(tolower.o)
    0x080002ee   0x00000024   Code   RO         7546    .text               mc_w.l(memcpya.o)
    0x08000312   0x00000024   Code   RO         7550    .text               mc_w.l(memseta.o)
    0x08000336   0x00000024   Code   RO         7552    .text               mc_w.l(strstr.o)
    0x0800035a   0x00000018   Code   RO         7554    .text               mc_w.l(strncpy.o)
    0x08000372   0x0000000e   Code   RO         7558    .text               mc_w.l(strlen.o)
    0x08000380   0x0000001a   Code   RO         7562    .text               mc_w.l(memcmp.o)
    0x0800039a   0x00000012   Code   RO         7564    .text               mc_w.l(strcpy.o)
    0x080003ac   0x0000001e   Code   RO         7566    .text               mc_w.l(strncmp.o)
    0x080003ca   0x0000001a   Code   RO         7865    .text               mc_w.l(atol.o)
    0x080003e4   0x0000014e   Code   RO         7867    .text               mf_w.l(dadd.o)
    0x08000532   0x000000e4   Code   RO         7869    .text               mf_w.l(dmul.o)
    0x08000616   0x0000001a   Code   RO         7873    .text               mf_w.l(dfltui.o)
    0x08000630   0x0000003e   Code   RO         7875    .text               mf_w.l(dfixi.o)
    0x0800066e   0x00000002   PAD
    0x08000670   0x00000030   Code   RO         7881    .text               mf_w.l(cdrcmple.o)
    0x080006a0   0x0000002c   Code   RO         7928    .text               mc_w.l(uidiv.o)
    0x080006cc   0x0000001e   Code   RO         7930    .text               mc_w.l(llshl.o)
    0x080006ea   0x00000020   Code   RO         7932    .text               mc_w.l(llushr.o)
    0x0800070a   0x00000024   Code   RO         7934    .text               mc_w.l(llsshr.o)
    0x0800072e   0x0000001c   Code   RO         7945    .text               mc_w.l(_chval.o)
    0x0800074a   0x00000070   Code   RO         7953    .text               mc_w.l(strtol.o)
    0x080007ba   0x00000000   Code   RO         7955    .text               mc_w.l(iusefp.o)
    0x080007ba   0x000000ba   Code   RO         7958    .text               mf_w.l(depilogue.o)
    0x08000874   0x000000de   Code   RO         7960    .text               mf_w.l(ddiv.o)
    0x08000952   0x00000030   Code   RO         7966    .text               mf_w.l(dfixul.o)
    0x08000982   0x00000002   PAD
    0x08000984   0x00000024   Code   RO         7968    .text               mc_w.l(init.o)
    0x080009a8   0x00000008   Code   RO         7972    .text               mc_w.l(ctype_o.o)
    0x080009b0   0x0000009e   Code   RO         8006    .text               mc_w.l(_strtoul.o)
    0x08000a4e   0x00000056   Code   RO         8023    .text               mc_w.l(__dczerorl2.o)
    0x08000aa4   0x00000030   Code   RO         6415    i.BTN1_DOUBLE_Click_Handler  gmultibutton.o
    0x08000ad4   0x00000030   Code   RO         6416    i.BTN1_LONG_PRESS_HOLD_Handler  gmultibutton.o
    0x08000b04   0x00000038   Code   RO         6417    i.BTN1_LONG_RRESS_START_Handler  gmultibutton.o
    0x08000b3c   0x00000038   Code   RO         6418    i.BTN1_PRESS_DOWN_Handler  gmultibutton.o
    0x08000b74   0x00000038   Code   RO         6419    i.BTN1_PRESS_REPEAT_Handler  gmultibutton.o
    0x08000bac   0x00000040   Code   RO         6420    i.BTN1_PRESS_UP_Handler  gmultibutton.o
    0x08000bec   0x00000030   Code   RO         6421    i.BTN1_SINGLE_Click_Handler  gmultibutton.o
    0x08000c1c   0x00000002   Code   RO          589    i.BusFault_Handler  stm32f4xx_it.o
    0x08000c1e   0x00000002   Code   RO          590    i.DebugMon_Handler  stm32f4xx_it.o
    0x08000c20   0x00000002   Code   RO           13    i.Error_Handler     main.o
    0x08000c22   0x00000080   Code   RO         6305    i.GMX_NVIC_SetIRQ   gunit.o
    0x08000ca2   0x00000002   PAD
    0x08000ca4   0x000000bc   Code   RO         6308    i.G_lovexin         gunit.o
    0x08000d60   0x0000004c   Code   RO         6309    i.G_mcuReset        gunit.o
    0x08000dac   0x00000024   Code   RO         2947    i.HAL_DMA_Abort_IT  stm32f4xx_hal_dma.o
    0x08000dd0   0x00000024   Code   RO         3365    i.HAL_Delay         stm32f4xx_hal.o
    0x08000df4   0x000001b0   Code   RO         2839    i.HAL_GPIO_Init     stm32f4xx_hal_gpio.o
    0x08000fa4   0x0000000a   Code   RO         2841    i.HAL_GPIO_ReadPin  stm32f4xx_hal_gpio.o
    0x08000fae   0x0000000a   Code   RO         2843    i.HAL_GPIO_WritePin  stm32f4xx_hal_gpio.o
    0x08000fb8   0x0000000c   Code   RO         3371    i.HAL_GetTick       stm32f4xx_hal.o
    0x08000fc4   0x00000010   Code   RO         3377    i.HAL_IncTick       stm32f4xx_hal.o
    0x08000fd4   0x00000034   Code   RO         3378    i.HAL_Init          stm32f4xx_hal.o
    0x08001008   0x00000074   Code   RO          737    i.HAL_InitTick      stm32f4xx_hal_timebase_tim.o
    0x0800107c   0x0000004c   Code   RO          713    i.HAL_MspInit       stm32f4xx_hal_msp.o
    0x080010c8   0x00000022   Code   RO         3227    i.HAL_NVIC_DisableIRQ  stm32f4xx_hal_cortex.o
    0x080010ea   0x0000001a   Code   RO         3228    i.HAL_NVIC_EnableIRQ  stm32f4xx_hal_cortex.o
    0x08001104   0x00000040   Code   RO         3234    i.HAL_NVIC_SetPriority  stm32f4xx_hal_cortex.o
    0x08001144   0x00000024   Code   RO         3235    i.HAL_NVIC_SetPriorityGrouping  stm32f4xx_hal_cortex.o
    0x08001168   0x00000024   Code   RO         3236    i.HAL_NVIC_SystemReset  stm32f4xx_hal_cortex.o
    0x0800118c   0x00000130   Code   RO         2485    i.HAL_RCC_ClockConfig  stm32f4xx_hal_rcc.o
    0x080012bc   0x00000040   Code   RO         2489    i.HAL_RCC_GetClockConfig  stm32f4xx_hal_rcc.o
    0x080012fc   0x00000020   Code   RO         2492    i.HAL_RCC_GetPCLK1Freq  stm32f4xx_hal_rcc.o
    0x0800131c   0x00000020   Code   RO         2493    i.HAL_RCC_GetPCLK2Freq  stm32f4xx_hal_rcc.o
    0x0800133c   0x00000060   Code   RO         2494    i.HAL_RCC_GetSysClockFreq  stm32f4xx_hal_rcc.o
    0x0800139c   0x0000031c   Code   RO         2497    i.HAL_RCC_OscConfig  stm32f4xx_hal_rcc.o
    0x080016b8   0x00000002   Code   RO          807    i.HAL_RNG_ErrorCallback  stm32f4xx_hal_rng.o
    0x080016ba   0x0000005e   Code   RO          814    i.HAL_RNG_IRQHandler  stm32f4xx_hal_rng.o
    0x08001718   0x00000032   Code   RO          815    i.HAL_RNG_Init      stm32f4xx_hal_rng.o
    0x0800174a   0x00000002   PAD
    0x0800174c   0x0000003c   Code   RO          392    i.HAL_RNG_MspInit   rng.o
    0x08001788   0x00000002   Code   RO          819    i.HAL_RNG_ReadyDataCallback  stm32f4xx_hal_rng.o
    0x0800178a   0x00000002   Code   RO          915    i.HAL_SPI_ErrorCallback  stm32f4xx_hal_spi.o
    0x0800178c   0x000000fc   Code   RO          918    i.HAL_SPI_IRQHandler  stm32f4xx_hal_spi.o
    0x08001888   0x00000080   Code   RO          919    i.HAL_SPI_Init      stm32f4xx_hal_spi.o
    0x08001908   0x0000014c   Code   RO          434    i.HAL_SPI_MspInit   spi.o
    0x08001a54   0x000001e2   Code   RO          928    i.HAL_SPI_TransmitReceive  stm32f4xx_hal_spi.o
    0x08001c36   0x00000002   Code   RO         1907    i.HAL_TIMEx_BreakCallback  stm32f4xx_hal_tim_ex.o
    0x08001c38   0x00000002   Code   RO         1908    i.HAL_TIMEx_CommutCallback  stm32f4xx_hal_tim_ex.o
    0x08001c3a   0x00000042   Code   RO         1925    i.HAL_TIMEx_MasterConfigSynchronization  stm32f4xx_hal_tim_ex.o
    0x08001c7c   0x00000036   Code   RO         1232    i.HAL_TIM_Base_Init  stm32f4xx_hal_tim.o
    0x08001cb2   0x00000002   PAD
    0x08001cb4   0x0000003c   Code   RO          488    i.HAL_TIM_Base_MspInit  tim.o
    0x08001cf0   0x00000022   Code   RO         1237    i.HAL_TIM_Base_Start_IT  stm32f4xx_hal_tim.o
    0x08001d12   0x00000002   Code   RO         1261    i.HAL_TIM_IC_CaptureCallback  stm32f4xx_hal_tim.o
    0x08001d14   0x00000166   Code   RO         1275    i.HAL_TIM_IRQHandler  stm32f4xx_hal_tim.o
    0x08001e7a   0x00000002   Code   RO         1278    i.HAL_TIM_OC_DelayElapsedCallback  stm32f4xx_hal_tim.o
    0x08001e7c   0x00000002   Code   RO         1305    i.HAL_TIM_PWM_PulseFinishedCallback  stm32f4xx_hal_tim.o
    0x08001e7e   0x00000002   PAD
    0x08001e80   0x00000038   Code   RO           14    i.HAL_TIM_PeriodElapsedCallback  main.o
    0x08001eb8   0x00000002   Code   RO         1318    i.HAL_TIM_TriggerCallback  stm32f4xx_hal_tim.o
    0x08001eba   0x00000002   Code   RO         2179    i.HAL_UART_ErrorCallback  stm32f4xx_hal_uart.o
    0x08001ebc   0x00000110   Code   RO         2182    i.HAL_UART_IRQHandler  stm32f4xx_hal_uart.o
    0x08001fcc   0x00000062   Code   RO         2183    i.HAL_UART_Init     stm32f4xx_hal_uart.o
    0x0800202e   0x00000002   PAD
    0x08002030   0x00000154   Code   RO          530    i.HAL_UART_MspInit  usart.o
    0x08002184   0x00000052   Code   RO         2188    i.HAL_UART_Receive_IT  stm32f4xx_hal_uart.o
    0x080021d6   0x00000002   PAD
    0x080021d8   0x000000a0   Code   RO         6585    i.HAL_UART_RxCpltCallback  gkbaseusart.o
    0x08002278   0x000000ba   Code   RO         2191    i.HAL_UART_Transmit  stm32f4xx_hal_uart.o
    0x08002332   0x00000002   Code   RO         2194    i.HAL_UART_TxCpltCallback  stm32f4xx_hal_uart.o
    0x08002334   0x0000000c   Code   RO          591    i.HASH_RNG_IRQHandler  stm32f4xx_it.o
    0x08002340   0x00000002   Code   RO          592    i.HardFault_Handler  stm32f4xx_it.o
    0x08002342   0x00000002   PAD
    0x08002344   0x00000028   Code   RO          311    i.MX_FREERTOS_Init  freertos.o
    0x0800236c   0x00000164   Code   RO          287    i.MX_GPIO_Init      gpio.o
    0x080024d0   0x00000024   Code   RO          393    i.MX_RNG_Init       rng.o
    0x080024f4   0x00000048   Code   RO          435    i.MX_SPI1_Init      spi.o
    0x0800253c   0x00000044   Code   RO          436    i.MX_SPI2_Init      spi.o
    0x08002580   0x00000044   Code   RO          437    i.MX_SPI3_Init      spi.o
    0x080025c4   0x00000044   Code   RO          489    i.MX_TIM6_Init      tim.o
    0x08002608   0x00000038   Code   RO          531    i.MX_USART1_UART_Init  usart.o
    0x08002640   0x00000038   Code   RO          532    i.MX_USART2_UART_Init  usart.o
    0x08002678   0x00000038   Code   RO          533    i.MX_USART3_UART_Init  usart.o
    0x080026b0   0x00000038   Code   RO          534    i.MX_USART6_UART_Init  usart.o
    0x080026e8   0x00000002   Code   RO          593    i.MemManage_Handler  stm32f4xx_it.o
    0x080026ea   0x00000002   Code   RO          594    i.NMI_Handler       stm32f4xx_it.o
    0x080026ec   0x00000002   Code   RO          595    i.RCC_IRQHandler    stm32f4xx_it.o
    0x080026ee   0x00000002   PAD
    0x080026f0   0x0000000c   Code   RO          596    i.SPI1_IRQHandler   stm32f4xx_it.o
    0x080026fc   0x0000000c   Code   RO          597    i.SPI2_IRQHandler   stm32f4xx_it.o
    0x08002708   0x0000000c   Code   RO          598    i.SPI3_IRQHandler   stm32f4xx_it.o
    0x08002714   0x00000010   Code   RO          946    i.SPI_DMAAbortOnError  stm32f4xx_hal_spi.o
    0x08002724   0x00000058   Code   RO          957    i.SPI_EndRxTxTransaction  stm32f4xx_hal_spi.o
    0x0800277c   0x00000058   Code   RO         6751    i.SPI_FLASH_BufferRead  gw24q64.o
    0x080027d4   0x000000bc   Code   RO         6752    i.SPI_FLASH_BufferWrite  gw24q64.o
    0x08002890   0x00000030   Code   RO         6753    i.SPI_FLASH_BulkErase  gw24q64.o
    0x080028c0   0x00000064   Code   RO         6754    i.SPI_FLASH_PageWrite  gw24q64.o
    0x08002924   0x00000040   Code   RO         6756    i.SPI_FLASH_ReadDeviceID  gw24q64.o
    0x08002964   0x00000048   Code   RO         6757    i.SPI_FLASH_ReadID  gw24q64.o
    0x080029ac   0x0000004c   Code   RO         6758    i.SPI_FLASH_SectorErase  gw24q64.o
    0x080029f8   0x00000028   Code   RO         6759    i.SPI_FLASH_SectorErase_BYNUMBER  gw24q64.o
    0x08002a20   0x0000002c   Code   RO         6760    i.SPI_FLASH_SendByte  gw24q64.o
    0x08002a4c   0x00000030   Code   RO         6762    i.SPI_FLASH_WaitForWriteEnd  gw24q64.o
    0x08002a7c   0x00000028   Code   RO         6763    i.SPI_FLASH_WriteEnable  gw24q64.o
    0x08002aa4   0x00000094   Code   RO          962    i.SPI_WaitFlagStateUntilTimeout  stm32f4xx_hal_spi.o
    0x08002b38   0x00000008   Code   RO          312    i.StartDefaultTask  freertos.o
    0x08002b40   0x0000002c   Code   RO         4839    i.SysTick_Handler   port.o
    0x08002b6c   0x0000008c   Code   RO           15    i.SystemClock_Config  main.o
    0x08002bf8   0x00000054   Code   RO         3614    i.SystemInit        system_stm32f4xx.o
    0x08002c4c   0x0000000c   Code   RO          599    i.TIM6_DAC_IRQHandler  stm32f4xx_it.o
    0x08002c58   0x0000000c   Code   RO          600    i.TIM7_IRQHandler   stm32f4xx_it.o
    0x08002c64   0x000000c8   Code   RO         1320    i.TIM_Base_SetConfig  stm32f4xx_hal_tim.o
    0x08002d2c   0x00000034   Code   RO         6942    i.TWLED0_init       gtwled.o
    0x08002d60   0x00000014   Code   RO         6943    i.TWLED0_write      gtwled.o
    0x08002d74   0x00000034   Code   RO         6944    i.TWLED1_init       gtwled.o
    0x08002da8   0x00000014   Code   RO         6945    i.TWLED1_write      gtwled.o
    0x08002dbc   0x00000010   Code   RO         2196    i.UART_DMAAbortOnError  stm32f4xx_hal_uart.o
    0x08002dcc   0x0000001c   Code   RO         2206    i.UART_EndRxTransfer  stm32f4xx_hal_uart.o
    0x08002de8   0x00000096   Code   RO         2208    i.UART_Receive_IT   stm32f4xx_hal_uart.o
    0x08002e7e   0x00000002   PAD
    0x08002e80   0x000002ac   Code   RO         2209    i.UART_SetConfig    stm32f4xx_hal_uart.o
    0x0800312c   0x00000062   Code   RO         2210    i.UART_Transmit_IT  stm32f4xx_hal_uart.o
    0x0800318e   0x00000064   Code   RO         2211    i.UART_WaitOnFlagUntilTimeout  stm32f4xx_hal_uart.o
    0x080031f2   0x00000002   PAD
    0x080031f4   0x0000000c   Code   RO          601    i.USART1_IRQHandler  stm32f4xx_it.o
    0x08003200   0x0000000c   Code   RO          602    i.USART2_IRQHandler  stm32f4xx_it.o
    0x0800320c   0x0000000c   Code   RO          603    i.USART3_IRQHandler  stm32f4xx_it.o
    0x08003218   0x0000000c   Code   RO          604    i.USART6_IRQHandler  stm32f4xx_it.o
    0x08003224   0x00000002   Code   RO          605    i.UsageFault_Handler  stm32f4xx_it.o
    0x08003226   0x00000002   PAD
    0x08003228   0x000000b4   Code   RO         6766    i.W24Q64_Init       gw24q64.o
    0x080032dc   0x00000020   Code   RO         7803    i.__0printf         mc_w.l(printfa.o)
    0x080032fc   0x00000030   Code   RO         7804    i.__0snprintf       mc_w.l(printfa.o)
    0x0800332c   0x00000028   Code   RO         7805    i.__0sprintf        mc_w.l(printfa.o)
    0x08003354   0x0000002c   Code   RO         7808    i.__0vsnprintf      mc_w.l(printfa.o)
    0x08003380   0x00000024   Code   RO         7809    i.__0vsprintf       mc_w.l(printfa.o)
    0x080033a4   0x00000020   Code   RO         3241    i.__NVIC_SetPriority  stm32f4xx_hal_cortex.o
    0x080033c4   0x00000008   Code   RO         7938    i.__aeabi_errno_addr  mc_w.l(errno.o)
    0x080033cc   0x0000000e   Code   RO         8017    i.__scatterload_copy  mc_w.l(handlers.o)
    0x080033da   0x00000002   Code   RO         8018    i.__scatterload_null  mc_w.l(handlers.o)
    0x080033dc   0x0000000e   Code   RO         8019    i.__scatterload_zeroinit  mc_w.l(handlers.o)
    0x080033ea   0x00000002   PAD
    0x080033ec   0x00000184   Code   RO         7810    i._fp_digits        mc_w.l(printfa.o)
    0x08003570   0x000006dc   Code   RO         7811    i._printf_core      mc_w.l(printfa.o)
    0x08003c4c   0x00000024   Code   RO         7812    i._printf_post_padding  mc_w.l(printfa.o)
    0x08003c70   0x0000002e   Code   RO         7813    i._printf_pre_padding  mc_w.l(printfa.o)
    0x08003c9e   0x00000016   Code   RO         7814    i._snputc           mc_w.l(printfa.o)
    0x08003cb4   0x0000000a   Code   RO         7815    i._sputc            mc_w.l(printfa.o)
    0x08003cbe   0x00000046   Code   RO         5260    i.align_write       ef_env.o
    0x08003d04   0x000000ec   Code   RO         5261    i.alloc_env         ef_env.o
    0x08003df0   0x0000002c   Code   RO         5262    i.alloc_env_cb      ef_env.o
    0x08003e1c   0x000000a0   Code   RO         6658    i.baseflashclear    gflashctl.o
    0x08003ebc   0x000001b0   Code   RO         6423    i.button_handler    gmultibutton.o
    0x0800406c   0x0000002c   Code   RO         6424    i.button_init       gmultibutton.o
    0x08004098   0x00000024   Code   RO         6425    i.button_start      gmultibutton.o
    0x080040bc   0x00000030   Code   RO         6427    i.button_ticks      gmultibutton.o
    0x080040ec   0x0000001c   Code   RO         5934    i.cJSON_AddItemToArray  cjson.o
    0x08004108   0x00000030   Code   RO         5935    i.cJSON_AddItemToObject  cjson.o
    0x08004138   0x00000010   Code   RO         5937    i.cJSON_CreateArray  cjson.o
    0x08004148   0x00000030   Code   RO         5944    i.cJSON_CreateNumber  cjson.o
    0x08004178   0x00000010   Code   RO         5945    i.cJSON_CreateObject  cjson.o
    0x08004188   0x0000001c   Code   RO         5946    i.cJSON_CreateString  cjson.o
    0x080041a4   0x00000048   Code   RO         5949    i.cJSON_Delete      cjson.o
    0x080041ec   0x00000012   Code   RO         5955    i.cJSON_GetArrayItem  cjson.o
    0x080041fe   0x00000010   Code   RO         5956    i.cJSON_GetArraySize  cjson.o
    0x0800420e   0x0000001c   Code   RO         5958    i.cJSON_GetObjectItem  cjson.o
    0x0800422a   0x00000002   PAD
    0x0800422c   0x0000001c   Code   RO         5963    i.cJSON_New_Item    cjson.o
    0x08004248   0x00000042   Code   RO         5971    i.cJSON_strcasecmp  cjson.o
    0x0800428a   0x00000002   PAD
    0x0800428c   0x00000028   Code   RO         5972    i.cJSON_strdup      cjson.o
    0x080042b4   0x000000c0   Code   RO         5263    i.check_and_recovery_env_cb  ef_env.o
    0x08004374   0x00000020   Code   RO         5264    i.check_and_recovery_gc_cb  ef_env.o
    0x08004394   0x0000002c   Code   RO         5265    i.check_sec_hdr_cb  ef_env.o
    0x080043c0   0x00000268   Code   RO         5266    i.create_env_blob   ef_env.o
    0x08004628   0x000000ec   Code   RO         5267    i.del_env           ef_env.o
    0x08004714   0x00000110   Code   RO         5268    i.do_gc             ef_env.o
    0x08004824   0x000000d4   Code   RO         5225    i.easyflash_init    easyflash.o
    0x080048f8   0x00000024   Code   RO         5556    i.ef_calc_crc32     ef_utils.o
    0x0800491c   0x00000114   Code   RO         5271    i.ef_env_init       ef_env.o
    0x08004a30   0x00000130   Code   RO         5272    i.ef_env_set_default  ef_env.o
    0x08004b60   0x00000070   Code   RO         5273    i.ef_get_env        ef_env.o
    0x08004bd0   0x00000074   Code   RO         5274    i.ef_get_env_blob   ef_env.o
    0x08004c44   0x0000001a   Code   RO         5275    i.ef_is_str         ef_env.o
    0x08004c5e   0x00000002   PAD
    0x08004c60   0x000000bc   Code   RO         5276    i.ef_load_env       ef_env.o
    0x08004d1c   0x00000050   Code   RO         5575    i.ef_log_debug      ef_port.o
    0x08004d6c   0x00000040   Code   RO         5576    i.ef_log_info       ef_port.o
    0x08004dac   0x00000004   Code   RO         5577    i.ef_port_env_lock  ef_port.o
    0x08004db0   0x00000004   Code   RO         5578    i.ef_port_env_unlock  ef_port.o
    0x08004db4   0x000000b8   Code   RO         5579    i.ef_port_erase     ef_port.o
    0x08004e6c   0x00000038   Code   RO         5580    i.ef_port_init      ef_port.o
    0x08004ea4   0x00000014   Code   RO         5581    i.ef_port_read      ef_port.o
    0x08004eb8   0x000000a0   Code   RO         5582    i.ef_port_write     ef_port.o
    0x08004f58   0x00000024   Code   RO         5583    i.ef_print          ef_port.o
    0x08004f7c   0x00000004   Code   RO         5278    i.ef_save_env       ef_env.o
    0x08004f80   0x0000001a   Code   RO         5280    i.ef_set_env        ef_env.o
    0x08004f9a   0x00000002   PAD
    0x08004f9c   0x00000050   Code   RO         5281    i.ef_set_env_blob   ef_env.o
    0x08004fec   0x0000002c   Code   RO         4921    i.elog_init         elog.o
    0x08005018   0x0000034c   Code   RO         4922    i.elog_output       elog.o
    0x08005364   0x00000020   Code   RO         4923    i.elog_output_lock  elog.o
    0x08005384   0x0000002c   Code   RO         4924    i.elog_output_lock_enabled  elog.o
    0x080053b0   0x00000020   Code   RO         4925    i.elog_output_unlock  elog.o
    0x080053d0   0x00000010   Code   RO         5121    i.elog_port_get_p_info  elog_port.o
    0x080053e0   0x0000000c   Code   RO         5122    i.elog_port_get_t_info  elog_port.o
    0x080053ec   0x00000010   Code   RO         5123    i.elog_port_get_time  elog_port.o
    0x080053fc   0x00000004   Code   RO         5124    i.elog_port_init    elog_port.o
    0x08005400   0x00000010   Code   RO         5125    i.elog_port_output  elog_port.o
    0x08005410   0x00000004   Code   RO         5126    i.elog_port_output_lock  elog_port.o
    0x08005414   0x00000004   Code   RO         5127    i.elog_port_output_unlock  elog_port.o
    0x08005418   0x00000048   Code   RO         4926    i.elog_raw          elog.o
    0x08005460   0x00000098   Code   RO         4929    i.elog_set_filter_lvl  elog.o
    0x080054f8   0x000000a0   Code   RO         4931    i.elog_set_fmt      elog.o
    0x08005598   0x00000068   Code   RO         4934    i.elog_start        elog.o
    0x08005600   0x000000d4   Code   RO         5072    i.elog_strcpy       elog_utils.o
    0x080056d4   0x00000062   Code   RO         5282    i.env_iterator      ef_env.o
    0x08005736   0x00000042   Code   RO         5283    i.find_env          ef_env.o
    0x08005778   0x00000038   Code   RO         5284    i.find_env_cb       ef_env.o
    0x080057b0   0x00000020   Code   RO         5285    i.find_env_no_cache  ef_env.o
    0x080057d0   0x00000084   Code   RO         5286    i.find_next_env_addr  ef_env.o
    0x08005854   0x00000050   Code   RO         6659    i.flash_clear_bit_clear  gflashctl.o
    0x080058a4   0x000000f0   Code   RO         5287    i.format_sector     ef_env.o
    0x08005994   0x00000038   Code   RO         6315    i.fputc             gunit.o
    0x080059cc   0x00000050   Code   RO         7831    i.free              mc_w.l(malloc.o)
    0x08005a1c   0x00000044   Code   RO         5226    i.gassert_failed    easyflash.o
    0x08005a60   0x0000000e   Code   RO         5288    i.gc_check_cb       ef_env.o
    0x08005a6e   0x00000002   PAD
    0x08005a70   0x000000c8   Code   RO         5289    i.gc_collect        ef_env.o
    0x08005b38   0x00000078   Code   RO         5290    i.get_env_from_cache  ef_env.o
    0x08005bb0   0x000000a4   Code   RO         4935    i.get_fmt_enabled   elog.o
    0x08005c54   0x0000004e   Code   RO         5291    i.get_next_env_addr  ef_env.o
    0x08005ca2   0x00000002   PAD
    0x08005ca4   0x00000034   Code   RO         5292    i.get_next_sector_addr  ef_env.o
    0x08005cd8   0x0000002c   Code   RO         5293    i.get_sector_from_cache  ef_env.o
    0x08005d04   0x0000001e   Code   RO         5294    i.get_status        ef_env.o
    0x08005d22   0x00000002   PAD
    0x08005d24   0x000000c8   Code   RO         5905    i.json_to_struct    gs2j_test.o
    0x08005dec   0x00000010   Code   RO         6946    i.ledoff1           gtwled.o
    0x08005dfc   0x00000010   Code   RO         6947    i.ledoff2           gtwled.o
    0x08005e0c   0x00000010   Code   RO         6948    i.ledon1            gtwled.o
    0x08005e1c   0x00000010   Code   RO         6949    i.ledon2            gtwled.o
    0x08005e2c   0x00000068   Code   RO           16    i.main              main.o
    0x08005e94   0x0000000c   Code   RO         4410    i.makeFreeRtosPriority  cmsis_os.o
    0x08005ea0   0x0000006c   Code   RO         7832    i.malloc            mc_w.l(malloc.o)
    0x08005f0c   0x00000060   Code   RO         6661    i.memctl_loop       gflashctl.o
    0x08005f6c   0x00000180   Code   RO         5295    i.move_env          ef_env.o
    0x080060ec   0x00000084   Code   RO         5296    i.new_env           ef_env.o
    0x08006170   0x0000003c   Code   RO         7278    i.once_timer_list_loop  gtimer.o
    0x080061ac   0x0000008c   Code   RO         7279    i.once_timer_register  gtimer.o
    0x08006238   0x00000068   Code   RO         7280    i.once_timer_start  gtimer.o
    0x080062a0   0x00000068   Code   RO         7281    i.once_timer_stop   gtimer.o
    0x08006308   0x0000000e   Code   RO         4412    i.osDelay           cmsis_os.o
    0x08006316   0x0000000a   Code   RO         4415    i.osKernelStart     cmsis_os.o
    0x08006320   0x00000054   Code   RO         4449    i.osThreadCreate    cmsis_os.o
    0x08006374   0x00000070   Code   RO         4107    i.prvAddCurrentTaskToDelayedList  tasks.o
    0x080063e4   0x000000d0   Code   RO         4108    i.prvAddNewTaskToReadyList  tasks.o
    0x080064b4   0x00000034   Code   RO         4109    i.prvDeleteTCB      tasks.o
    0x080064e8   0x0000004c   Code   RO         4777    i.prvHeapInit       heap_4.o
    0x08006534   0x00000060   Code   RO         4110    i.prvIdleTask       tasks.o
    0x08006594   0x0000008e   Code   RO         4111    i.prvInitialiseNewTask  tasks.o
    0x08006622   0x00000002   PAD
    0x08006624   0x0000004c   Code   RO         4778    i.prvInsertBlockIntoFreeList  heap_4.o
    0x08006670   0x00000020   Code   RO         4112    i.prvResetNextTaskUnblockTime  tasks.o
    0x08006690   0x00000028   Code   RO         4840    i.prvTaskExitError  port.o
    0x080066b8   0x00000004   Code   RO         7537    i.putc              mc_w.l(putc.o)
    0x080066bc   0x000000d8   Code   RO         4779    i.pvPortMalloc      heap_4.o
    0x08006794   0x0000002c   Code   RO         4841    i.pxPortInitialiseStack  port.o
    0x080067c0   0x00000010   Code   RO         6429    i.read_button1_GPIO  gmultibutton.o
    0x080067d0   0x0000019c   Code   RO         5298    i.read_env          ef_env.o
    0x0800696c   0x00000234   Code   RO         5299    i.read_sector_meta_data  ef_env.o
    0x08006ba0   0x000000a8   Code   RO         5300    i.read_status       ef_env.o
    0x08006c48   0x00000056   Code   RO         5301    i.sector_iterator   ef_env.o
    0x08006c9e   0x00000022   Code   RO         5302    i.sector_statistics_cb  ef_env.o
    0x08006cc0   0x00000094   Code   RO         5303    i.set_env           ef_env.o
    0x08006d54   0x0000002a   Code   RO         5304    i.set_status        ef_env.o
    0x08006d7e   0x00000002   PAD
    0x08006d80   0x00000020   Code   RO         6767    i.spi_flash_get_lock  gw24q64.o
    0x08006da0   0x0000000c   Code   RO         6768    i.spi_flash_release_lock  gw24q64.o
    0x08006dac   0x000000cc   Code   RO         5906    i.struct_to_json    gs2j_test.o
    0x08006e78   0x0000008c   Code   RO         6430    i.test_button       gmultibutton.o
    0x08006f04   0x00000128   Code   RO         5227    i.test_easyflash    easyflash.o
    0x0800702c   0x000000e4   Code   RO         5096    i.test_elog         test_elog.o
    0x08007110   0x0000001c   Code   RO         6950    i.test_led          gtwled.o
    0x0800712c   0x00000064   Code   RO         5907    i.test_s2j          gs2j_test.o
    0x08007190   0x0000005c   Code   RO         6532    i.twinkler_list_loop  gtwinkle.o
    0x080071ec   0x0000009c   Code   RO         6533    i.twinkler_regist   gtwinkle.o
    0x08007288   0x00000038   Code   RO         6534    i.twinkler_set      gtwinkle.o
    0x080072c0   0x000000b0   Code   RO         5305    i.update_env_cache  ef_env.o
    0x08007370   0x0000005a   Code   RO         5306    i.update_sec_status  ef_env.o
    0x080073ca   0x00000002   PAD
    0x080073cc   0x00000060   Code   RO         5307    i.update_sector_cache  ef_env.o
    0x0800742c   0x00000026   Code   RO         3752    i.uxListRemove      list.o
    0x08007452   0x00000002   PAD
    0x08007454   0x00000014   Code   RO          313    i.vApplicationGetIdleTaskMemory  freertos.o
    0x08007468   0x00000016   Code   RO         3753    i.vListInitialise   list.o
    0x0800747e   0x00000006   Code   RO         3754    i.vListInitialiseItem  list.o
    0x08007484   0x00000030   Code   RO         3755    i.vListInsert       list.o
    0x080074b4   0x00000018   Code   RO         3756    i.vListInsertEnd    list.o
    0x080074cc   0x00000040   Code   RO         4843    i.vPortEnterCritical  port.o
    0x0800750c   0x00000028   Code   RO         4844    i.vPortExitCritical  port.o
    0x08007534   0x0000005c   Code   RO         4780    i.vPortFree         heap_4.o
    0x08007590   0x00000024   Code   RO         4845    i.vPortSetupTimerInterrupt  port.o
    0x080075b4   0x0000004c   Code   RO         4120    i.vTaskDelay        tasks.o
    0x08007600   0x0000006c   Code   RO         4133    i.vTaskStartScheduler  tasks.o
    0x0800766c   0x00000010   Code   RO         4135    i.vTaskSuspendAll   tasks.o
    0x0800767c   0x0000005c   Code   RO         4136    i.vTaskSwitchContext  tasks.o
    0x080076d8   0x000000e0   Code   RO         5308    i.write_status      ef_env.o
    0x080077b8   0x000000f4   Code   RO         4847    i.xPortStartScheduler  port.o
    0x080078ac   0x0000005a   Code   RO         4138    i.xTaskCreate       tasks.o
    0x08007906   0x00000056   Code   RO         4139    i.xTaskCreateStatic  tasks.o
    0x0800795c   0x000000c8   Code   RO         4146    i.xTaskIncrementTick  tasks.o
    0x08007a24   0x000000c4   Code   RO         4152    i.xTaskResumeAll    tasks.o
    0x08007ae8   0x0000001c   Data   RO          315    .constdata          freertos.o
    0x08007b04   0x00000010   Data   RO         3615    .constdata          system_stm32f4xx.o
    0x08007b14   0x00000008   Data   RO         3616    .constdata          system_stm32f4xx.o
    0x08007b1c   0x0000008c   Data   RO         4937    .constdata          elog.o
    0x08007ba8   0x00000023   Data   RO         5073    .constdata          elog_utils.o
    0x08007bcb   0x0000000a   Data   RO         5097    .constdata          test_elog.o
    0x08007bd5   0x0000000f   Data   RO         5228    .constdata          easyflash.o
    0x08007be4   0x00000065   Data   RO         5310    .constdata          ef_env.o
    0x08007c49   0x00000003   PAD
    0x08007c4c   0x00000400   Data   RO         5557    .constdata          ef_utils.o
    0x0800804c   0x00000068   Data   RO         5586    .constdata          ef_port.o
    0x080080b4   0x0000000b   Data   RO         6318    .constdata          gunit.o
    0x080080bf   0x000000b7   Data   RO         6432    .constdata          gmultibutton.o
    0x08008176   0x00000010   Data   RO         6535    .constdata          gtwinkle.o
    0x08008186   0x000000b5   Data   RO         6670    .constdata          gflashctl.o
    0x0800823b   0x0000001f   Data   RO         7289    .constdata          gtimer.o
    0x0800825a   0x00000081   Data   RO         7973    .constdata          mc_w.l(ctype_o.o)
    0x080082db   0x00000001   PAD
    0x080082dc   0x00000004   Data   RO         7974    .constdata          mc_w.l(ctype_o.o)
    0x080082e0   0x0000000c   Data   RO          316    .conststring        freertos.o
    0x080082ec   0x0000008b   Data   RO         4938    .conststring        elog.o
    0x08008377   0x00000001   PAD
    0x08008378   0x00000049   Data   RO         5074    .conststring        elog_utils.o
    0x080083c1   0x00000003   PAD
    0x080083c4   0x00000048   Data   RO         5098    .conststring        test_elog.o
    0x0800840c   0x00000049   Data   RO         5229    .conststring        easyflash.o
    0x08008455   0x00000003   PAD
    0x08008458   0x0000012f   Data   RO         5311    .conststring        ef_env.o
    0x08008587   0x00000001   PAD
    0x08008588   0x0000005b   Data   RO         5587    .conststring        ef_port.o
    0x080085e3   0x00000001   PAD
    0x080085e4   0x00000020   Data   RO         8015    Region$$Table       anon$$obj.o


    Execution Region RW_IRAM1 (Base: 0x20000000, Size: 0x00007b30, Max: 0x00020000, ABSOLUTE, COMPRESSED[0x000000d4])

    Base Addr    Size         Type   Attr      Idx    E Section Name        Object

    0x20000000   0x00000004   Data   RW          317    .data               freertos.o
    0x20000004   0x0000000c   Data   RW         3385    .data               stm32f4xx_hal.o
    0x20000010   0x00000004   Data   RW         3617    .data               system_stm32f4xx.o
    0x20000014   0x0000003c   Data   RW         4155    .data               tasks.o
    0x20000050   0x00000018   Data   RW         4785    .data               heap_4.o
    0x20000068   0x0000000c   Data   RW         4848    .data               port.o
    0x20000074   0x00000034   Data   RW         4939    .data               elog.o
    0x200000a8   0x00000010   Data   RW         5312    .data               ef_env.o
    0x200000b8   0x00000038   Data   RW         5908    .data               gs2j_test.o
    0x200000f0   0x0000000c   Data   RW         5990    .data               cjson.o
    0x200000fc   0x00000008   Data   RW         6284    .data               s2j.o
    0x20000104   0x00000008   Data   RW         6433    .data               gmultibutton.o
    0x2000010c   0x00000008   Data   RW         6536    .data               gtwinkle.o
    0x20000114   0x00000008   Data   RW         6537    .data               gtwinkle.o
    0x2000011c   0x00000064   Data   RW         6671    .data               gflashctl.o
    0x20000180   0x00000024   Data   RW         6771    .data               gw24q64.o
    0x200001a4   0x00000014   Data   RW         6952    .data               gtwled.o
    0x200001b8   0x0000001c   Data   RW         7290    .data               gtimer.o
    0x200001d4   0x00000004   Data   RW         7539    .data               mc_w.l(stdout.o)
    0x200001d8   0x00000004   Data   RW         7936    .data               mc_w.l(mvars.o)
    0x200001dc   0x00000004   Data   RW         7937    .data               mc_w.l(mvars.o)
    0x200001e0   0x00000004   Data   RW         7941    .data               mc_w.l(errno.o)
    0x200001e4   0x00000254   Zero   RW          314    .bss                freertos.o
    0x20000438   0x00000010   Zero   RW          394    .bss                rng.o
    0x20000448   0x00000108   Zero   RW          438    .bss                spi.o
    0x20000550   0x00000040   Zero   RW          490    .bss                tim.o
    0x20000590   0x00000100   Zero   RW          535    .bss                usart.o
    0x20000690   0x00000040   Zero   RW          740    .bss                stm32f4xx_hal_timebase_tim.o
    0x200006d0   0x000000f0   Zero   RW         4154    .bss                tasks.o
    0x200007c0   0x00003c00   Zero   RW         4784    .bss                heap_4.o
    0x200043c0   0x00000454   Zero   RW         4936    .bss                elog.o
    0x20004814   0x00000174   Zero   RW         5309    .bss                ef_env.o
    0x20004988   0x00000080   Zero   RW         5585    .bss                ef_port.o
    0x20004a08   0x00000028   Zero   RW         6431    .bss                gmultibutton.o
    0x20004a30   0x00000048   Zero   RW         6588    .bss                gkbaseusart.o
    0x20004a78   0x00000064   Zero   RW         6770    .bss                gw24q64.o
    0x20004adc   0x00000050   Zero   RW         6951    .bss                gtwled.o
    0x20004b2c   0x00000004   PAD
    0x20004b30   0x00001000   Zero   RW            2    HEAP                startup_stm32f405xx.o
    0x20005b30   0x00002000   Zero   RW            1    STACK               startup_stm32f405xx.o


==============================================================================

Image component sizes


      Code (inc. data)   RO Data    RW Data    ZI Data      Debug   Object Name

       452         22          0         12          0      12597   cjson.o
       120          0          0          0          0      22289   cmsis_os.o
       576        404         88          0          0       2579   easyflash.o
      6592       2212        404         16        372      43538   ef_env.o
       608        360        195          0        128       9238   ef_port.o
         0          0          0          0          0       6120   ef_types.o
        36          4       1024          0          0       1300   ef_utils.o
      1648        498        279         52       1108      15388   elog.o
         0          0          0          0          0       3043   elog_buf.o
        72         40          0          0          0       4073   elog_port.o
       212         64        108          0          0       2901   elog_utils.o
         0          0          0          0          0      18064   event_groups.o
        68         14         40          4        596       2318   freertos.o
       336        158        181        100          0       6860   gflashctl.o
       160         16          0          0         72       2229   gkbaseusart.o
      1092        392        183          8         40       8882   gmultibutton.o
       356         26          0          0          0       1039   gpio.o
       504        130          0         56          0       3319   gs2j_test.o
       408        180         31         28          0       6276   gtimer.o
       304         72         16         16          0       5249   gtwinkle.o
       236         84          0         20         80       4671   gtwled.o
       448         90         11          0          0       4259   gunit.o
      1032        138          0         36        100      10671   gw24q64.o
       460         24          0         24      15360       7219   heap_4.o
       138          0          0          0          0       3454   list.o
       302         30          0          0          0     687207   main.o
       702         72          0         12          0      10912   port.o
        96         18          0          0         16       1459   rng.o
         0          0          0          8          0        254   s2j.o
       540         54          0          0        264       2987   spi.o
        36          8        392          0      12288        820   startup_stm32f405xx.o
       116         18          0         12          0       3794   stm32f4xx_hal.o
       228         24          0          0          0      34367   stm32f4xx_hal_cortex.o
        36          0          0          0          0       1179   stm32f4xx_hal_dma.o
       452         44          0          0          0       3015   stm32f4xx_hal_gpio.o
        76          6          0          0          0        822   stm32f4xx_hal_msp.o
      1324         86          0          0          0       5697   stm32f4xx_hal_rcc.o
       148          0          0          0          0       2816   stm32f4xx_hal_rng.o
      1116         14          0          0          0       6850   stm32f4xx_hal_spi.o
       654         44          0          0          0       6573   stm32f4xx_hal_tim.o
        70          0          0          0          0       2373   stm32f4xx_hal_tim_ex.o
       116         16          0          0         64       1347   stm32f4xx_hal_timebase_tim.o
      1718         14          0          0          0       9555   stm32f4xx_hal_uart.o
       134         60          0          0          0       7502   stm32f4xx_it.o
         0          0          0          0          0        392   stream_buffer.o
        84         18         24          4          0       1111   system_stm32f4xx.o
      1506        110          0         60        240      16310   tasks.o
       228         40         82          0          0        668   test_elog.o
       128         18          0          0         64       1502   tim.o
       564         60          0          0        256       3621   usart.o

    ----------------------------------------------------------------------
     26278       5682       3102        468      31052    1020709   Object Totals
         0          0         32          0          0          0   (incl. Generated)
        46          0         12          0          4          0   (incl. Padding)

    ----------------------------------------------------------------------

      Code (inc. data)   RO Data    RW Data    ZI Data      Debug   Library Member Name

        86          0          0          0          0          0   __dczerorl2.o
        28          0          0          0          0         68   _chval.o
       158          0          0          0          0         92   _strtoul.o
        26          0          0          0          0         80   atol.o
         8          4        133          0          0         68   ctype_o.o
         0          0          0          0          0          0   entry.o
         0          0          0          0          0          0   entry10a.o
         0          0          0          0          0          0   entry11a.o
         8          4          0          0          0          0   entry2.o
         4          0          0          0          0          0   entry5.o
         0          0          0          0          0          0   entry7b.o
         0          0          0          0          0          0   entry8b.o
         8          4          0          0          0          0   entry9a.o
         8          4          0          4          0         68   errno.o
        30          0          0          0          0          0   handlers.o
        36          8          0          0          0         68   init.o
         0          0          0          0          0          0   iusefp.o
        30          0          0          0          0         68   llshl.o
        36          0          0          0          0         68   llsshr.o
        32          0          0          0          0         68   llushr.o
       188         20          0          0          0        160   malloc.o
        26          0          0          0          0         80   memcmp.o
        36          0          0          0          0         68   memcpya.o
        36          0          0          0          0        108   memseta.o
         0          0          0          8          0          0   mvars.o
      2458        110          0          0          0        916   printfa.o
         4          0          0          0          0         68   putc.o
         0          0          0          4          0          0   stdout.o
        18          0          0          0          0         68   strcpy.o
        14          0          0          0          0         68   strlen.o
        30          0          0          0          0         80   strncmp.o
        24          0          0          0          0         76   strncpy.o
        36          0          0          0          0         80   strstr.o
       112          0          0          0          0         88   strtol.o
        12          0          0          0          0         68   tolower.o
        44          0          0          0          0         80   uidiv.o
        98          0          0          0          0         92   uldiv.o
        48          0          0          0          0         68   cdrcmple.o
       334          0          0          0          0        148   dadd.o
       222          0          0          0          0        100   ddiv.o
       186          0          0          0          0        176   depilogue.o
        62          0          0          0          0         80   dfixi.o
        48          0          0          0          0         68   dfixul.o
        26          0          0          0          0         76   dfltui.o
       228          0          0          0          0         96   dmul.o

    ----------------------------------------------------------------------
      4794        154        134         16          0       3560   Library Totals
         6          0          1          0          0          0   (incl. Padding)

    ----------------------------------------------------------------------

      Code (inc. data)   RO Data    RW Data    ZI Data      Debug   Library Name

      3634        154        133         16          0       2748   mc_w.l
      1154          0          0          0          0        812   mf_w.l

    ----------------------------------------------------------------------
      4794        154        134         16          0       3560   Library Totals

    ----------------------------------------------------------------------

==============================================================================


      Code (inc. data)   RO Data    RW Data    ZI Data      Debug   

     31072       5836       3236        484      31052     995977   Grand Totals
     31072       5836       3236        212      31052     995977   ELF Image Totals (compressed)
     31072       5836       3236        212          0          0   ROM Totals

==============================================================================

    Total RO  Size (Code + RO Data)                34308 (  33.50kB)
    Total RW  Size (RW Data + ZI Data)             31536 (  30.80kB)
    Total ROM Size (Code + RO Data + RW Data)      34520 (  33.71kB)

==============================================================================

