:020000040800F2
:10000000307B00205D020008EB2600084123000839
:10001000E92600081D0C0008253200080000000039
:100020000000000000000000000000009D0100082A
:100030001F0C000800000000F9010008412B000817
:1000400077020008770200087702000877020008AC
:1000500077020008ED260008770200087702000802
:10006000770200087702000877020008770200088C
:10007000770200087702000877020008770200087C
:10008000770200087702000877020008770200086C
:10009000770200087702000877020008770200085C
:1000A000770200087702000877020008770200084C
:1000B000770200087702000877020008770200083C
:1000C000770200087702000877020008F12600088E
:1000D000FD260008F5310008013200080D32000845
:1000E000770200087702000877020008770200080C
:1000F00077020008770200087702000877020008FC
:100100007702000877020008770200080927000834
:1001100077020008770200084D2C0008592C0008CF
:1001200077020008770200087702000877020008CB
:1001300077020008000000000000000077020008BD
:1001400077020008770200087702000877020008AB
:1001500077020008770200087702000819320008C9
:10016000770200087702000877020008770200088B
:10017000770200087702000800000000000000007D
:100180003523000877020008DFF80CD000F0FAFBF6
:10019000004800472D5E0008307B00202C4B19687A
:1001A0000868B0E8F04F80F30988BFF36F8F4FF015
:1001B000000080F3118870470000000008480068C4
:1001C000006880F308884FF0000080F3148862B65E
:1001D00061B6BFF34F8FBFF36F8F00DF00BF00BF6B
:1001E00008ED00E0DFF80C00016841F470010160E7
:1001F000704700BF88ED00E0EFF30980BFF36F8F19
:10020000134B1A681EF0100F08BF20ED108A20E96A
:10021000F04F106009B44FF0500080F31188BFF325
:100220004F8FBFF36F8F07F029FA4FF0000080F374
:10023000118809BC19680868B0E8F04F1EF0100F6B
:1002400008BFB0EC108A80F30988BFF36F8F704746
:1002500014000020EFF30580704700000648804737
:1002600006480047FEE7FEE7FEE7FEE7FEE7FEE79B
:10027000FEE7FEE7FEE7FEE7F92B0008890100082C
:100280002DE9F05F0546002092469B4688460646CB
:10029000814640241BE0284641464746224600F05E
:1002A00024FA53465A46C01A914110D311461846B3
:1002B000224600F00BFA2D1A67EB01084F46224642
:1002C0000120002100F002FA17EB00094E41201E28
:1002D000A4F10104DFDC484631462A464346BDE826
:1002E000F09FA0F14101192900D82030704740EA61
:1002F00001039B0703D009E008C9121F08C0042AA4
:10030000FAD203E011F8013B00F8013B521EF9D28A
:100310007047D2B201E000F8012B491EFBD27047B2
:100320000022F6E710B513460A4604461946FFF7C1
:10033000F0FF204610BD30B505462A460B4612F8A0
:10034000010B13F8014B08B1A042F8D01CB10028F2
:1003500002D06D1CF1E7284630BD10B5044604E01C
:100360000B7800F8013B03B1491C521EF8D220461D
:1003700010BD421C10F8011B0029FBD1801A7047E8
:1003800030B504460020034600E05B1C934203D2D4
:10039000E05CCD5C401BF8D030BD034611F8012B6A
:1003A00000F8012B002AF9D11846704730B50546F0
:1003B0000020034600E05B1C934205D2EC5CC85C65
:1003C000201A01D1002CF6D130BD70B5064602F0DE
:1003D000F9FF046805460A220021304600F0B5F90D
:1003E0002C6070BD2DE9FE4F804681EA0300C00FEE
:1003F0000C46009021F0004123F00045B8EB0200CC
:10040000A94105D24046214690461C460B4602466D
:1004100023F00040104347D0270DC7F30A00C3F371
:100420000A510290401A019040286BDAC3F313007E
:1004300040F4801B0098924620B10023D2EB030ABF
:1004400063EB0B0B01985946C0F14002504600F097
:100450003DF906460D4650465946019A00F055F9B9
:1004600010EB08006141002487EA115284EAE77327
:100470001A4340D0009A62B3019A012A4FEA075208
:1004800015DC001B61EB02014FF0004202EA07524B
:10049000CDE90042001C41F5801132462B4600F0A8
:1004A0009BF903B0BDE8F08F40462146F9E7001BF9
:1004B00061EB0201001C41F5801300185B4120181C
:1004C000A2F5001747EB030140EAD570B6196D415C
:1004D00011E06D084FEA360645EAC0754FEA07524B
:1004E000001B61EB0201001C41F5801149084FEA35
:1004F00030000019514132462B4603B0BDE8F04FA1
:1005000000F05BB90098012240000023D0EB02020A
:1005100063EBE073009821464FEAE074B8EB00000B
:1005200061EB0401E9E783F000435BE781F0004100
:1005300058E72DE9FE4F81EA030404F0004421F05E
:10054000004100944FF0000B23F0004350EA0104F7
:100550005ED052EA03045BD0C3F30A54C1F30A55D8
:100560002C44A4F2F3340194A0FB0254C1F3130110
:1005700041F48011C3F3130343F4801301FB0244DD
:1005800000FB034E840A970A44EA815447EA8357E2
:10059000A4FB076802958D0A05FB07854FEA932C9B
:1005A00004FB0C542705029D4FEA065847EA16370C
:1005B000B5EB08056EEB070C870E920E47EA811724
:1005C00042EA8312A7FB0201B6EB0B0164EB0004C5
:1005D0002B0D43EA0C335E1844EB1C50DA465146AF
:1005E000E7FB0201C5F313044FEA0B3343EA14534C
:1005F0004FEA0432019C43EA0603A4F10C0402947E
:10060000009CCDE900B400F0E7F803B0BDE8F08F3E
:1006100000200146F9E70EB540F233410291002176
:10062000CDE900110A460B4600F0D6F803B000BD34
:1006300070B5C1F30A5201F000450024C1F3130163
:1006400040F2FF3341F480119A4201DA002070BD7C
:1006500040F233439A42A2F2334203DC524200F0AA
:1006600044F800E090402C43F1D0404270BD0000BF
:1006700030B5041E71F1000404DB4FF00044404229
:1006800064EB0101141E73F1000405DB1C464FF0FE
:100690000043524263EB0403994208BF904230BDCD
:1006A00030B50B46014600202022012409E021FA42
:1006B00002F59D4205D303FA02F5491B04FA02F53F
:1006C0002844151EA2F10102F1DC30BD202A04DB12
:1006D000203A00FA02F1002070479140C2F1200355
:1006E00020FA03F3194390407047202A04DB203A94
:1006F00021FA02F00021704721FA02F3D040C2F142
:1007000020029140084319467047202A06DBCB1788
:10071000203A41FA02F043EAE07306E041FA02F3BC
:10072000D040C2F1200291400843194670473A2850
:1007300000D2303820F02002412A01D3A2F1370044
:10074000884201D34FF0FF3070472DE9F0479146C2
:100750000F4680460446002614F8015B2DB100F0D8
:1007600023F90068405DC007F6D12B2D02D02D2D56
:1007700018D0641E4A463946204600F019F927B1C0
:100780003968A14201D1C7F8008071054FF0020419
:100790000BD54042002803DD02F014FE0460A007E0
:1007A000BDE8F08746F48066E4E70028F8DA02F056
:1007B00009FE04606FF00040F2E710B5141E73F1FB
:1007C000000408DA401C41F1000192185B411A4311
:1007D00001D120F0010010BD2DE9F04D92469B465D
:1007E00011B1B1FA81F202E0B0FA80F22032904603
:1007F000FFF76CFF04460F4640EA0A0041EA0B018E
:1008000053465A46084313D0114653EA010019D003
:10081000C8F140025046FFF768FF05460E465046B5
:1008200059464246FFF752FF084305D0012004E035
:1008300020463946BDE8F08D0020054346EAE076C3
:100840002C4337430A986305E40AA0EB0800002212
:10085000FD0A44EA47540A3002D500200146E9E780
:10086000010510196941DDE9084500196941BDE834
:10087000F04DA2E72DE9F04D81EA030404F0004BAE
:1008800021F0004514464FF0000A23F0004150EAE1
:10089000050220D054EA01021DD0C5F30A570246D2
:1008A000C5F31303C1F31300C1F30A5640F48015D6
:1008B00043F48013A7EB0608101BD64608F2FD3858
:1008C00073EB050002D308F1010801E092185B41C7
:1008D000B8F1000F03DA00200146BDE8F08D0020DA
:1008E0004FF48011064684460EE0171B73EB050794
:1008F00005D3121B63EB050306434CEA010C4908C0
:100900004FEA300092185B4150EA0107EDD152EAFC
:10091000030012D082EA040083EA0501084305D0EF
:10092000101BAB4106D20122002306E000224FF04B
:10093000004302E06FF0010253101AEB06004CEB8B
:10094000085110EB0A0041EB0B01BDE8F04DFFF739
:1009500034BFC1F30A52C1F3130140F2FF3341F433
:1009600080119A4202DA00200146704740F2334378
:100970009A42A2F2334202DC5242FFF7B6BEFFF7C0
:10098000A5BE0000064C074D06E0E06840F00103FC
:1009900094E8070098471034AC42F6D3FFF7F8FB11
:1009A000E48500080486000800487047DC820008DF
:1009B0002DE9F05F82460078002715468B460AF144
:1009C0000104B946302801D09DB113E014F8010BA1
:1009D0000127782803D0582801D045B10AE00DB18D
:1009E000102D07D10027102514F8010B02E008256F
:1009F00000E00A250026B0460EE005FB080005FBD6
:100A000006F1012701EB10461FFA80F8B6F5803F8A
:100A100000D3B94614F8010B2946FFF788FE0028D9
:100A2000EBDABBF1000F05D00FB1641E00E05446B5
:100A3000CBF80040B9F1000F06D002F0C3FC022150
:100A40000160C81EBDE8F09F48EA0640FAE770B5AD
:100A50008C1810F8015B15F0070301D110F8013B69
:100A60002A1106D110F8012B03E010F8016B01F8F0
:100A7000016B5B1EF9D12B0705D40023521E0DD448
:100A800001F8013BFAE710F8013BCB1A921C03E096
:100A900013F8015B01F8015B521EF9D5A142D8D3CE
:100AA000002070BDD422024902A002F017BC000051
:100AB00021810008444F55422D232366756E6374CF
:100AC000696F6E3A2025732C4C696E653A20256457
:100AD0000D0A0000DD22024902A002F0FFBB000067
:100AE00059810008414C574159533A3A66756E6333
:100AF00074696F6E3A2025732C4C696E653A202517
:100B0000640D0A00D822024902A002F0E7BB0000EF
:100B10003B81000853544152542D414C5741595385
:100B20003A3A66756E6374696F6E3A2025732C4C81
:100B3000696E653A2025640D0A000000B62202495C
:100B400002A002F0CBBB0000BF800008444F574E0C
:100B50003A3A3A3A3A3A3A3A3A3A66756E637469C8
:100B60006F6E3A2025732C4C696E653A2025640D12
:100B70000A000000CC22024902A002F0AFBB000034
:100B8000ED8000084249542D4249542D4249543ABF
:100B90003A66756E6374696F6E3A2025732C4C69E2
:100BA0006E653A2025640D0A0000000010B5BB22D6
:100BB000044905A002F092FBBDE81040014800F096
:100BC000CFB80000D780000855503A3A3A3A3A3A3E
:100BD0003A3A3A3A66756E6374696F6E3A202573D5
:100BE0002C4C696E653A2025640D0A00D02202491A
:100BF00002A002F073BB00000781000853494E4772
:100C00002D2366756E6374696F6E3A2025732C4CC4
:100C1000696E653A2025640D0A000000FEE7704702
:100C2000704710B500284FF0E0244FF006001BD0AD
:100C300000F05BFA072000F058FA082000F055FA9F
:100C4000092000F052FA0A2000F04FFA172000F0B5
:100C50004CFA282000F049FA292000F046FA1D201D
:100C600000F043FA07201AE000F02EFA072000F007
:100C70002BFA082000F028FA092000F025FA0A20B3
:100C800000F022FA172000F01FFA282000F01CFACA
:100C9000292000F019FA1D2000F016FA002020612A
:100CA00010BD000070B5274D4FF07F542DED068B21
:100CB000B7EE088ABFEE08AAB7EE009ADFED229AD7
:100CC000F0EE4A8AFAEE00AA28EEA80AF0EE400AF0
:100CD00020EE080A48EE080A20EE080A70EEC90A5B
:100CE00020EEA01A61EE200A40EE480AF5EEC00A96
:100CF000F1EE10FA08D820EEAA0A14A1BDEEC00A3F
:100D000010EE100A085C00E02020134905F0D4FC26
:100D100078EEA98A18EE900AA042D5DB0E490D2084
:100D200005F0CAFC0C490A2005F0C6FC9FED0B0A31
:100D300038EE408A18EE100AA842C1D3BDEC068BEB
:100D400070BD00000000C0BFCDCC4C3D2E3A2D3D03
:100D50002A23254000000000D4010020CDCCCC3D4A
:100D600010B505A38A22074907A002F0B7FABDE82B
:100D7000104000F0F9B9000031303A34353A3131E1
:100D800000000000B480000866756E6374696F6EC1
:100D90003A2025732C4C696E653A2025642C5469E1
:100DA0006D653A2025730D0A0000000090F835109B
:100DB000022903D08021416501207047052180F878
:100DC00035100068016821F00101016000207047C2
:100DD00070B5044600F0F0F80546601C02D00448E7
:100DE0000078044400F0E8F8401BA042FAD370BD3C
:100DF000040000202DE9F84FDFF87CB100224FF00D
:100E000001084FF0030A4FF00F090BF1040E00BF69
:100E10000B6808FA02F42340A3426ED14D68022DFC
:100E200001D0122D0ED1D50800EB850CDCF8205036
:100E30005607F70E09FA07F6B5430E69BE402E4372
:100E4000CCF82060066855000F790AFA05FC07F017
:100E5000030726EA0C06AF40374307604E68012EB1
:100E600005D0022E03D0112E01D0122E0ED186688D
:100E7000CF6826EA0C06AF40374387604668A64332
:100E80000C79C4F30014944034434460C6688C6801
:100E900026EA0C06AC403443C4604C68E40065D5D7
:100EA000364C256845F480452560246822F003050A
:100EB00004F480440094324C2E19D6F80848950763
:100EC0002F0F09FA07F5AC432E4DA84201D100259A
:100ED00024E02D4DA84201D101251FE02B4DA84251
:100EE00001D102251AE02A4DA84201D1032515E0BF
:100EF000284DA84202D1042510E037E0264DA84233
:100F000001D105250AE0254DA84201D1062505E0BD
:100F1000234DA84201D1072500E00825BD40254307
:100F2000C6F80858DBF800405D464E689C43F6035F
:100F300000D51C432C60DEF8004075464E689C438B
:100F4000B60300D51C432C600B4D08352C684E6849
:100F50009C43F60200D51C432C60074D0C352C68D1
:100F60004E689C43B60200D51C432C60521C102ACC
:100F7000FFF44EAFBDE8F88F003C0140443802401A
:100F8000003001400000024000040240000802401E
:100F9000000C024000100240001402400018024001
:100FA000001C02400069084000D0012070470AB1CF
:100FB000816170470904FBE70148806870470000C1
:100FC0000400002002488168027811448160704763
:100FD000040000200B4810B5016841F40071016065
:100FE000016841F480610160016841F48071016031
:100FF000032000F0A7F8002000F006F800F03EF80B
:10100000002010BD003C024010B5014688B000220F
:10101000372000F077F8372000F067F813480024F5
:10102000016841F020010160006805A900F020007E
:101030000690684600F042F900F060F90C49400063
:10104000B0FBF1F10C480B4A491E026040F2E73256
:10105000C0E90324C0E9011400F010FE10B1012022
:1010600008B010BD044800F043FEF9E740380240E4
:1010700040420F000014004090060020114808B5BF
:10108000016841F480410160006800F480400090F4
:101090000C48001F016841F0805101600068002287
:1010A00000F0805000900F21901E00F02BF80521D9
:1010B0000022084600F026F8BDE80840052000F0B0
:1010C00014B800004438024000280DDB00F01F0275
:1010D000012191404009800000F1E020C0F880111A
:1010E000BFF34F8FBFF36F8F7047002809DB00F00D
:1010F0001F02012191404009800000F1E020C0F86A
:1011000000117047F0B40E4B1B680C46C3F302236A
:10111000C3F10705042D00D90425191D072901D2A3
:10112000002300E0DB1E012606FA05F1491E2140DE
:1011300099409E40761E16403143F0BC02F032B911
:101140000CED00E0064900F0070208684FF6FF03C7
:10115000184040EA0220034A10430860704700002C
:101160000CED00E00000FA05BFF34F8F0548016861
:10117000054A01F4E06111430160BFF34F8F00BFE6
:10118000FDE700000CED00E00400FA052DE9F04752
:101190000E46050065D0DFF81481D8F80000F7B2DC
:1011A00000F00F00B04207D288F80070D8F80000B5
:1011B00000F00F00B04254D128683D4C810712D591
:1011C000400703D5206840F4E050206028780007ED
:1011D00003D5206840F4604020602068A96820F0B2
:1011E000F000084320602878C0072DD03049686897
:1011F0000839012812D0022813D0032811D0096819
:10120000890700292DDA216821F0030101432160BB
:10121000FFF7D2FE814641F2883A0EE00968890361
:10122000EFE709688901ECE7FFF7C6FEA0EB0901CB
:10123000514502D90320BDE8F0872068696800F0B5
:101240000C00B0EB810FEFD1D8F80010404601F050
:101250000F01B14207D90770006800F00F00B042DB
:1012600001D00120E7E72878400705D52068E96824
:1012700020F4E050084320602878000706D5206855
:10128000296920F4604040EAC100206000F056F86F
:101290002168084AC1F30311515CC840064908603F
:1012A0000020FFF7B1FE0020C5E70000003C02402F
:1012B00008380240047B0008100000200F22026062
:1012C0000C4A136803F003034360136803F0F00350
:1012D0008360136803F4E053C36012684FF4E05373
:1012E00003EAD20202610448006800F00F000860BF
:1012F0007047000008380240003C0240044805499D
:1013000000680968044AC1F38221515CC8407047F3
:101310001000002008380240147B000804480549EA
:1013200000680968044AC1F34231515CC840704703
:101330001000002008380240147B0008154810B542
:10134000006810F00C02144813D04110042A0FD08A
:10135000082A0ED10F4C241F2268236802F03F0296
:101360005B0207D52068C0F38810A0FB010106E0EE
:10137000084610BD2168C1F38811A1FB00010023BC
:10138000FEF77EFF2168C1F30141491C4900B0FB13
:10139000F1F010BD083802400024F4002DE9F84FA8
:1013A000050076D02878DFF8F8B2BE4CC00749D0E7
:1013B000DBF800105846C1F38101012908D000680C
:1013C000C0F3810002280AD1201D0068400206D522
:1013D0002068800336D568680028E2D032E068686B
:1013E000B0F5803F10D0B0F5A02F206810D020F4C9
:1013F00080302060206820F4802020606868A0B1E0
:10140000FFF7DAFD06460CE0206840F48030F4E790
:1014100040F480202060F7E7FFF7CEFD801B6428B2
:1014200073D820688003F7D50CE0FFF7C5FD0646AA
:1014300005E000BFFFF7C0FD801B6428F0D82068DE
:101440008003F7D42878DFF8608280074FF0000926
:101450003ED5DBF80010584611F00C0F09D000689B
:10146000C0F3810002280BD18D48001F00684002A4
:1014700006D42068800715D5E868012809D111E055
:10148000E868B8B10120C8F80000FFF795FD0646EE
:1014900005E002E1FFF790FD801B0228C0D820681C
:1014A0008007F7D52068296920F0F80040EAC100DC
:1014B00020600DE0C8F80090FFF77EFD064604E0CE
:1014C000FFF77AFD801B02281FD820688007F7D419
:1014D0002878000722D5724E744869696C3671B15C
:1014E00001210160FFF768FD074604E0FFF764FD96
:1014F000C01B022809D830688007F7D50EE0C0F875
:101500000090FFF759FD074605E083E0FFF754FD23
:10151000C01B02287ED830688007F7D4287840079F
:1015200068D5DFF87CA100270AF1380ADAF8000054
:10153000C0000BD4DAF8001041F08051CAF8001056
:10154000DAF80000012700F080500090584E306813
:10155000C00510D4306840F480703060FFF72CFD77
:10156000009005E0FFF728FD0099401A022851D8A5
:101570003068C005F6D54A4EA868683601280FD0F5
:101580000528306810D020F001003060306820F06D
:1015900004003060A868B8B1FFF70EFD00900FE0BE
:1015A000306840F00100F4E740F004003060F7E7F5
:1015B000FFF702FD0099411A41F28830814264D858
:1015C00030688007F4D50EE0FFF7F6FC009007E0E6
:1015D000FFF7F2FC0099411A41F28830814254D859
:1015E00030688007F4D42FB1DAF8001021F0805170
:1015F000CAF80010A869C0B3DBF80010C1F381017C
:1016000002294AD00228484607D0C8F86000FFF7F0
:10161000D3FC00E039E005463AE04746C8F86000F0
:10162000FFF7CAFC064604E0FFF7C6FC801B022851
:101630002BD820688001F7D4D5E907010843A96AAF
:101640001C4A490802EB01416A6A41EA82110843D7
:1016500095F82C1040EA01611148001F016001203B
:101660003866FFF7A9FC054605E014E0FFF7A4FC87
:10167000401B022809D820688001F7D50BE000BF85
:10168000FFF79AFC401B022802D90320BDE8F88F1F
:1016900020688001F4D40020F8E70120F6E700007C
:1016A000083802400038024000004742800E47429E
:1016B000007000400000FFFF704710B5044600684E
:1016C0004168C943890601D4082004E04068C0434A
:1016D00040060AD41020A060042060712046FFF765
:1016E000EBFF21686FF06000486020684168C943E3
:1016F000C90710D1016821F00801016020688168E4
:10170000E1606079042806D001206071002020711A
:10171000204600F039F810BD70B5040003D06079A0
:10172000002510B105E0012070BD2571204600F0B4
:101730000DF8022060712068016841F00401016029
:1017400001206071A560002070BD000008B5006830
:101750000B49884212D10B48016841F040010160F9
:101760000068002200F04000009005215020FFF7A3
:10177000C9FCBDE808405020FFF7B7BC08BD000019
:1017800000080650343802407047704738B5016889
:1017900004464A688868C043430606D5C30704D197
:1017A000D3435B0601D4216C05E0830708D4D343FF
:1017B0001B0605D4616C01B02046BDE830400847E7
:1017C000830603D5430601D5C30551D4D3439B06F5
:1017D0004ED443060AD494F85130032B49D0636D9C
:1017E00043F004036365CB688B680093830609D4D8
:1017F000636D43F0010363658B6800930B6823F00E
:1018000040030B60C00506D4606D40F008006065C1
:10181000206880680090606D002829D020684168A9
:1018200021F0E0014160012084F85100900701D4CB
:10183000D00722D02068416821F003014160114D9A
:10184000E06C40B10565E06CFFF7B0FA18B1606D6F
:1018500040F040006065A06C002809D00565A06CD0
:10186000FFF7A4FA002803D0606D40F040006065E7
:1018700038BDC8688868009038BD2046FFF785FFEE
:1018800038BD00001527000870B5040005D00025FC
:10189000A56294F8510010B106E0012070BD84F8F3
:1018A0005050204600F030F8022084F851002068A3
:1018B000016821F040010160D4E901010843D4E945
:1018C00003121143084361690843218B01F400713D
:1018D0000843E1690843216A0843A16A0843216873
:1018E0000860A069042101EA1040616A0843216888
:1018F00048602068C16921F40061C161656501200B
:1019000084F85100002070BD2DE9F04186B00446F6
:1019100014216846FEF704FD474922680024474821
:101920000225032605278A4222D1444914310A6838
:1019300042F480520A60096801F4805105910168FF
:1019400041F001010160006802AA00F00100059069
:10195000E020CDE9000582E8D00069463848FFF76D
:1019600049FA002205212320FFF7CCFB232039E090
:101970003249344B1031DFF8D0809A4237D10A68AF
:1019800042F480420A60096801F4804105910168CF
:1019900041F004010160016801F004010591016852
:1019A00041F002010160006802AA00F00200059007
:1019B0000C20CDE9000582E8D00069462348FFF7F6
:1019C00019FA4FF48060CDE9000502AA694682E861
:1019D000D0004046FFF70EFA002205212420FFF731
:1019E00091FB2420FFF781FB06B0BDE8F081184B86
:1019F0009A42F9D10A6842F400420A60096801F487
:101A000000410591016841F0020101600068029403
:101A100000F0020005903820CDE900050620CDE950
:101A2000036069464046FFF7E5F9002205213320AF
:101A3000FFF768FB3320D5E7003001403038024023
:101A4000000002400038004000040240000802404C
:101A5000003C00402DE9F84F044690F85000002764
:101A60000A9E1D4692468B464FF0010901280ED072
:101A7000012084F85000FFF79FFA804694F8510047
:101A8000616801280CD0B1F5827F07D102E0022005
:101A9000BDE8F88FA16809B9042801D00227C2E087
:101AA000BBF1000F27D0BAF1000F24D01DB394F87A
:101AB0005100042802D0052084F851000020606500
:101AC000C4F838A0E587A587C4F830B0E586A586B8
:101AD0002064606420680168490603D4016841F00D
:101AE00040010160E068B0F5006F606805D0E8B3C0
:101AF000012D46D07FE0012795E008B1012D39D1B5
:101B0000206B21680088C860206B801C2063E08EF9
:101B1000401EE0862EE02068816889070FD5E18E9F
:101B200069B1B9F1010F0AD1216B0988C160206B3D
:101B3000801C2063E08E401EE0864FF00009206884
:101B40008168C9070CD0E18F51B1C068A16B0880D2
:101B5000A06B801CA063E08F401EE0874FF001095E
:101B6000FFF72AFAA0EB0800B04200E009E001D339
:101B7000701C50D1E08E0028CDD1E08F0028CAD152
:101B80003FE0206B216800780873206B401C2063C5
:101B9000E08E401EE0862EE02068816889070FD520
:101BA000E18E69B1B9F1010F0AD1216B0978017396
:101BB000206B401C2063E08E401EE0864FF0000941
:101BC00020688168C9070CD0E18F51B1C068A16B52
:101BD0000870A06B401CA063E08F401EE0874FF0B0
:101BE0000109FFF7E9F9A0EB0800B04202D3701C2D
:101BF00001D010E07EB1E08E0028CDD1E08F00282A
:101C0000CAD142463146204600F08CFD28B101275A
:101C10002020606507E0032705E0A06818B9206868
:101C2000C16880680090012084F85100002084F889
:101C3000500038462CE77047704770B590F83C204C
:101C4000012A19D0012400F83C4F0222427050F8BA
:101C50003C3C5A689D6822F070060A684968324325
:101C600025F0800529435A6050F83C2C916044705F
:101C700000210170084670BD022070BD10B504003F
:101C800003D094F83D0010B107E0012010BD002002
:101C900084F83C00204600F00DF8022084F83D0056
:101CA000211D206800F0DEFF012084F83D000020A7
:101CB00010BD000008B500680B49884212D10B48DE
:101CC000016841F0100101600068002200F010007E
:101CD000009005213620FFF715FABDE808403620B0
:101CE000FFF703BA08BD0000001000404038024072
:101CF0000168CA6842F00102CA600068816801F0A8
:101D00000701062903D0016841F0010101600020AC
:101D10007047704770B50446006801694FF00005D0
:101D2000C943890715D4C168C943890711D4E91E7D
:101D3000016101202077206880698007204602D059
:101D4000FFF7E7FF04E000F098F8204600F096F86F
:101D5000257720680169C943490717D4C168C94379
:101D6000490713D46FF00401016102202077206835
:101D7000806910F4407F204602D0FFF7CAFF04E0DC
:101D800000F07BF8204600F079F82577206801699B
:101D9000C943090716D4C168C943090712D46FF0B3
:101DA00008010161042020772068C069800720466F
:101DB00002D0FFF7AEFF04E000F05FF8204600F02D
:101DC0005DF8257720680169C943C90617D4C16841
:101DD000C943C90613D46FF01001016108202077B0
:101DE0002068C06910F4407F204602D0FFF791FFC1
:101DF00004E000F042F8204600F040F82577206823
:101E00000169C943C90708D1C168C943C90704D1D9
:101E1000891E0161204600F033F820680169C9433A
:101E2000090609D4C168C943090605D46FF08001C9
:101E300001612046FFF7FFFE20680169C94349069A
:101E400009D4C168C943490605D46FF04001016156
:101E5000204600F031F820680169C94389060BD497
:101E6000C168C943890607D46FF02001016120468B
:101E7000BDE87040FFF7E0BE70BD704770470000DE
:101E800010B5044600680A49884201D1FFF79AF864
:101E900008492068884209D102F010F904F068F975
:101EA00005F076F9BDE8104004F030B810BD000030
:101EB00000140040001000407047704770B5026881
:101EC00004461068D168536910F00F0F50D003F02A
:101ED000010501F4907635435DD0C20705D0CA05EF
:101EE00003D5E26B42F00102E263420705D5DA074F
:101EF00003D0E26B42F00202E263820705D5DA0703
:101F000003D0E26B42F00402E263020705D5DA0770
:101F100003D0E26B42F00802E263E26B002A33D0A6
:101F2000800604D5880602D5204600F05DFF2068B3
:101F30004069E16BC0F38010090700D428B3204644
:101F400000F044FF2068416949061AD5416921F033
:101F500040014161606BA0B11B490165606BFEF7F8
:101F600025FF002810D0606B016DBDE87040084768
:101F7000830610D58B060ED52046BDE8704000F0D4
:101F800033BF2046FFF799FF70BD2046FFF795FF4E
:101F90000020E06370BD030606D50B0604D520467D
:101FA000BDE8704001F0C2B84006F3D54806F1D54F
:101FB000D168204621F04001D160202184F83910F9
:101FC00000F0B7F970BD0000BD2D000870B5040029
:101FD00004D094F83900002510B106E0012070BD4E
:101FE00084F83850204600F023F8242084F8390083
:101FF0002068C16821F40051C160204600F040FF14
:102000002068016921F4904101612068416921F053
:102010002A0141612068C16841F40051C160E56353
:10202000202084F8390084F83A00002070BD0000B8
:10203000F0B587B0044614216846FEF771F94B49A4
:10204000494A2768494B1439022401250326484888
:102050004FF0070C97421CD11A6842F010021A6028
:102060001A6802F0100205920A6842F001020A6042
:10207000096801F00101059171028DE8721069464D
:10208000FEF7B8FE002205212520FFF73BF82520AA
:1020900021E0364ADFF8DCE0121F77451FD11368D4
:1020A00043F400331360126802F4003205920A68A8
:1020B00042F001020A60096801F0010105910C215A
:1020C0008DE872106946FEF795FE00220521262054
:1020D000FFF718F82620FFF708F807B0F0BDDFF883
:1020E00098E0264877451DD1136843F48023136098
:1020F000126802F4802205920A6842F004020A6023
:10210000096801F0040105914FF440618DE87210F7
:102110006946FEF76FFE002205212720FEF7F2FF39
:102120002720D8E7164A9742D7D11A6842F02002F2
:102130001A601A6802F0200205920A6842F004024E
:102140000A60096801F004010591C0218DE8720060
:10215000082104916946FEF74DFE00220521472023
:10216000FEF7D0FF4720B6E7001001404438024098
:1021700000000240004400400048004000080240C7
:102180000014014090F83A30202B22D1F9B1F2B17D
:1021900090F83830012B1CD081628285C2850021E5
:1021A000C163222280F83A2080F838100168CA689A
:1021B00042F48072CA6001684A6942F001024A61D1
:1021C0000068C16841F02001C16000207047012013
:1021D000704702207047000070B50446006822492D
:1021E000884209D121498B898A68887BD0548889A3
:1021F000401C8881012230E01D49884214D11B49CE
:10220000C82210398889B0FBF2F302FB13008A68F8
:102210008B7B13548889401C8881887B4968884758
:1022200012490122103918E0124988421BD10F4986
:102230002039886850B18A896423B2FBF3F503FB27
:1022400015228B7B83548889401C88814A680AB197
:10225000887B90470549012220392046BDE870401F
:102260000E31FFF78FBF70BD00480040504A00207C
:1022700000440040001001402DE9F843044690F866
:1022800039001F4616460D46202850D1A5B19EB1F3
:1022900094F8380001284AD0012084F838004FF023
:1022A0000008C4F83C80212084F83900FEF784FE41
:1022B000A6848146E68426E00120BDE8F883E08C10
:1022C000401EE084A0684B46B0F5805F4FF00002EE
:1022D0004FF080012046009703D000F058FFE8B986
:1022E0000DE000F054FFC8B928882168C0F3080049
:1022F0004860206908B16D1C05E0AD1C03E0216851
:1023000015F8010B4860E08C0028D8D14B4600221C
:1023100040212046009700F03AFF08B10320CCE7A7
:10232000202084F8390084F838800020C5E7022096
:10233000C3E770470148FFF7C0B900003804002028
:10234000FEE7000000B587B01C2206496846FDF78D
:10235000CEFF0021684603F0E3FF0349086007B0A1
:1023600000BD0000E87A0008000000202DE9F04FD1
:1023700087B014216846FDF7D3FF4F480024016859
:1023800041F080010160016801F080010591016860
:1023900041F004010160016801F004010591016848
:1023A00041F001010160016801F00101059101683E
:1023B00041F002010160016801F00201059101682C
:1023C00041F0080101600068DFF8F08000F00800CB
:1023D00041F212350590002229464046FEF7E7FDFE
:1023E000DFF8DC9048F21306002231464846FEF73B
:1023F000DEFDDFF8D0B040F64517002239465846DA
:10240000FEF7D5FDDFF8C0A0002204215046FEF7FC
:10241000CEFD00950125CDE901546946404603945F
:10242000FEF7E8FC0096CDE901546946484603945E
:10243000FEF7E0FC2020CDE9000469464046029406
:10244000FEF7D8FC0097CDE901546946584603943D
:10245000FEF7D0FC40F2022000901C48CDE90104B8
:1024600069465846FEF7C6FC4FF440508DE83100EF
:1024700069465846FEF7BEFC28028DE831006946E1
:102480004846FEF7B7FC04200090CDE901546946A8
:1024900050460394FEF7AEFC802000900220CDE968
:1024A00001040F20CDE9034069465846FEF7A2FC1F
:1024B00007B0BDE8F08F000030380240000802404D
:1024C0000000024000040240000C02400000111015
:1024D000074910B5054808600846FFF71DF90028B0
:1024E00003D0BDE81040FEF79BBB10BD00080650AE
:1024F00038040020104810B50E4901604FF4827175
:102500004160002102228160C0E903120122426180
:102510005202C0E906210162416281620721C16263
:10252000FFF7B2F9002803D0BDE81040FEF778BBF2
:1025300010BD000000300140480400200F4810B5D5
:102540000D4901604FF48271416000218160C160DA
:102550004FF400720161C0E90512C161016241627C
:1025600081620A21C162FFF78FF9002803D0BDE81C
:102570001040FEF755BB10BD00380040A0040020FD
:102580000F4810B50D4901604FF482714160002180
:102590008160C1604FF400720161C0E90512C16140
:1025A0000162416281620A21C162FFF76DF9002870
:1025B00003D0BDE81040FEF733BB10BD003C004027
:1025C000F80400201CB500240E4800940C49019426
:1025D00001605421C0E901144FF47A718461C16033
:1025E000FFF74CFB08B1FEF71BFB0094694605485A
:1025F0000194FFF722FB002801D0FEF711FB1CBD60
:1026000000100040500500200C4810B50A49016038
:102610004FF461214160002181600C22C160C0E95A
:1026200004128161C161FFF7D1FC002803D0BDE82D
:102630001040FEF7F5BA10BD0010014090050020D3
:102640000C4810B50A4901604FF4E13141600021A6
:1026500081600C22C160C0E904128161C161FFF791
:10266000B5FC002803D0BDE81040FEF7D9BA10BD74
:1026700000440040D00500200C4810B50A49016014
:102680004FF4E1314160002181600C22C160C0E95A
:1026900004128161C161FFF799FC002803D0BDE8F5
:1026A0001040FEF7BDBA10BD0048004010060020E3
:1026B0000C4810B50A4901604FF4E1314160002136
:1026C00081600C22C160C0E904128161C161FFF721
:1026D0007DFC002803D0BDE81040FEF7A1BA10BD74
:1026E0000014014050060020FEE7704770470000CC
:1026F0000148FFF74BB80000480400200148FFF7ED
:1027000045B80000A00400200148FFF73FB80000D2
:10271000F804002010B5806B0021C187C186FFF747
:1027200034F810BD38B504461248134B0068B0FBAE
:10273000F3F04FF47A73584300906068B0F5827FED
:102740000DD10B46009200228021204600F0AAF90C
:1027500070B1606D40F020006065032038BD0098C6
:1027600030B1401E009020688068C0430006F6D556
:10277000002038BD1000002000366E012DE9F04128
:10278000134F14460D460646002210213846FEF728
:102790000EFC032000F044F9C6F3074000F040F9B6
:1027A000C6F3072000F03CF9F0B200F039F904E07C
:1027B000FF2000F035F905F8010B641EA4B2F7D232
:1027C0003846BDE8F04101221021FEF7F0BB0000C1
:1027D000000002402DE9F04706460F4610F0FF00CA
:1027E000C0F10001CDB24FEA122402F0FF094FF40C
:1027F000807A13D0F0B24042C0B206EB00080CB3AE
:10280000501B80B2040A00F0FF092A4631463846C0
:1028100000F056F83D44464657462AE06CB155460E
:10282000641EE4B20CD32A463146384600F048F81C
:1028300006F5807607F58077F2E73146384621E0E5
:102840004A46FAE7A945F8D9A9EB0500C4B22A46D9
:102850003146384600F034F841467819224611E0F6
:102860003A463146284600F02BF805F5807506F506
:102870008076641EE4B2F3D2B9F1000006D00246BD
:1028800031462846BDE8F04700F01AB8BDE8F087A9
:1028900010B500F0F3F8094C002210212046FEF795
:1028A00086FBC72000F0BCF8012210212046FEF76D
:1028B0007EFBBDE8104000F0C9B8000000000240F7
:1028C0002DE9F04114460D46064600F0D7F8144FA6
:1028D000002210213846FEF76AFB022000F0A0F823
:1028E000C5F3074000F09CF8C5F3072000F098F806
:1028F000E8B200F095F8B4F5807F04D9FF24307871
:1029000000F08EF8761C641EA4B2F8D201221021C9
:102910003846FEF74CFBBDE8F04100F097B80000E8
:102920000000024070B50E4D002210212846FEF72F
:102930003EFBAB2000F074F8FF2000F071F8FF20A0
:1029400000F06EF8FF2000F06BF8FF2000F068F850
:102950000446012210212846FEF729FB204670BDBF
:10296000000002402DE9F0410F4E002210213046B8
:10297000FEF71DFB9F2000F053F8FF2000F050F8F9
:102980000546FF2000F04CF80446FF2000F048F810
:102990000746012210213046FEF709FB280440EAD1
:1029A00004203843BDE8F0810000024070B50446C1
:1029B00000F064F800F04AF80E4D0022102128467D
:1029C000FEF7F5FA202000F02BF8C4F3074000F0E2
:1029D00027F8C4F3072000F023F8E0B200F020F855
:1029E000012210212846FEF7E2FABDE8704000F00F
:1029F0002DB800000000024070B50E4604460025C8
:102A000008E02046FFF7D2FF04A004F5805400F050
:102A100065FC6D1CB542F4D370BD00002A000000B7
:102A20000EB501238DF808006FF07F40009001AAD9
:102A300002A90548FFF70EF810B1FF208DF8040039
:102A40009DF804000EBD0000844A002010B50A4C19
:102A5000002210212046FEF7AAFA0520FFF7E0FF2A
:102A6000FF20FFF7DDFFC007FAD120460122BDE8B5
:102A700010401021FEF79BBA0000024010B5084C30
:102A8000002210212046FEF792FA0620FFF7C8FF29
:102A900020460122BDE810401021FEF788BA000050
:102AA000000002402DE9F0411D4617460E4604463F
:102AB000DDF8188008E0681C06D0FEF77DFAA0EB70
:102AC0000800A8420BD255B12068806836EA0000A1
:102AD00030D00020B842EED10020BDE8F08120685F
:102AE000416821F0E00141606068B0F5827F0BD160
:102AF000A068B0F5004F02D0B0F5806F04D1206817
:102B0000016821F040010160A06AB0F5005F09D1C1
:102B10002068016821F4005101602068016841F4D7
:102B200000510160012084F85100002084F8500019
:102B30000320D2E70120CDE7012003F0E5FBFBE70E
:102B400010B5502080F31188BFF34F8FBFF36F8F04
:102B500004F004FF18B104494FF0805008600020D1
:102B600080F3118810BD000004ED00E030B593B093
:102B700030216846FDF7D4FB14210CA8FDF7D0FBEB
:102B80001B480025016841F080510160006800F099
:102B9000805011901748016841F48041016000683D
:102BA000022400F480401190092000904FF48030FE
:102BB00001900120CDE905048005079004200890CC
:102BC000A820CDE9090407200B906846FEF7E6FB34
:102BD0000CA90F2081E831004FF4A0500F90E002C3
:102BE000109005210CA8FEF7D1FA13B030BD0000FB
:102BF00040380240007000401048016841F4700104
:102C000001600F48016841F0010101600C4A002198
:102C10000832116002680B4B1A400260031D0A4A19
:102C20001A60026822F48022026005480C300160BC
:102C300002495806803908607047000088ED00E0BE
:102C400000380240FFFFF6FE103000240148FFF775
:102C500061B80000500500200148FFF75BB8000094
:102C600090060020F0B50268254C264D264E274FD1
:102C7000274B4FF0804CA04209D0604507D0A842B6
:102C800005D0B04203D0B84201D0984204D122F01E
:102C9000700E4A6842EA0E02A0421BD0604519D06D
:102CA000A84217D0B04215D0B84213D0984211D0E4
:102CB000184DA8420ED0184DA8420BD0174DA8426F
:102CC00008D0174DA84205D0164DA84202D0164D87
:102CD000A84203D122F44075CA682A434D6922F004
:102CE00080022A4302608A68C2620A688262A04245
:102CF00001D0984201D10969016301214161F0BD10
:102D0000000001400004004000080040000C0040AA
:102D100000040140004001400044014000480140DF
:102D200000180040001C0040002000403EB5074A4B
:102D30000749C8208DE8070006486423002204687C
:102D400011460548A047054908703EBDED5D0008E5
:102D50000D5E000814010020DC4A0020A4010020C0
:102D60000146034A0148526800781047A401002038
:102D7000140100203EB5074A0749C8208DE8070026
:102D8000064864230022046811460548A047054907
:102D900048703EBDFD5D00081D5E00081401002066
:102DA000044B0020A40100200146034A0148526858
:102DB00040781047A40100201401002010B5806B5A
:102DC0000021C185C184FFF778F810BD0168CA6889
:102DD00022F49072CA6001684A6922F001024A61D5
:102DE000202180F83A10704710B590F83A10222947
:102DF00001D0022010BD8168B1F5805F11D001695A
:102E0000002901681FD0496801F07F03816A4A1CCC
:102E100082620B70C18D491E0904090CC18518D04E
:102E20002BE00269816A002A0268526805D0D2B29A
:102E30000A80816A491C8162ECE7C2F308020A80B9
:102E4000816A891CF7E74A68816A4B1C83620A70B1
:102E5000E0E70168CA6822F02002CA600168CA6817
:102E600022F48072CA6001684A6922F001024A6154
:102E7000202180F83A10FFF7AFF9002010BD0000C4
:102E80002DE9F041044600680169E26821F44051EF
:102E9000114301612169A068E26908436169114336
:102EA00022680843D16849F20C6399430143D16019
:102EB00020684169A26921F4407111434161E269CE
:102EC0006425B2F5004F9748974922684FF03208C1
:102ED0003FD08A4201D082427CD1FEF71FFA00EB3C
:102EE000C00101EB001061688900B0FBF1F6FEF74C
:102EF00015FA00EBC00101EB001061688900B0FB1E
:102F0000F1F0B0FBF5F06FF01801484306EB8001DB
:102F100008EB0110B0FBF5F000F0F006FEF7FEF94B
:102F200000EBC00101EB001061688900B0FBF1F01B
:102F3000B0FBF5F006EB0016FEF7F0F900EBC00170
:102F400001EB001061688900B0FBF1F7FEF7E6F9CC
:102F5000D2E08A4201D082423DD1FEF7DFF900EB98
:102F6000C00101EB001061684900B0FBF1F0B0FB5B
:102F7000F5F00601FEF7D2F900EBC00101EB0010FD
:102F800061684900B0FBF1F7FEF7C8F900EBC0013A
:102F900001EB001061684900B0FBF1F0B0FBF5F007
:102FA0006FF01801484307EB800108EBC100B0FB4C
:102FB000F5F000F0F80006EB4006FEF7AFF900EB85
:102FC000C00101EB001061684900B0FBF1F7FEF7AA
:102FD000A5F93CE055E0FEF791F900EBC00101EBEB
:102FE000001061684900B0FBF1F0B0FBF5F006019C
:102FF000FEF784F900EBC00101EB001061684900A5
:10300000B0FBF1F7FEF77AF900EBC00101EB00101D
:1030100061684900B0FBF1F0B0FBF5F06FF018010A
:10302000484307EB800108EBC100B0FBF5F000F06E
:10303000F80006EB4006FEF761F900EBC00101EB7A
:10304000001061684900B0FBF1F7FEF757F900EB9B
:10305000C00101EB001061684900B0FBF1F0B0FB6A
:10306000F5F06FF01801484307EB800108EBC10051
:10307000B0FBF5F000F00700216830448860BDE83F
:10308000F081FEF73BF900EBC00101EB0010616835
:103090008900B0FBF1F6FEF731F900EBC00101EB5E
:1030A000001061688900B0FBF1F0B0FBF5F06FF043
:1030B0001801484306EB800108EB0110B0FBF5F066
:1030C00000F0F006FEF71AF900EBC00101EB00106A
:1030D00061688900B0FBF1F0B0FBF5F006EB00167B
:1030E000FEF70CF900EBC00101EB001061688900EC
:1030F000B0FBF1F7FEF702F900EBC00101EB0010A5
:1031000061688900B0FBF1F0B0FBF5F06FF01801D9
:10311000484307EB800108EB0110B0FBF5F000F02D
:103120000F00A9E7001401400010014090F8391089
:10313000212901D0022070478168B1F5805F016AC2
:103140000BD04A1C0262026809785160C18C491E8A
:103150000904090CC1840ED017E009880268C1F384
:103160000801516001690029016A02D0491C01620D
:10317000ECE7891CFBE70168CA6822F08002CA609C
:103180000068C16841F04001C160002070472DE92E
:10319000F041984617460E460446069D1DE0681C01
:1031A0001BD02DB1FDF708FFA0EB0800A84214D9F1
:1031B0002068C16821F4D071C1602068416921F0A4
:1031C00001014161202084F8390084F83A00002090
:1031D00084F838000320BDE8F0812068006836EAF2
:1031E000000004D00020B842D9D00020F3E701202D
:1031F000F9E700000148FEF761BE000090050020DD
:103200000148FEF75BBE0000D00500200148FEF734
:1032100055BE0000100600200148FEF74FBE00001A
:1032200050060020FEE7000070B5362219491A4802
:10323000FDF75DF8174CE08E174DE886A16BA5F100
:103240000C004164A18FA0F84810E08FE88711229C
:1032500004F1400105F14000FDF749F894F85100F0
:1032600085F85100606D6865FFF75CFB05466420DA
:10327000FDF7AEFDFFF776FB044601462A4607A0A0
:1032800000F02CF81448844201D1002070BD0120C8
:1032900070BD000048040020844A00205732345199
:1032A00036342020466C61736849442069732030AD
:1032B0007825582C20204D616E7566616374757297
:1032C00065722044657669636549442069732030DE
:1032D0007825580D0A0000001740EF000FB4054B89
:1032E00010B503A9044A029800F042F910BC5DF839
:1032F00014FB000095590008D40100200FB41CB540
:103300000246002007AC00290BD0491ECDE9002160
:10331000054B6A462146069800F02AF9009A0021DA
:1033200011701CBC5DF814FB9F3C00080FB4084BE7
:1033300010B504A902AA039800F01AF9044602A9DC
:10334000002000F0B7FC204610BC5DF814FB000024
:10335000B53C00087CB5044600201D4616460029F1
:103360000BD0491ECDE90041044B6A462946304640
:1033700000F0FEF8009A002111707CBD9F3C00080F
:1033800037B514460846064B6A46214600F0F0F869
:1033900004466946002000F08DFC20463EBD00003A
:1033A000B53C00080907090E002804DB00F1E02005
:1033B00080F80014704700F00F0000F1E02080F862
:1033C000141D704700487047E001002002E008C863
:1033D000121F08C1002AFAD170477047002001E08F
:1033E00001C1121F002AFBD1704700002DE9FF5FC9
:1033F00082B00021DDE90430020DDDF840B0034366
:1034000018D044F61050A2F2FF324243151411981E
:1034100001281FD0A5EB0B00401C5FEA000A4FF00B
:1034200000064E4FDFF83891B046504615D5CAF128
:10343000000413E0119801244AA3012801D16FEA86
:103440000B010298119AC0E90031C0E9024206B0AE
:10345000BDE8F09FCBF10000DFE704460021404AC1
:10346000491842EB0450CDE9001012E0E00707D004
:1034700032463B4640464946FDF75BF88046894662
:1034800032463B4610461946FDF753F806460F46AE
:103490006410002CEAD1DDE90401DDE90023BAF172
:1034A000000F06DAFDF745F842464B46FDF741F8B6
:1034B00005E0FDF7DFF942464B46FDF7DBF9044630
:1034C0000E460022284BFDF7D3F803D84FF0FF300B
:1034D000014607E00022254B20463146FCF782FFDB
:1034E000FDF737FA102409E0002C0ADB0A2200233A
:1034F000FCF7C6FE039B30321A55641E50EA0102E7
:10350000F2D1641C039AC4F111031444119A012AE4
:1035100003D0012208430DD10AE0084304D0002063
:103520004FF0110B119072E7A3EB0B056D1E0DE030
:103530005B4504DD4FF0000205F1010504E003DA0C
:103540004FF00002A5F10105002AECD00298119974
:10355000C0E90231C0E9004579E7000000001440ED
:103560000000F03F300000000000F0430000E03FAA
:103570002DE9FF4F95B09B468946064600250FE290
:10358000252877D100242746F84A0121059400E038
:10359000044316F8013F203B01FA03F01042F7D133
:1035A00030782A2811D06FF02F033078A0F1300244
:1035B000092A16D8059A44F0020402EB820203EBB2
:1035C00042021044761C0590EFE759F8042B05924F
:1035D000002A03DA504244F40054059044F00204F7
:1035E000761C30782E2816D116F8010F44F004040A
:1035F0002A280DD06FF02F023078A0F13003092B6C
:1036000009D807EB870302EB4303C718761CF3E7DF
:1036100059F8047B761C30786C280FD006DC4C28D7
:1036200017D068280DD06A2814D104E0742810D06F
:103630007A280FD10DE044F400140AE044F4801419
:1036400001E044F440147278824202D104F58014FF
:10365000761C761C307866280BD013DC582877D07F
:1036600009DC002875D04528F6D04628F4D0472834
:103670001AD19DE118E0632835D0642879D06528F7
:1036800012D195E1702873D008DC6728F1D0692841
:103690006FD06E280DD06F2806D1B5E073282CD0DE
:1036A000752875D0782874D05A46179990476D1CA4
:1036B00075E1C4F30250022809D003280DD0D9F8CF
:1036C000001004280DD00D6009F1040967E1D9F854
:1036D0000010EA17C1E90052F6E7D9F800100D8092
:1036E000F2E70D70F0E719F8041B8DF800100020C8
:1036F0008DF80100EA46012003E059F804AB4FF0D1
:10370000FF3061074FF0000102D40DE008F1010124
:103710008846B9420FDA8045F8DB1AF8081000290C
:10372000F4D108E008F1010188468142FADB1AF879
:1037300008100029F6D105985B46A0EB0807214642
:103740003846179A00F094FA284400EB080507E081
:103750004DE029E10DE01AF8010B5A461799904700
:10376000B8F10108F7D25B4621463846179A13E1B3
:1037700042E00A220092C4F302524FF0000A022AE9
:1037800008D059F804CB032A4FEAEC710AD00DE0B7
:1037900029E02AE009F1070121F00702F2E802C15D
:1037A000914609E00FFA8CFC4FEAEC71042A03D130
:1037B0004FFA8CFC4FEAEC71002907DA0A46002127
:1037C000DCF1000C61EB02012D2202E0220504D5A0
:1037D0002B228DF80420012203E0E20701D02022F1
:1037E000F7E7904659E00A2102E010220DE010218F
:1037F0004FF0000A00910BE010224FF0000A44F055
:1038000004040827009203E008224FF0000A009207
:10381000C4F30252022A05D059F804CB0021032A2E
:1038200008D009E009F1070121F00702F2E802C11E
:10383000914605E01FFA8CFC042A01D10CF0FF0C24
:103840004FF00008220728D5702806D0009B83F08F
:10385000100353EA0A0305D00EE040228DF804203D
:10386000012208E05CEA010206D030228DF8042033
:103870008DF8050002229046009B83F0080353EA6E
:103880000A030AD15CEA010201D1620705D53022A0
:103890008DF804204FF001087F1E582804D034A072
:1038A00003900EA802900DE036A0F9E7534660465B
:1038B000009AFCF7E5FC84460398825C0298401E5F
:1038C000029002705CEA0100F0D1029806A9081A81
:1038D00000F1200A600702D524F4803400E00127BB
:1038E000574502DDA7EB0A0000E0002000EB0A01CB
:1038F000009005984144401A0590E00306D45B46C9
:103900002146179A059800F0B3F90544002706E010
:1039100001A85A46C05D179990476D1C7F1C47450A
:10392000F6DBE0030CD55B462146179A059800F0BC
:103930009FF9054404E030205A46179990476D1CC2
:103940000099481E00900029F5DC08E002980299D1
:103950005A460078491C0291179990476D1CBAF19C
:103960000001AAF1010AF1DC65E10000092801006B
:1039700030313233343536373839616263646566E5
:1039800000000000303132333435363738394142A7
:10399000434445460000000000F058F90544761CF9
:1039A000307800287FF4ECAD19B02846BDE8F08FE0
:1039B000620700D4062709F1070222F0070CFCE891
:1039C0000223E14603F000485FEA080C02D00FF240
:1039D000702C0DE05FEA045C02D50FF2682C07E062
:1039E0005FEAC47C02D00FF2602C01E0AFF2700CF1
:1039F0004FF0FF3823F00043CDF850C065280CD0BD
:103A000006DC452809D046281DD047283DD13DE099
:103A1000662818D067287ED138E00021112F01DBFD
:103A2000112000E0781CCDE9000106A90EA8FFF7DF
:103A3000DDFCDDE90F010E9A03910021009207F1F0
:103A4000010A04914DE04FF000400097CDE90110CC
:103A500006A90EA8FFF7CAFCDDE90F0203920E9B30
:103A600011990022DDF80CA00093049211B9791C81
:103A700000EB010AB7EB0A0004D4C0F1FF3007F1F4
:103A8000010A0490AAEB0700019044E0012F00DA3C
:103A900001270021112F01DD112000E03846CDE97A
:103AA000000106A90EA8FFF7A1FCDDE90F010E9A9F
:103AB0000391002104910092BA4621070CD4039986
:103AC000514500DA8A46BAF1010F05DD009AAAF1E4
:103AD0000101515C302908D0B84202DA10F1040F1C
:103AE00006DA0121CDE9011015E0AAF10101E9E7AB
:103AF000002805DC049901440491AAEB000102E0CE
:103B0000411C514500DD8A460499401A401C019031
:103B10004FF000400290200704D40198504501DB8B
:103B2000CDF8048000208DF84F0002980DF14F076A
:103B3000B0F1004F25D02B200E9002984FF00208D4
:103B400000280CDA404202902D200E9007E00A2156
:103B50000298FCF7A5FD3031029007F8011DB8F17D
:103B60000001A8F10108F2DC02980028EFD1791ECB
:103B70000E980870307800F0200040F0450007F8FB
:103B8000020D12A8C01B00F107081498007800B1BC
:103B9000012000EB0A01019801EBE0710598414416
:103BA000401A401E0590E00306D45B462146179A52
:103BB000059800F05DF805441498007818B15A464D
:103BC000179990476D1CE00324D55B462146179A50
:103BD000059800F04DF805441CE00498002807DB28
:103BE000DDE90301884203DD0098405C179901E09C
:103BF000179930205A469047049805F10105401C5A
:103C000004900198401E019004D12E205A46179925
:103C100090476D1CBAF10001AAF1010ADDDC05E054
:103C200017F8010B5A46179990476D1CB8F100011F
:103C3000A8F10108F4DC5B462146179A0598ABE62B
:103C40002D0000002B000000200000002DE9F041B5
:103C5000044600251E461746880404D405E039466C
:103C60002020B0476D1C641EF9D52846BDE8F081C0
:103C70002DE9F041044600251E469046C80301D5B3
:103C8000302700E02027880404D505E04146384667
:103C9000B0476D1C641EF9D52846BDE8F0814A681E
:103CA000002A06D00A68531C0B6010704868401E3A
:103CB000486070470A68531C0B60107070472DE90C
:103CC000F84315460F4680460426FF2231466846D3
:103CD000FCF71FFB25F0030422463946404601F05D
:103CE000EBF82A1B00280BD1002A09D0E1196846FD
:103CF000FCF7FDFA04EB08003246694601F0DCF8F7
:103D0000BDE8F883F3B585B0064600214FF0FF30DB
:103D1000CDE902011948CDE9000104AB03AA0491E1
:103D2000304602F091FF164D0498012438B1CDE9D8
:103D3000005402AB06AA0221304602F085FF039828
:103D4000002817D00299491C14D1012802D80D4F20
:103D5000787840B1CDE9005402AB06AA0121304683
:103D600002F072FF06E008A240F2FF3111A000F05D
:103D7000D5FF7C70029807B0F0BD00009F6C000872
:103D8000F13D0008A8000020547269676765722041
:103D90006120474320636865636B206166746572C8
:103DA00020616C6C6F6320454E56206661696C65BE
:103DB000642E0A002E2E5C4D6964646C6577617216
:103DC00065735C54686972645F50617274795C45B4
:103DD000617379466C6173685C65617379666C6167
:103DE00073685C7372635C65665F656E762E6300F4
:103DF00003785BB1036909688B4207D9817801298F
:103E000006D0022902D10449497809B1002070473F
:103E10004069106001207047A80000202DE9F041A2
:103E20000E4607460A240D4D13E0A869804738B1B5
:103E30002A69314638469047E869BDE8F0410047B5
:103E40006623074A07A10FA0FFF748FA0A20FCF7EC
:103E5000BFFF641EE4B2E8D2BDE8F0818401002017
:103E6000168200082E2E5C474D4F4445535C475741
:103E700032345136345C67666C61736863746C2EDF
:103E8000630000001B5B313B33356D0D0A5748451D
:103E90004E205520534545204D45202C504159205A
:103EA000415454454E54494F4E3A257320202573B2
:103EB0002025640D0A1B5B306D00000070B50446C0
:103EC000406880470146E078420702D02288521CB1
:103ED0002280B1EBD01F0CD04FF0005202EBB0109B
:103EE0004FEAB060C0F3C202E070032A04D361F36A
:103EF000C71020F03800E070C0B200F007010025C4
:103F000006291ED2DFE801F0031E41811D98C0F38F
:103F10008011B1EBD01FA07820F0F0000FD1A0707D
:103F2000A16809B1204688472580A07820F00F00BD
:103F3000401CA070E07820F00700401C12E08030A8
:103F4000A07070BDC0F38011B1EBD01F0CD0A07871
:103F500020F0F0001030A070E168002966D0204603
:103F6000884763E0E07070BD2088C828FBD9A0783E
:103F700020F0F0005030A070E16909B12046884778
:103F8000E07820F00700401DECE7C0F38011B1EBB2
:103F9000D01F21D1A07820F0F000A070A16809B155
:103FA00020468847A0784FF0805101EB30104FEA4F
:103FB0003070A07000F00F00022803D1A16909B190
:103FC00020468847216909B1204688472580E07846
:103FD00020F00700C01CC5E720883C28C3D9A07882
:103FE00000F00F01012902D0022909D03AE020F0A7
:103FF000F0003030A070616932E02046884731E03F
:1040000020F0F0004030A0702CE0C0F38011B1EB44
:10401000D01FA8D0A07820F0F0001030A070E16888
:1040200009B12046884720883C281BD22580E078AB
:1040300020F00700801C95E7C0F38011B1EBD01F82
:10404000A07820F0F00008D16030A070216A00292B
:1040500089D02046BDE8704008471030A070E16864
:104060000029CAD1E07820F007007BE770B50D4643
:10407000164604462821FCF753F9A07820F0F000FA
:104080008030A0706560A8470146E07861F3C710F2
:1040900066F38610E07070BD074A11680B4605E0B4
:1040A000814202D14FF0FF307047496A0029F7D1B1
:1040B0004362106000207047040100200A4810B5D8
:1040C00041680A22491C91FBF2F302FB1311416083
:1040D000002907D1046803E02046FFF7EFFE646A79
:1040E000002CF9D110BD00000401002082680029D5
:1040F00001D01AB981607047020002D01068002810
:10410000FAD111604A60704770B514000D4606463A
:104110000ED0206A10B1074949688847284600F048
:10412000B5F8206221463046BDE87040FFF7DEBF9B
:1041300070BD0000F000002010B500F077F80028F6
:1041400001D00521C16010BD10B52DED028BB0EE80
:10415000408AF0EE608A00F069F8040008D003207D
:10416000E06084ED068B51EC180BFCF761FA60619E
:104170002046BDEC028B10BD10B500F057F80028AA
:1041800001D00621C16010BD70B5054600F04EF8A3
:10419000040005D00420E060284600F077F8206194
:1041A000204670BD70B504460F4E19E0A089256801
:1041B000C0050AD4A06820B1FFF7F4FFA089C005AC
:1041C00003D4206908B171688847A089800503D4A9
:1041D000206A08B1716888477168204688472C4674
:1041E000002CE3D170BD0000F0000020806801E0E9
:1041F0000068491E002801D00029F9DC7047816859
:10420000002001E00968401C0029FBD1704770B50F
:104210000D46846800E024682CB12946206A00F02D
:1042200013F80028F7D1204670BD0000054910B5ED
:10423000096828208847040002D02821FCF770F87C
:10424000204610BDF000002070B505000C4601D0DE
:104250000CB108E009B1012070BD002070BD00283C
:10426000FCD0641C6D1C2878FCF73BF806462078CF
:10427000FCF737F886422878F1D0FCF732F805468B
:104280002078FCF72EF8281A70BD000070B506469D
:10429000FCF76FF80649401C044609688847051E6C
:1042A00004D022463146FCF722F8284670BD0000B3
:1042B000F000002010B504464178007886B009B1BE
:1042C000032802D001281BD017E0A17804F11002C6
:1042D0000F4800F04BFD204601F048FE38B10D4A72
:1042E00040F28F610CA0A36800F018FD0EE019A247
:1042F00040F28D6108A000F011FD002006B010BD55
:10430000052306226946206B03F0E6F90120F5E754
:104310009C840008388500082E2E5C4D6964646C0E
:104320006577617265735C54686972645F5061722D
:1043300074795C45617379466C6173685C6561731F
:1043400079666C6173685C7372635C65665F656EE9
:10435000762E63005265636F7665727920746865A6
:1043600020454E56207375636365737366756C2EB6
:104370000A00000010B5017839B18078032804D113
:1043800003490120487001F073FB002010BD0000BC
:10439000A800002070B50446007860B90D460748B3
:1043A000616800F0E3FC28684FF0FF31401C286092
:1043B000606801F077FA002070BD000058840008A2
:1043C0002DE9F0438DB0064600208DF828001C46EC
:1043D00091460F4608467569FBF7CBFF202807D9A1
:1043E000202163A000F0C2FC04200DB0BDE8F083E2
:1043F000FF2228216846FBF78CFF68480590384665
:10440000FBF7B7FFC0B28DF82000C01C20F00301FD
:10441000E01C20F003000844283040F6DC710994C9
:104420000690884204D95EA000F0A0FC0620DCE7DC
:10443000681C06D13046069901F058FE0546401C1E
:104440007ED00AAA3046069902F092FF040078D185
:10445000FF208DF82C000822002008A900F04CFA5B
:1044600007909DF82020394600F046FA07909DF805
:104470002000C11C21F003010C1A05E001220BA948
:10448000079800F039FA0790641EF7D24946099A56
:10449000079800F031FA079009980999C01C20F09C
:1044A0000300441A05E001220BA9079800F024FA42
:1044B0000790641EF7D2E8460123062241462846AB
:1044C00003F00AF9040007D1142208F1140105F1E0
:1044D000140000F0F1FC0446002C47D19DF8202088
:1044E000394605F12800FFF7EAFB04469DF828004D
:1044F00070B99DF82000C01C20F0030041190998F4
:10450000C01C20F0030001442831706802F05EFFF7
:104510009DF820102A46384602F0D2FE002C25D104
:104520009DF820004946C01C20F003002844283094
:10453000099AFFF7C4FB040018D10223062201E008
:1045400013E013E06946284603F0C6F804000DD1D5
:104550009DF8280050B11AA240F22E5122A000F07E
:10456000DDFB30490120487000E0062420463CE78E
:104570004572726F723A2054686520454E56206E1F
:10458000616D65206C656E677468206973206D6F5E
:104590007265207468616E2025640A004B563430C1
:1045A0004572726F723A2054686520454E562073EA
:1045B000697A6520697320746F6F206269670A00E9
:1045C000547269676765722061204743206368659C
:1045D000636B2061667465722063726561746564E3
:1045E00020454E562E0A00002E2E5C4D6964646CE8
:1045F0006577617265735C54686972645F5061725B
:1046000074795C45617379466C6173685C6561734C
:1046100079666C6173685C7372635C65665F656E16
:10462000762E6300A8000020F0B593B015460C006C
:10463000074604D105A901F07EF868B105AC1F4E0C
:10464000206B9DB104230622694603F045F8F178FA
:104650000546294312D01AE03B4619A240F21941FF
:104660001DA000F05BFB042013B0F0BD0323062265
:10467000694603F031F80546012009E03846FBF7AA
:1046800078FE01464FF0FF32384602F019FE002056
:10469000F070206B040B24030C346DB904226946BE
:1046A000204602F07DFA012806D102230422694641
:1046B000204603F011F805462846D5E7A80000205B
:1046C0004E6F7420666F756E6420272573272069EE
:1046D0006E20454E562E0A002E2E5C4D6964646C89
:1046E0006577617265735C54686972645F5061726A
:1046F00074795C45617379466C6173685C6561735C
:1047000079666C6173685C7372635C65665F656E25
:10471000762E6300F0B50446007893B000283CD0B4
:10472000A078022801D0032837D16068032304222F
:104730000FA90C3002F0D0FF4FF0FF3605AD40F26C
:10474000AD470D9617E001A802F042F89DF805006C
:1047500088B19DF80400022801D003280BD101A8DC
:1047600001F004FC38B100959DF806300CA23946E2
:1047700016A000F0D3FA01A9204601F06BFA0D90C3
:10478000401CE0D13146606801F08CF81EA240F276
:10479000B2410EA0636800F0C1FA13B00020F0BD72
:1047A0004572726F723A204D6F7665642074686549
:1047B00020454E562028252E2A732920666F722008
:1047C0004743206661696C65642E0A002E2E5C4D9D
:1047D0006964646C6577617265735C54686972645E
:1047E0005F50617274795C45617379466C6173687E
:1047F0005C65617379666C6173685C7372635C6538
:10480000665F656E762E6300436F6C6C6563742023
:104810006120736563746F7220403078253038589A
:104820000A0000001CB500200090694601A800F0B5
:104830001DFBDDE9002104460AA0FEF74FFD2CB95F
:10484000DDE9001000F06AF8040008D014A116A0F9
:1048500000F08CFA1D4800F089FA20461CBD10A11A
:104860001BA0F5E71B5B313B33336D6465666175F7
:104870006C745F656E765F7365743D25702064654A
:104880006661756C745F656E765F7365745F73697E
:104890007A653D2025640D0A1B5B306D0000000029
:1048A000342E302E3939000045617379466C6173BE
:1048B000682056257320697320696E697469616C7C
:1048C000697A65206661696C2E0A00000C84000814
:1048D00045617379466C617368205625732069734E
:1048E00020696E697469616C697A652073756363A8
:1048F0006573732E0A00000010B5C043064B07E035
:1049000011F8014B4440E4B253F8244084EA1020EB
:10491000521EF5D2C04310BD4C7C0008F8B520B142
:104920001A4C22785AB10020F8BD1948009019A3FA
:104930001BA240F2D66122A000F0F0F9FEE70022AF
:104940002E4D531E45F83230521C042AFAD32B4DFB
:104950000022803D05EBC206521C7360102AF9D379
:1049600000226260C4E902104FF4804013460090B8
:1049700023A24FF4DE6112A000F0D0F900F070F92C
:104980000028D1D101212170F8BD0000A80000202D
:104990003D7C000864656661756C745F656E7600C9
:1049A00028257329206861732061737365727420F0
:1049B0006661696C65642061742025732E0A0000AD
:1049C0002E2E5C4D6964646C6577617265735C540E
:1049D000686972645F50617274795C45617379468D
:1049E0006C6173685C65617379666C6173685C7334
:1049F00072635C65665F656E762E63009448002086
:104A0000454E5620737461727420616464726573DC
:104A100073206973203078253038582C2073697AD8
:104A2000652069732025642062797465732E0A00FD
:104A30002DE9F041274C284888B0E168002641B1B3
:104A4000A16800290ED000F0B1F94FF0FF38656879
:104A500019E0009021A325A240F2D9512BA000F02B
:104A60005DF9FEE7009038A320A240F2DA5127A0BA
:104A700000F054F9FEE74146284600F013FF060017
:104A800022D105F58055606800F580408542F2D35B
:104A9000002516E0E06805EB450700EB870083681A
:104AA0001BB94068FBF765FC0346CDF81880E06849
:104AB00000EB87014A6850F8271001A8FFF780FC37
:104AC0006D1CA0688542E5D300F072F908B030464D
:104AD000BDE8F081A80000202A7C000864656661BA
:104AE000756C745F656E765F736574002825732935
:104AF0002068617320617373657274206661696CEC
:104B000065642061742025732E0A00002E2E5C4DF2
:104B10006964646C6577617265735C54686972641A
:104B20005F50617274795C45617379466C6173683A
:104B30005C65617379666C6173685C7372635C65F4
:104B4000665F656E762E630064656661756C745F82
:104B5000656E765F7365745F73697A650000000047
:104B600010B5002380220A4900F032F8041E08D054
:104B70000146074800F066F820B1054900200855B5
:104B8000084610BD03A000F0F1F8002010BD0000A1
:104B9000B44800205761726E696E673A20546865A8
:104BA00020454E562076616C75652069736E2774BA
:104BB00020737472696E672E20436F756C64206E6B
:104BC0006F742062652072657475726E65640A0088
:104BD000F0B5044613488FB01E46007815460F46C0
:104BE00078B100F0E3F820460024694600F0A3FD08
:104BF000A0B10EB1039830600398A84207D20446D2
:104C000006E009A000F0B2F800200FB0F0BD2C467D
:104C100027B1224639460D9800F044F900F0C8F853
:104C20002046F2E7A8000020454E562069736E2703
:104C30007420696E697469616C697A65204F4B2EC6
:104C40000A000000002206E0835C203B5F2B01D3BA
:104C500000207047521C8A42F6D3012070470000A2
:104C600070B5002698B0194C01201696A07018480F
:104C7000CDE900063546334616AA314610A801F0A4
:104C8000E3FF1698042804D112A000F06FF8FFF794
:104C9000CFFE00F08BF81F48CDE9000500231A462F
:104CA000194610A801F0D0FF00221B4B114602A8A4
:104CB00000F010FD607810B100F0DAFEF4E7A570A6
:104CC00000F076F818B0304670BD0000A800002053
:104CD000954300085761726E696E673A20416C6CAB
:104CE00020736563746F7220686561646572206308
:104CF0006865636B206661696C65642E205365741A
:104D000020697420746F2064656661756C742E0A66
:104D10000000000075430008B54200080FB40A46C1
:104D200010B5014605AC09A000F016F922460C4862
:104D30000499FEF725FB0A490AA000F00DF90AA024
:104D4000FEF7CCFA10BC5DF814FB00005B466C610A
:104D500073685D2825733A256C64292000000000E3
:104D600088490020257300000D0000000FB40AA040
:104D700010B503AC00F0F0F8224609480299FEF79E
:104D8000FFFA074907A000F0E7F807A0FEF7A6FA28
:104D900010BC5DF814FB00005B466C6173685D003D
:104DA00088490020257300000D00000072B670478E
:104DB00062B6704738B50A460024010508D0094894
:104DC000009009A310A26C2117A0FFF7A7FFFEE730
:104DD000110B120500D0491C234A12699047204646
:104DE00038BD000088800008616464722025204579
:104DF000465F45524153455F4D494E5F53495A45C1
:104E0000203D3D2030000000282573292068617373
:104E100020617373657274206661696C65642061DA
:104E2000742025732E0A00002E2E5C4D6964646C7C
:104E30006577617265735C54686972645F50617212
:104E400074795C45617379466C6173685C65617304
:104E500079666C6173685C706F72745C65665F70B4
:104E60006F72742E630000008401002010B5054AA3
:104E70000260052008600024114603A0FEF72EFA08
:104E8000204610BD4C8000081B5B313B33336D6402
:104E9000656661756C745F656E763D25700D0A1BE5
:104EA0005B306D00034B10B59B68002492B29847AD
:104EB000204610BD8401002038B50024930708D097
:104EC0000748009007A30BA28A2112A0FFF726FF34
:104ED000FEE7204B92B25B689847204638BD000041
:104EE0009680000873697A6520252034203D3D2096
:104EF00030000000282573292068617320617373D6
:104F0000657274206661696C656420617420257324
:104F10002E0A00002E2E5C4D6964646C6577617208
:104F200065735C54686972645F50617274795C4542
:104F3000617379466C6173685C65617379666C61F5
:104F400073685C706F72745C65665F706F72742EEC
:104F500063000000840100200FB410B503AA0548C7
:104F60000299FEF70DFA034903A0FEF7B7F910BC4A
:104F70005DF814FB8849002025730000002070476D
:104F800070B505460C460846FBF7F3F90246214684
:104F90002846BDE8704000F001B8000070B5064634
:104FA0000A4814460D46007858B1FFF7FFFE224626
:104FB0002946304601F084FE0446FFF7F9FE2046FC
:104FC00070BD03A0FFF7D2FE072070BDA80000202F
:104FD000454E562069736E277420696E6974696145
:104FE0006C697A65204F4B2E0A00000010B500F066
:104FF00005FA00280DD1012000F0C4F9054800246D
:10500000012100F84E4F44708170052000F028FA0D
:10501000204610BDC04700200FB42DE9F04F0646D2
:105020008BB08B460846FBF7A4F900240A94074688
:10503000A14609940594069407940894052E08D96E
:10504000A64840F28D120368002B7DD0A449A5A08C
:105050009847AB4D95F84C00002876D02878B042A0
:1050600073D3691C5846FBF766F900286DD00DF123
:10507000680A00F077F9A84695F85000A5F5806514
:1050800070B129469FA2204600F0BAFA0446934820
:1050900029191C3050F82620204600F0B1FA0444AB
:1050A0000121304600F084FD40B18C482919001DD3
:1050B00050F82620204600F0A3FA0444022130468E
:1050C00000F076FDC8B129195A46204600F098FA3A
:1050D00004440F2F0BD8C7F10F01202205A8FBF7BE
:1050E00018F9291905AA204600F08AFA044429195A
:1050F00085A2204600F084FA04441C21304600F0CA
:1051000057FD00284BD0291980A2204600F078FADC
:1051100004440421304600F04BFD90B100F066F9E4
:1051200002462919204600F06BFA04441821304643
:1051300000F03EFD28B1291973A2204600F060FA64
:1051400004440821304601E048E0C2E000F030FDB0
:1051500090B100F03DF902462919204600F050FABE
:1051600004441021304600F023FD28B1291966A21D
:10517000204600F045FA04441021304600F018FDA6
:1051800038B100F02DF902462919204600F038FA0E
:10519000044429195EA2204600F032FA0444E021BA
:1051A000304600F005FD00285FD0291959A220469D
:1051B00000F026FA04442021304600F0F9FC38B310
:1051C00029192046169A00F01BFA04444021304663
:1051D00000F0EEFC88B129194BA215E04048CDE95A
:1051E000030200923FA14CA3CDE901310346534A8B
:1051F00053A10020FFF710FFFEE78021304600F0AA
:10520000D7FC28B1291950A2204600F0F9F904442E
:105210004021304600F0CCFC80B129192046179A75
:1052200000F0EEF904448021304600F0C1FC28B1C2
:10523000291945A2204600F0E3F9044480213046B4
:1052400000F0B6FC58B141A2052109A8189BFEF751
:1052500055F8291909AA204600F0D2F90444291961
:105260003BA2204600F0CCF90444C4F58061281923
:105270005346199AFEF76EF804444FF48062944244
:1052800004D8002802DB601D904201D940F2FB34B3
:1052900098F82000464640B1194905F8049020319D
:1052A000A1F58460FBF747F888B196F8500028B163
:1052B000291928A2204600F0A3F90444291927A29D
:1052C000204600F09DF90119254800F099F800F0FA
:1052D0006FF80BB0BDE8F00F5DF814FB7400002010
:1052E000707B00086C6576656C203C3D20454C4F1A
:1052F000475F4C564C5F564552424F5345000000A5
:10530000C04700201B5B0000200000005B00000085
:105310005D200000280000002825732920686173A3
:1053200020617373657274206661696C65642061C5
:10533000742025733A256C642E0000000483000855
:10534000656C6F67000000003A000000256C640087
:10535000290000001B5B306D000000000A00000007
:10536000C043002070B5064C012594F84D0020B1D3
:1053700000F04EF884F84F5070BD84F84E5070BD68
:10538000C04700200949002881F84D000DD007488A
:1053900091F84F1090F84E0019B1002805D100F097
:1053A00039B8002801D000F033B87047C04700205A
:1053B00070B5064C002594F84D0020B100F02AF895
:1053C00084F84F5070BD84F84E5070BDC047002027
:1053D00000A070477069643A313030380000000036
:1053E00000A070477469643A3234000000A070472E
:1053F00031303A30383A3132000000000020704736
:10540000024601A0FDF76ABF252E2A7300000000A6
:1054100072B6704762B670470FB40F4810B590F877
:105420004C00002814D003ACFFF79CFF23464FF438
:10543000806421460948029AFDF78CFFA04201D8FA
:10544000014600E021460548FFF7DAFFFFF7B0FF0D
:1054500010BC5DF814FB0000C0470020C0430020D2
:1054600010B586B00446052807D90D484FF48B7255
:10547000036833B10B490CA098471248047006B07A
:1054800010BD0848CDE90302009207A10EA3CDE9A3
:1054900001310346154A16A10020FFF7BDFDFEE7C6
:1054A000740000205C7B00086C6576656C203C3DD8
:1054B00020454C4F475F4C564C5F564552424F5328
:1054C00045000000C047002028257329206861732B
:1054D00020617373657274206661696C6564206114
:1054E000742025733A256C642E00000004830008A4
:1054F000656C6F670000000030B585B00D4604464E
:10550000052806D90E4803684BB1FC220D490EA0B0
:105510009847144800EB8400456305B030BD0AA2EB
:105520000292FC200749CDE903100FA3CDE9000347
:105530000B46164A16A10020FFF76EFDFEE700009D
:10554000740000203F7B00086C6576656C203C3D54
:1055500020454C4F475F4C564C5F564552424F5387
:1055600045000000C047002028257329206861738A
:1055700020617373657274206661696C6564206173
:10558000742025733A256C642E0000000483000803
:10559000656C6F67000000000EB50849012008A285
:1055A00081F84C0008A1CA208DE80700104B114A71
:1055B00011A10320FFF730FD0EBD0000C047002001
:1055C000322E312E39390000456173794C6F67678F
:1055D00065722056257320697320696E697469614C
:1055E0006C697A6520737563636573732E000000C0
:1055F0001C7B000804830008656C6F6700000000D6
:105600002DE9F043DFF88C90DFF88C8085B00D0039
:1056100006461446174606D1D8F800302BB12C2286
:1056200049461EA098477CB115E01CA202922C208E
:10563000CDE903901AA3CDE90003164B214A22A11C
:105640000020FFF7E9FCFEE7D8F800307BB12D22FF
:1056500010491FA098474FF480622078B0B13146BE
:10566000761C914212D205F8010B641CF5E718A2D2
:1056700002922D20CDE9039009A3CDE90003054B4B
:10568000104A11A10020FFF7C7FCFEE705B0E01BA0
:10569000BDE8F083A87B00087400002064737400E8
:1056A00028257329206861732061737365727420E3
:1056B0006661696C65642061742025733A256C64A9
:1056C0002E00000078830008656C6F670000000002
:1056D000737263002DE9F04186B04FF0FF361D462E
:1056E00017468846044601961DE00022694601F0EF
:1056F0003DF9C0B9BDB19DF80100022801D00328D1
:1057000011D1266308E0204601F062F83A4641468E
:105710002046A84700280BD12146684600F09AFA97
:105720002063401CEFD1684600F0BCFA411CDCD17C
:1057300006B0BDE8F0812DE9F0410C460746FAF7C6
:1057400018FE0646014604F13002384600F0F4F92E
:1057500028B1204601F03CF80120BDE8F081214647
:10576000384600F025F8050004D031463846226B53
:1057700001F0A6FD2846F0E770B504460E46154632
:105780000846FAF7F6FDC2B2A078904200D9024668
:10579000607840B12078022805D1314604F110002C
:1057A000FAF704FE08B1002070BD0120287070BD1A
:1057B00038B50C4600218DF800100146034B6A46AF
:1057C0002046FFF787FF9DF8000038BD7957000895
:1057D0002DE9F04389B00E46044605466FF30B00F1
:1057E00008A900F079FA4FF0FF3968B308988442AD
:1057F0002CD029E0202269462046FFF753FB0020E9
:105800006B46134F1CE000BF191813F800C091F845
:1058100001800CEB082C91F80280C9784FEA084807
:1058200008EB01616144B94207D1143AAA4204D39A
:105830002044143809B0BDE8F083401C1C2802D273
:105840002218B242E0D31C34B442D3D34846F1E725
:105850004B56343070B504460E490FA0FDF73EFD9F
:105860000F480178A14301702646002410F1040579
:1058700004EB440015F82010B14205D105EB80007F
:1058800081684068FEF7CAFA641CE4B2082CEFD3C2
:1058900070BD00002582000825730D0A000000007D
:1058A0001C01002070B504468AB00E46000509D0E0
:1058B0001948009019A31FA240F2873125A0FFF7D5
:1058C0002DFAFEE74FF480512046FFF773FA0500EA
:1058D0001ED1FF22242101A8FAF71BFD0122042179
:1058E00001A801F037FA0122042104A801F032FADC
:1058F0002748CDE90706681E0990242201A9204601
:10590000FFF7DAFA054604F58051204601F05EFD06
:105910000AB0284670BD00001C7C000861646472F7
:10592000202520534543544F525F53495A45203D4B
:105930003D2030002825732920686173206173732E
:10594000657274206661696C6564206174202573DA
:105950002E0A00002E2E5C4D6964646C65776172BE
:1059600065735C54686972645F50617274795C45F8
:10597000617379466C6173685C65617379666C61AB
:1059800073685C7372635C65665F656E762E630038
:105990004546343013B582B00D208DF800000298D2
:1059A0004FF6FF740A2805D12346012269460648AE
:1059B000FCF762FC2346012202A90348FCF75CFCC9
:1059C000029804B010BD00009005002010B500281A
:1059D00021D0114B0022001F196803E0814203D837
:1059E0000A4649680029F9D152B11368841A9C42C9
:1059F00004D1006818441060104602E0506000E0D6
:105A0000186039B102680B1A934203D10B681A442B
:105A100002604968416010BDD80100200A46014675
:105A200001A0FDF75BBC00001B5B313B33336D57BE
:105A3000726F6E6720706172616D6574657273203C
:105A400076616C75653A2066696C65202573206FF8
:105A50006E206C696E652025640D0A1B5B306D003D
:105A6000007810B10868401C0860002070470000F2
:105A700010B58AB000241148CDE90004234608AAD5
:105A80000121089402A801F0DFF8012000900CA287
:105A900040F2C64117A0089BFFF740F9089801287B
:105AA00008D82348CDE9000400231A46194602A865
:105AB00001F0CAF81F4844700AB010BD615A0008CE
:105AC0005468652072656D61696E20656D707479CA
:105AD00020736563746F722069732025642C2047DE
:105AE00043207468726573686F6C64206973202545
:105AF000642E0A002E2E5C4D6964646C65776172B9
:105B000065735C54686972645F50617274795C4556
:105B1000617379466C6173685C65617379666C6109
:105B200073685C7372635C65665F656E762E630096
:105B300015470008A80000202DE9F0479046894647
:105B40000A468246014688B00020FEF7D5FE070CC3
:105B5000164D002405EBC4067068411C0ED035F8C4
:105B60003410B9420AD1202269462830FFF79AF949
:105B70004A4669465046FAF719FC30B1641C102CAD
:105B8000E8D3002008B0BDE8F08705EBC400416809
:105B9000C8F8001070884FF6EF71884202D34FF6B4
:105BA000FF7000E0103070800120EBE71448002007
:105BB00030B585B00D460446052807D90F4840F298
:105BC0002B2203685BB10E490EA09847144800EBE6
:105BD0008400406B284000D0012005B030BD08484B
:105BE000CDE90302009207A10EA3CDE901310346DE
:105BF000154A16A10020FFF70FFAFEE774000020F7
:105C00007C7B00086C6576656C203C3D20454C4FE4
:105C1000475F4C564C5F564552424F53450000007B
:105C2000C0470020282573292068617320617373A1
:105C3000657274206661696C6564206174202573E7
:105C40003A256C642E00000004830008656C6F67C1
:105C50000000000070B5054640780C464FF0FF3656
:105C600001281CD0206B411C09D0696801F58052C5
:105C7000904214D862782AB1A268104403E06868A0
:105C8000243070BD001D01F6DC71FFF7A1FD6968CD
:105C900001F58051814202D3A1680029F1D130463B
:105CA00070BD00000B49024640684968431C0CD097
:105CB000D268531C0BD000EB023000BF01F58041CD
:105CC000884201D34FF0FF3070470846704700F517
:105CD0008050F3E7A800002010B5094B002200BF58
:105CE00053F83240844206D119B103EBC200406838
:105CF0000860012010BD521C042AF1D3002010BD01
:105D000094480020002210B5491E0B4605E04C01C6
:105D100000EBD404247814B1521C491EF7D2981A0F
:105D200010BD00002DE9F04180462548016838206B
:105D30008847040002D03821FAF7F2FA21A1404640
:105D4000FEF765FA08B1007D207000251EA14046CF
:105D5000FEF75DFA07000ED0FEF751FA064608E09E
:105D600029463846FEF742FA18B16119007D0874D9
:105D70006D1CB542F4D316A14046FEF748FA20B197
:105D8000016904F11800FAF708FB13A14046FEF779
:105D90003EFA18B190ED060B84ED020B04F12205DA
:105DA0000FA14046FEF733FA09A1FEF730FA18B109
:105DB00001692846FAF7F1FA2046BDE8F0810000B3
:105DC000FC0000206964000073636F7265000000CE
:105DD0006E616D650000000077656967687400009A
:105DE000686F6D65746F776E00000000012211030B
:105DF0000148FBF7DCB80000000802400122042142
:105E00000148FBF7D4B80000000C024000224FF418
:105E100080510148FBF7CBB8000802400022042162
:105E20000148FBF7C4B80000000C0240FBF7D2F8B1
:105E3000FCF79CFEFCF79AFAFCF74AFBFCF75AFBCE
:105E4000FCF77CFBFCF79CFBFCF7BCFBFCF7DCFBEA
:105E5000FCF7F6FBFCF710FCFCF72AFCFAF722FF34
:105E60000A48FBF745FF01F007F801F051F901F08E
:105E7000DDF807480068804701F058F901F042F862
:105E8000FCF760FA00F047FAFEE70000500500203A
:105E90008401002001460020842900D0C81C7047DE
:105EA000F0B50B30154D20F007010024144A0FE027
:105EB00003688B420BD38B4205D95E1A431847689F
:105EC000C3E9006700E04368136002C004E0021DFC
:105ED00010680028ECD12046002802D1286808B1BB
:105EE0000020F0BD064A07481060074A121A22F047
:105EF0000702C0E9002401202860D7E7DC01002068
:105F0000D8010020344B0020305B002070B50C4DD0
:105F10002878002813D029780AA0FDF7DFF901249A
:105F2000287834EA000006D121460DA0FDF7D6F905
:105F30002046FFF78FFC600010F0FF04F0D170BD29
:105F40001C0100201B5B303B33316D67666C617355
:105F5000682E666C61673D25640D0A1B5B306D0021
:105F60004249543D253032580D0A00002DE9F047D2
:105F700004460078A6B04FF0000A022804D100229F
:105F800021461046FEF750FB03A8A168FDF7BAFEB4
:105F90000646401C14D0394804F11009817899B1A3
:105FA00024210EA8FAF7BCF9A27849460EA8FAF700
:105FB000D4F917A90EA8FFF7FBFB002856D103E080
:105FC000062026B0BDE8F087A16800220D4603A890
:105FD00001F0CEF90123062209A9304601F07CFB2D
:105FE000A5F11407002519E005F12000B84201D2FF
:105FF000202000E0781B8046C01C20F00302216BAB
:1060000005F1140008440EA9FEF74CFF7019424632
:106010000EA91430FEF750FF82464544BD42E3D33B
:106020000223062209A9304601F056FBA078C01CC5
:1060300020F003008119E068C01C20F00300014437
:10604000300B0003283101F0C1F9A17832464846EF
:1060500001F036F9206BCDF80090CDE90106A37868
:1060600007A240F2724112A0FEF758FE012221461B
:106070000020FEF7D9FA5046A3E70000A800002050
:106080004D6F7665642074686520454E562028253E
:106090002E2A73292066726F6D203078253038588B
:1060A00020746F203078253038582E0A0000000008
:1060B0002E2E5C4D6964646C6577617265735C5407
:1060C000686972645F50617274795C456173794686
:1060D0006C6173685C65617379666C6173685C732D
:1060E00072635C65665F656E762E63002DE9F04134
:1060F0000E4D0F468046002440F282463946404607
:10610000FDF700FE411C0ED1697800290BD0002C50
:1061100009D13B46064A314606A0FEF7FFFDFFF7D0
:10612000A7FC0124EAE7BDE8F0810000A8000020F8
:10613000E88400082E2E5C4D6964646C657761729A
:1061400065735C54686972645F50617274795C4510
:10615000617379466C6173685C65617379666C61C3
:1061600073685C7372635C65665F656E762E630050
:1061700070B50D4D6C68002C15D0002614F110047C
:10618000A4F11000417849B14168491C416082681E
:10619000914203D34660C06800B1804768682468B4
:1061A00010308442ECD170BDB801002070B50025DC
:1061B000456042700F4A044615786D1C15700570D5
:1061C000C0E902135168103071B151F8142FA523A2
:1061D00041F80409C0E900121060074A07A111A0A4
:1061E000FDF77CF8207870BD546000604060A0230B
:1061F000F3E70000B80100203B8200082E2E5C4728
:1062000053444B5C6773646B5F696E7465726E6157
:106210006C5C4774696D65725C6774696D65722E3C
:10622000630000000D0A48455245202573202025B3
:10623000732025640D0A000010B5044601460BA02A
:10624000FDF74CF81548426810321046A2F11003D1
:106250001978A14205D10120587000205860012012
:1062600010BD12688242F1D1002010BD3D3D3D3D80
:106270006F6E63655F74696D65725F73746172746C
:106280002066696E64206E6F64652868616E646C58
:10629000653A256429203D3D3D3D0A00B8010020B6
:1062A00010B5044601460BA0FDF718F815484268E2
:1062B00010321046A2F110031978A14204D1002037
:1062C00058705860012010BD12688242F2D100203F
:1062D00010BD00003D3D3D3D206F6E63655F7469FC
:1062E0006D65725F73746F702066696E64206E6F87
:1062F00064652868616E646C653A256429203D3DBB
:106300003D3D0A00B801002010B500B9012001F0A0
:1063100051F9002010BD10B501F072F9002010BD38
:106320007FB50D4604464169B0F9080081B1A16905
:1063300071B1FFF7AFFDD4E905128DE80700D4E98C
:1063400000102B46226901F0DEFA039004B070BD04
:10635000FFF7A0FD03A9CDE90001208A2B4682B2F8
:10636000D4E9001001F0A2FA012801D00020EDE7E5
:106370000398EBE72DE9F041184C0F460546666996
:106380002068001D01F052F838B9206890F82C10F0
:1063900001208840A1698143A161681C07D137B100
:1063A0002168BDE8F0410E48091D01F083B820685E
:1063B0003544B5424560216805D2A068BDE8F0418A
:1063C000091D01F05FB86068091D01F05BF8206BE2
:1063D000854200D22563BDE8F08100001400002052
:1063E000AC0700202DE9F041054601F06FF82E4C76
:1063F0002069401C206120682C4F10B1E06940B337
:106400002DE025602069012829D1002606EB8600B1
:1064100007EB800001F028F8761C072EF6D32348FE
:106420008C3001F021F82148A03001F01DF81F4800
:10643000B43001F019F81D48C83001F015F81B48B8
:10644000DC3001F011F819488C3060601430A06025
:1064500005E02068E96AC06A884200D82560E06AE1
:10646000401CE062E96A0120A26988401043A061F3
:1064700001EB810007EB8000291D01F01BF801F002
:1064800045F8E06900280CD02068E96AC06A8842B3
:1064900007D207494FF080500860BFF34F8FBFF31A
:1064A0006F8FBDE8F081000014000020D0060020AE
:1064B00004ED00E010B5044690F8510058B10128F1
:1064C0000CD002280FD0502080F31188BFF34F8FDB
:1064D000BFF36F8FFEE7206B01F02CF82046BDE87C
:1064E000104001F027B810BD10484FF4705142071A
:1064F00006D0C01D0D4920F00700411AC1F57051AA
:106500000B4A00230144C2E900030839103A21F084
:10651000070111604B600B600B1AC0E90013936018
:106520004FF000405360D06070470000C00700206B
:1065300060000020144E154CA6F1C8074FF080589B
:10654000DFF84C9012E000BF00F0C0FFF068C568B3
:10655000281D00F06BFF2069401E2061E068401E8E
:10656000E06000F0D3FF2846FFF7A4FFE0680028B2
:10657000EAD138680128F9D9C9F80080BFF34F8FF4
:10658000BFF36F8FF2E7000098070020140000208F
:1065900004ED00E02DE9F0479A46DDE909848146E3
:1065A0006FF00303206B03EB82021044089D20F080
:1065B0000706700707D0502080F31188BFF34F8F74
:1065C000BFF36F8FFEE723180A5C83F834200A5C60
:1065D00012B1401C1028F6D3002784F84370072D11
:1065E00000D30625E562C4E91157201D00F047FFDE
:1065F00004F1180000F043FF2461C5F10700646254
:10660000A061E76484F8507052464946304600F075
:10661000C1F82060B8F1000F01D0C8F80040BDE813
:10662000F087000030B5114900E011460A68824247
:10663000FBD34B685C18844203D14068184448601F
:10664000084643681C18944209D1084C103C246841
:10665000A24209D052681A4442600A681268026075
:10666000814200D0086030BD0460F9E7600000207E
:1066700006484168096829B14168C968C96849681C
:10668000016370474FF0FF31FAE70000140000206B
:1066900008484068401C4FF0500080F3118804D037
:1066A000BFF34F8FBFF36F8FFEE7BFF34F8FBFF383
:1066B0006F8FFEE768000020FFF76CB92DE9F0410D
:1066C0000546002700F0D2FF314E306808B9FFF7C9
:1066D0000BFFF06805424BD1C5B3083568070ED0F3
:1066E00005F00700C0F108000544680707D05020F6
:1066F00080F31188BFF34F8FBFF36F8FFEE72DB389
:106700007068854234D82248103001460C6801E098
:1067100020460C466168A94202D221680029F7D1BF
:1067200031688C4224D007682168016060680837AE
:10673000411B10290FD96019420708D0502080F35F
:106740001188BFF34F8FBFF36F8FFEE710E04160FA
:106750006560FFF767FF61687068401A7060B26833
:10676000904200D2B060F06801430020C4E900010B
:1067700001F058F9780707D0502080F31188BFF353
:106780004F8FBFF36F8FFEE73846BDE8F081000002
:106790005000002010B5031F4FF080741C601B1FB9
:1067A00021F001011960191F044B0B6014390A60B4
:1067B000091F6FF0020244380A6010BD916600089C
:1067C0004FF480710148FAF7EDBB00000000024071
:1067D0002DE9F04794B004464FF00008C146006B25
:1067E000282201A9FEF75EFB062101A8FFF78AFA1D
:1067F000C0B22070079DA560691CC24604D0B5F5E3
:10680000804F01D8202D18D22821A16005280ED054
:106810000520207030A240F23A213BA0236BFEF706
:106820007DFA0523062201A9206B00F055FF84F8AC
:1068300001A0022014B0BDE8F087A5F6DD7043F298
:106840002301884209D23F4800903FA33FA240F273
:1068500041212DA0FEF762FAFEE70026203D15E05B
:1068600006F12000A84201D2202700E0AF1BF91C4E
:1068700021F00302216B08440BA9FEF713FB3A46F3
:106880000BA94046FEF738F880463E44AE42E7D3B7
:106890000899414504D084F801A04FF0020919E09D
:1068A000012060709DF82400256BC01C20F00302BD
:1068B000283504F110012846FEF7F4FA9DF824006B
:1068C000C01C20F00300284460630A98E0609DF833
:1068D0002400A0704846ADE74572726F723A2054AA
:1068E000686520454E562040307825303858206C59
:1068F000656E6774682068617320616E20657272CE
:106900006F722E0A000000002E2E5C4D6964646CCC
:106910006577617265735C54686972645F50617217
:1069200074795C45617379466C6173685C65617309
:1069300079666C6173685C7372635C65665F656ED3
:10694000762E6300FD7B00083000000028257329A7
:106950002068617320617373657274206661696C6D
:1069600065642061742025732E0A00002DE9F04F24
:106970000C46064601055D48A7B017464FF0000AD1
:1069800008D000905AA360A24FF41A7166A0FEF7D7
:10699000C5F9FEE7A4B124220CA93046FEF782FA1D
:1069A000666012986F4900254FF0FF38A06088425A
:1069B0000FD025700720C4F80C8027B0BDE8F08FF9
:1069C000009069A350A240F2692157A0FEF7A6F9F2
:1069D000FEE7012020701398E06004210CA8FFF767
:1069E00091F9607004210FA8FFF78CF9A070002FB7
:1069F00079D02561606840F6DC772430606160788A
:106A0000012802D0022802D06DE027616BE004F17A
:106A100014013046FFF760F930B161686069401ACF
:106A2000C0F5805020615EE02761CDF884801BE0D6
:106A300015A8FFF7CDFE9DF8550068B99DF85400E4
:106A4000012809D0052807D049A02199FEF78EF921
:106A50004FF0020A25610EE06069179908446061F1
:106A600020691799401A206115A92046FFF7F2F80E
:106A70002190401CDCD1656966680027A94606F5AF
:106A800080561BE005F1200BB34501D2202000E029
:106A9000701B8046024604A92846FEF703FA002030
:106AA00004A908E0FF2F04D00A5CFF2A01D105EBFE
:106AB00000090F5C401C4045F4D35D46B542E1D36C
:106AC000FF2F03D109F1030020F003066069B042F3
:106AD00005D066616068301AC0F580502061616938
:106AE000606800F073FC504667E70000067C000811
:106AF00061646472202520534543544F525F5349CB
:106B00005A45203D3D2030002825732920686173B7
:106B100020617373657274206661696C65642061BD
:106B2000742025732E0A00002E2E5C4D6964646C5F
:106B30006577617265735C54686972645F506172F5
:106B400074795C45617379466C6173685C656173E7
:106B500079666C6173685C7372635C65665F656EB1
:106B6000762E630045463430736563746F7200009F
:106B70004572726F723A2054686520454E5620283F
:106B8000403078253038582920435243333220632F
:106B90006865636B206661696C6564210A000000AA
:106BA00038B514460D000DD06FF0180101EB4411FB
:106BB000CA082946FEF776F921462846BDE838403E
:106BC000FFF7A0B80448009004A308A24FF4A371F3
:106BD0000EA0FEF7A3F8FEE7F17B00087374617462
:106BE00075735F7461626C6500000000282573296D
:106BF0002068617320617373657274206661696CCB
:106C000065642061742025732E0A00002E2E5C4DD1
:106C10006964646C6577617265735C5468697264F9
:106C20005F50617274795C45617379466C61736819
:106C30005C65617379666C6173685C7372635C65D3
:106C4000665F656E762E63002DE9F0470446DDE948
:106C500008674FF0FF30984691460D46606015E09A
:106C6000002221465046FFF781FE15B16078A84208
:106C70000CD127B13A4621465046FFF777FE2EB198
:106C8000424649462046B047002806D12046FFF735
:106C900009F88246B0F1FF3FE2D1BDE8F087037802
:106CA00063B14078012802D0022804D006E00868C9
:106CB000401C086002E01068401C10600020704713
:106CC0002DE9F04115460F0080461FD01F4CF9F703
:106CD00050FBC01C20F00301E81C20F0030001441D
:106CE00020462831FFF702FA401C15D0A4F13801E4
:106CF0004046FEF720FD060011D00022A4F1380125
:106D00004046FDF791FC040009D018E00122002163
:106D1000FDF78AFC044617E00620BDE8F0812B460B
:106D20003A4641460948FDF74BFB04463EB134B9AB
:106D30000649012238394046FDF776FC04460448EE
:106D4000407808B1FEF794FE2046E6E7704900203F
:106D5000A800002070B506466FF0180000EB411047
:106D60001546C1084FF0FF34FF223046F9F7D1FA3B
:106D70001DB1AC000020241F3055204670BD00001E
:106D800010B5064C207801284FF0000004D1F9F727
:106D900048FF00202070012010BD0000800100206D
:106DA0000149012008707047800100202DE9F04161
:106DB0000446FDF7E1F906462078F9F72CFC41EC92
:106DC000100BFDF7C1F9024621A13046FDF79CF9F1
:106DD00094ED020BFDF7B8F902461EA13046FDF70F
:106DE00093F90025FDF7A8F9070013D060196D1C71
:106DF000007CF9F710FC41EC100BFDF7A5F90146FA
:106E00003846FDF773F9082DF0D33A4613A1304602
:106E1000FDF77AF904F11800FDF7B6F9024611A161
:106E20003046FDF771F92234FDF7A6F9050004D0CC
:106E300002460EA13046FDF767F92046FDF7A4F99A
:106E4000024608A12846FDF75FF93046BDE8F0810B
:106E500069640000776569676874000073636F7226
:106E6000650000006E616D6500000000686F6D6573
:106E7000746F776E0000000010B50FA0FCF72EFABB
:106E8000002217491748FDF7F1F8164816498160A6
:106E900001461648C8600846154901611549416117
:106EA0000146154888611548C86115480862BDE863
:106EB00010400846FDF7F0B848454C4C4F2053743D
:106EC000617274627574746F6E54657374203C2DB6
:106ED0002D3E205441534B200D0A0D0A00000000A6
:106EE000C1670008084A00203D0B0008AD0B0008F0
:106EF000750B0008ED0B0008A50A0008050B00083B
:106F0000D50A00083EB5FDF78DFC00282AD176236E
:106F1000154A16A125A0FCF7E1F900200090019088
:106F2000029030A0FDF71CFE0446014630A0FCF79D
:106F3000D5F91CB97F210DA0FEF770FD2046F9F7A9
:106F400044FA401C044601462FA0FCF7C7F922462C
:106F500035A16846FCF7EAF9694622A0FEF710F869
:106F6000FEF70CF83EBD0000D57B00082E2E5C4DD0
:106F70006964646C6577617265735C546869726496
:106F80005F50617274795C45617379466C617368B6
:106F90005C65617379666C6173685C7372635C6570
:106FA000617379666C6173682E6300001B5B313B13
:106FB00033356D0D0A5748454E2055205345452021
:106FC0004D45202C50415920415454454E54494F71
:106FD0004E3A2573202025732025640D0A1B5B3053
:106FE0006D000000626F6F745F74696D65730000FF
:106FF000635F6F6C645F626F6F745F74696D6573FC
:107000003D25730A0D000000546865207379737480
:10701000656D206E6F7720626F6F74202564207419
:10702000696D65730A0D0000256400001CB5FDF74D
:10703000DDFFFF210020FEF75FFA07210120FEF7A8
:107040005BFA07210220FEF757FA07210320FEF71B
:1070500053FAA7210420FEF74FFAA7210520FEF7D7
:107060004BFAFEF799FA20A11920CDE90001234B34
:10707000234A24A10020FDF7CFFF1BA11A20CDE950
:1070800000011E4B1E4A1FA10120FDF7C5FF16A1DE
:107090001B20CDE90001194B194A1AA10220FDF766
:1070A000BBFF11A11C20CDE90001144B144A15A10E
:1070B0000320FDF7B1FF0CA11D20CDE900010F4B0E
:1070C0000F4A10A10420FDF7A7FF07A11E20CDE95C
:1070D00000010A4B0A4A0BA10520FDF79DFFBDE800
:1070E0001C4001A0FEF798B948656C6C6F204561A3
:1070F00073794C6F6767657221000000CB7B0008D5
:10710000C48300086C6F676765725F746573740091
:1071100010B5054C20688047A0688047E168BDE84D
:107120001040052008470000A801002070B50D4858
:10713000FFF73CFE0546FEF7F5FD04460146382202
:107140000848F9F71DF908B107A000E00BA0FCF70B
:10715000C5F82846FDF726F80C48426820469047B7
:10716000002070BDB8000020436F6E7665727465B4
:1071700064206661696C6564210A0000436F6E7665
:107180006572746564204F4B210A0000FC000020EA
:107190002DE9F041144E7568002D23D000272035CD
:1071A000A5F120046078C0B1E068411CE16021696C
:1071B000884201D2A06900E0E06900B18047D4E9CB
:1071C00004010844E168884207D2E760A068401CD7
:1071D000A0606168884200D3677070682D682030B5
:1071E0008542DDD1BDE8F0810C0100202DE9F041A0
:1071F000DDE90765069F040020D06260002204F1EB
:107200000C00A26080E88C00C4E906650F4A61703A
:107210001178491C117021705168143081B151F8F6
:10722000202F1F235060C0E900210860084A09A1EF
:1072300010A0FCF753F82078BDE8F0810020FBE7B0
:107240005460006040601A23F0E700000C01002049
:10725000768100082E2E5C474D4F4445535C4774A1
:1072600077696E6B6C655C677477696E6B6C652EA5
:10727000630000000D0A4845524520257320202553
:10728000732025640D0A000030B50C4A53686BB1B9
:1072900020331C46A3F120021578854208D1002036
:1072A000C2E90110D0600120507004E0002030BD20
:1072B0001B68A342EED1012030BD00000C0100206C
:1072C0002DE9F04116460A461024014625460020C5
:1072D000FDF712FB020C002124484FF6FF738C4689
:1072E000771C30F8317021D0974204D100EBC100F7
:1072F0004660BDE8F08100EBC107D7F804E0BEF1BD
:10730000FF3F0FD0B7F802E0BEF1000F03D0AEF19F
:10731000010EA7F802E01FFA8EF79F4210D20D4629
:107320003B460DE0102C0BD10C4609E0974207D1EB
:1073300000EBC1004FF0FF324260A0F802C0D8E776
:10734000491C1029CCD3102C05D200EBC4014E608F
:1073500020F8342006E0102DCBD200EBC5014E60A2
:1073600020F83520A1F802C0C3E70000144800202F
:10737000FEB50446407800261546012802D00228B2
:1073800008D020E0022304226946606800F0A4F9D6
:10739000064618E02069482802D3401A48280FD230
:1073A000032304226946606800F096F90646606887
:1073B00000F5805100F00AF82DB10120287002E09C
:1073C0000DB1002010703046FEBD000070B50424E1
:1073D000154B002200F58055814210D9A9420ED2EA
:1073E00053F83260864204D143F8320003EBC20006
:1073F00017E0761C0CD1042C0AD1144608E053F88F
:107400003260864204D14FF0FF3043F8320070BD45
:10741000521C042AE0D3042CF9D243F8340003EBC5
:10742000C400416070BD000094480020D0E90132E2
:1074300001699A60D0E901235A604A68824201D109
:1074400082684A60002202610868401E086008687D
:1074500070470000034B036003F154000860802074
:1074600010607047E401002000F108014FF0FF3286
:10747000C0E90112C1600161002101607047002173
:107480000161704730B50B685A1C02D000F1080248
:1074900002E0026904E02246546825689D42FAD958
:1074A00053684B6099608A60516008610168491CAB
:1074B000016030BD42684A6093688B609368596090
:1074C000916008610168491C01607047502080F399
:1074D0001188BFF34F8FBFF36F8F0A494868401C74
:1074E000486001280CD10848006810F0FF0F07D051
:1074F000502080F31188BFF34F8FBFF36F8FFEE7EB
:10750000704700006800002004ED00E0084948686A
:1075100028B1401E486001D180F311887047502087
:1075200080F31188BFF34F8FBFF36F8FFEE700002A
:107530006800002070B5002827D0144DA0F1080481
:107540006168E868014207D1502080F31188BFF3D9
:107550004F8FBFF36F8FFEE722683AB1502080F360
:107560001188BFF34F8FBFF36F8FFEE781436160D8
:1075700000F07CF860686968084468602046FFF79E
:1075800051F8BDE8704000F04DBA70BD50000020C9
:107590004FF0E02000210161816105494FF47A72CA
:1075A0000968B1FBF2F1491E416107210161704791
:1075B0001000002010B5020014D00F48806B38B1C5
:1075C000502080F31188BFF34F8FBFF36F8FFEE71A
:1075D00000F04CF800211046FEF7CCFE00F022FA35
:1075E000002807D105494FF080500860BFF34F8F46
:1075F000BFF36F8F10BD00001400002004ED00E009
:1076000010B586B00024039405AA04A903A8049425
:10761000FFF720FFDDE903010094CDE9011000230D
:107620000EA11048059A00F06EF90F490028486332
:1076300011D0502080F31188BFF34F8FBFF36F8FAD
:107640004FF0FF3008630120C8614C6106B0BDE80F
:10765000104000F0B1B806B010BD000049444C45E0
:107660000000000035650008140000200248816B0E
:10767000491C816370470000140000201448816B8E
:1076800011B1012141627047002141628169B1FA63
:1076900081F1C1F11F0101EB81020E4951F8223045
:1076A0006BB101EB820101F108034A6852684A603C
:1076B0009A4201D152684A60D168016070475020F7
:1076C00080F31188BFF34F8FBFF36F8FFEE7000089
:1076D00014000020D0060020F8B5054616461348D1
:1076E0000C46B34208D3009011A318A240F22F1108
:1076F0001EA0FDF713FBFEE76CB11A46314620468B
:10770000FFF728FB411C0FD021182844BDE8F840A2
:107710000422FDF7D1BB009023A30CA24FF4987173
:1077200012A0FDF7FBFAFEE70020F8BDE47B00089D
:107730007374617475735F696E646578203C20733F
:1077400074617475735F6E756D0000002825732970
:107750002068617320617373657274206661696C5F
:1077600065642061742025732E0A00002E2E5C4D66
:107770006964646C6577617265735C54686972648E
:107780005F50617274795C45617379466C617368AE
:107790005C65617379666C6173685C7372635C6568
:1077A000665F656E762E63007374617475735F74C3
:1077B00061626C65000000001CB537480168374AFB
:1077C000914207D1502080F31188BFF34F8FBFF350
:1077D0006F8FFEE700683149491E884207D150206B
:1077E00080F31188BFF34F8FBFF36F8FFEE72C49F3
:1077F00008780190FF20087008788DF800009DF847
:1078000000009DF8002000F0F000904207D05020CA
:1078100080F31188BFF34F8FBFF36F8FFEE79DF8A2
:107820000000204B00F0500018700720986005E021
:107830009DF8002052008DF80020401E9DF8002089
:107840001206F5D49860032807D0502080F31188E1
:10785000BFF34F8FBFF36F8FFEE74FF44070986018
:10786000019808700C482030016841F470010160F3
:10787000016841F070410160FFF78AFE0020586006
:10788000F8F7B0FC0848016841F040410160F8F7A2
:1078900095FC00201CBD000000ED00E071C20F410E
:1078A00000E400E06800002034EF00E02DE9FF5F15
:1078B0008346DDE90E87994616468A469000FEF714
:1078C000FDFE05001CD05420FEF7F8FE040014D085
:1078D0000020256384F85100CDE90240CDE90087FE
:1078E0004B46324651465846FEF754FE2046FEF7B8
:1078F00079FD012004B0BDE8F09F2846FFF71AFE8D
:107900004FF0FF30F6E7F0B585B0DDE90B640A9D76
:10791000A6B1DCB1542700972663022684F8516093
:10792000002604AFCDE90246CDE90057FEF732FE4E
:107930002046FEF757FD049805B0F0BD502080F3B7
:107940001188BFF34F8FBFF36F8FFEE7502080F396
:107950001188BFF34F8FBFF36F8FFEE72DE9F04122
:107960002E4C0027A06B40B1206A401C2062606A48
:1079700000B101273846BDE8F0816669761C666172
:1079800013D16068006838B1502080F31188BFF3CC
:107990004F8FBFF36F8FFEE76068A1686160A060E2
:1079A000A06A401CA062FEF763FE206BDFF87080C7
:1079B000864209D36068006880B16068C068C568A5
:1079C000686886420DD220632068C06A00EB80019F
:1079D00058F821000128CAD90127C8E74FF0FF3025
:1079E000F1E7281DFFF722FDA86A18B105F118007C
:1079F000FFF71CFDE86A0121A26981401143A161E2
:107A000000EB800108EB8100291DFFF753FDE86AB8
:107A10002168C96A8842CDD30127CBE71400002032
:107A2000D00600202DE9F0472C4D00242746A86BF6
:107A300038B1FFF74BFDA86B401EA863A86B40B19F
:107A400046E0502080F31188BFF34F8FBFF36F8F54
:107A5000FEE72969224E0120D1B3A6F1B409804680
:107A60003068E8B1F068C46804F11800FFF7DEFC84
:107A7000201DFFF7DBFCE06AAA6908FA00F1114358
:107A8000A96100EB800109EB8100211DFFF712FDC8
:107A9000E06A2968C96A8842E2D3C5F82480DFE732
:107AA0000CB1FEF7E5FD2C6A44B14646FFF756FFE0
:107AB00000B16E62641EF9D100202862686A38B194
:107AC0000849012738070860BFF34F8FBFF36F8F56
:107AD000FFF71CFD3846BDE8F087000014000020C9
:107AE0008407002004ED00E0E0820008392B000844
:107AF0000000000000000000800000000000000006
:107B0000000000000000000000000000010203046B
:107B1000060708090000000001020304656C6F6796
:107B20005F737461727400656C6F675F7365745F17
:107B30006F75747075745F656E61626C6564006505
:107B40006C6F675F7365745F666D7400656C6F67FB
:107B50005F7365745F66696C74657200656C6F67EE
:107B60005F7365745F66696C7465725F6C766C00D8
:107B7000656C6F675F6F7574707574006765745FAF
:107B8000666D745F656E61626C656400656C6F67DD
:107B90005F66696E645F6C766C00656C6F675F66CC
:107BA000696E645F74616700656C6F675F737472A0
:107BB00063707900656C6F675F6370796C6E0065E8
:107BC0006C6F675F6D656D63707900746573745F6A
:107BD000656C6F6700746573745F65617379666C5B
:107BE0006173680077726974655F7374617475732B
:107BF00000726561645F73746174757300726561AE
:107C0000645F656E7600726561645F736563746F4F
:107C1000725F6D6574615F6461746100666F726D3F
:107C200061745F736563746F720065665F656E761D
:107C30005F7365745F64656661756C740065665F2B
:107C4000656E765F696E69740000000000000000D8
:107C5000963007772C610EEEBA51099919C46D0759
:107C60008FF46A7035A563E9A395649E3288DB0EB4
:107C7000A4B8DC791EE9D5E088D9D2972B4CB60997
:107C8000BD7CB17E072DB8E7911DBF906410B71D74
:107C9000F220B06A4871B9F3DE41BE847DD4DA1AAD
:107CA000EBE4DD6D51B5D4F4C785D38356986C13DE
:107CB000C0A86B647AF962FDECC9658A4F5C011457
:107CC000D96C0663633D0FFAF50D088DC8206E3B35
:107CD0005E10694CE44160D5727167A2D1E4033C47
:107CE00047D4044BFD850DD26BB50AA5FAA8B5356E
:107CF0006C98B242D6C9BBDB40F9BCACE36CD8325D
:107D0000755CDF45CF0DD6DC593DD1ABAC30D92603
:107D10003A00DE518051D7C81661D0BFB5F4B42106
:107D200023C4B3569995BACF0FA5BDB89EB8022803
:107D30000888055FB2D90CC624E90BB1877C6F2F88
:107D4000114C6858AB1D61C13D2D66B69041DC7683
:107D50000671DB01BC20D2982A10D5EF8985B1715C
:107D60001FB5B606A5E4BF9F33D4B8E8A2C907780B
:107D700034F9000F8EA8099618980EE1BB0D6A7FA2
:107D80002D3D6D08976C6491015C63E6F4516B6B5B
:107D900062616C1CD83065854E0062F2ED95066C10
:107DA0007BA5011BC1F4088257C40FF5C6D9B06585
:107DB00050E9B712EAB8BE8B7C88B9FCDF1DDD62E2
:107DC000492DDA15F37CD38C654CD4FB5861B24D48
:107DD000CE51B53A7400BCA3E230BBD441A5DF4A12
:107DE000D795D83D6DC4D1A4FBF4D6D36AE96943D5
:107DF000FCD96E34468867ADD0B860DA732D044480
:107E0000E51D03335F4C0AAAC97C0DDD3C710550AA
:107E1000AA41022710100BBE86200CC925B5685751
:107E2000B3856F2009D466B99FE461CE0EF9DE5E9A
:107E300098C9D9292298D0B0B4A8D7C7173DB3594B
:107E4000810DB42E3B5CBDB7AD6CBAC02083B8EDDC
:107E5000B6B3BF9A0CE2B6039AD2B1743947D5EAE9
:107E6000AF77D29D1526DB048316DC73120B63E318
:107E7000843B64943E6A6D0DA85A6A7A0BCF0EE477
:107E80009DFF099327AE000AB19E077D44930FF032
:107E9000D2A3088768F2011EFEC206695D5762F729
:107EA000CB67658071366C19E7066B6E761BD4FE66
:107EB000E02BD3895A7ADA10CC4ADD676FDFB9F943
:107EC000F9EFBE8E43BEB717D58EB060E8A3D6D605
:107ED0007E93D1A1C4C2D83852F2DF4FF167BBD133
:107EE0006757BCA6DD06B53F4B36B248DA2B0DD836
:107EF0004C1B0AAFF64A0336607A0441C3EF60DFD9
:107F000055DF67A8EF8E6E3179BE69468CB361CBC1
:107F10001A8366BCA0D26F2536E2685295770CCCE6
:107F200003470BBBB91602222F260555BE3BBAC527
:107F3000280BBDB2925AB42B046AB35CA7FFD7C218
:107F400031CFD0B58B9ED92C1DAEDE5BB0C2649B09
:107F500026F263EC9CA36A750A936D02A906099C3C
:107F60003F360EEB8567077213570005824ABF95AF
:107F7000147AB8E2AE2BB17B381BB60C9B8ED29232
:107F80000DBED5E5B7EFDC7C21DFDB0BD4D2D38689
:107F900042E2D4F1F8B3DD686E83DA1FCD16BE81FC
:107FA0005B26B9F6E177B06F7747B718E65A0888CD
:107FB000706A0FFFCA3B06665C0B0111FF9E658F5E
:107FC00069AE62F8D3FF6B6145CF6C1678E20AA008
:107FD000EED20DD75483044EC2B30339612667A78E
:107FE000F71660D04D476949DB776E3E4A6AD1AEDD
:107FF000DC5AD6D9660BDF40F03BD83753AEBCA96C
:10800000C59EBBDE7FCFB247E9FFB5301CF2BDBDD8
:108010008AC2BACA3093B353A6A3B4240536D0BAE1
:108020009306D7CD2957DE54BF67D9232E7A66B37E
:10803000B84A61C4021B685D942B6F2A37BE0BB42B
:10804000A18E0CC31BDF055A8DEF022DB0850008F1
:1080500088850008000000009C85000888850008CD
:1080600000000000C48500088885000800000000AA
:10807000908500088C85000800000000D885000865
:10808000888500080000000065665F706F72745F8D
:1080900065726173650065665F706F72745F777299
:1080A0006974650078563412785634127856341252
:1080B00078563412475F6D6375526573657400427C
:1080C000544E315F50524553535F444F574E5F48B3
:1080D000616E646C65720042544E315F505245537C
:1080E000535F55505F48616E646C65720042544E38
:1080F000315F50524553535F5245504541545F489C
:10810000616E646C65720042544E315F53494E4754
:108110004C455F436C69636B5F48616E646C65726C
:108120000042544E315F444F55424C455F436C69A9
:10813000636B5F48616E646C65720042544E315FE0
:108140004C4F4E475F52524553535F535441525424
:108150005F48616E646C65720042544E315F4C4FF3
:108160004E475F50524553535F484F4C445F486100
:108170006E646C6572007477696E6B6C65725F72A9
:108180006567697374007365745F666C6173685FBB
:10819000636C6561727031007365745F666C6173E6
:1081A000685F636C6561727032007365745F666CE2
:1081B0006173685F636C6561727033007365745FCF
:1081C000666C6173685F636C6561727034007365BF
:1081D000745F666C6173685F636C656172703500B3
:1081E0007365745F666C6173685F636C6561727000
:1081F00036007365745F666C6173685F636C65619C
:10820000727037007365745F666C6173685F636C6E
:1082100065617270380062617365666C6173686372
:108220006C65617200666C6173685F636C65617236
:108230005F6269745F636C656172006F6E63655F36
:1082400074696D65725F72656769737465720074D5
:10825000696D657270616C79320000404040404049
:108260004040404041414141414040404040404009
:108270004040404040404040404040050202020231
:108280000202020202020202020202202020202038
:1082900020202020200202020202020290909090F0
:1082A00090901010101010101010101010101010CE
:1082B0001010101010100202020202028888888832
:1082C000888808080808080808080808080808082E
:1082D0000808080808080202020240005B82000841
:1082E00064656661756C745461736B00412F0000A6
:1082F000442F0000452F0000492F0000562F00009A
:10830000572F00002E2E5C4D6964646C6577617296
:1083100065735C54686972645F50617274795C451E
:108320006173794C6F676765722D6D6173746572E7
:108330005C656173796C6F676765725C7372635CAF
:10834000656C6F672E63000033313B32326D000085
:1083500033323B32326D000033333B32326D00003A
:1083600033343B32326D000033353B32326D000026
:1083700033363B32326D00002E2E5C4D6964646CE6
:108380006577617265735C54686972645F5061728D
:1083900074795C456173794C6F676765722D6D61A7
:1083A000737465725C656173796C6F676765725C25
:1083B0007372635C656C6F675F7574696C732E6351
:1083C000000000002E2E5C4D6964646C657761725C
:1083D00065735C54686972645F50617274795C455E
:1083E0006173794C6F676765722D6D617374657227
:1083F0005C656173796C6F676765725C7372635CEF
:10840000746573745F656C6F672E6300596F7520B8
:1084100063616E2067657420746865206C617465A3
:1084200073742076657273696F6E206F6E20687446
:108430007470733A2F2F6769746875622E636F6D5D
:108440002F61726D696E6B2F45617379466C617334
:1084500068202E0A000000005761726E696E673A4C
:1084600020536563746F7220686561646572206370
:108470006865636B206661696C65642E20466F7267
:108480006D6174207468697320736563746F722002
:1084900028307825303878292E0A0000466F756E0E
:1084A0006420616E20454E562028252E2A732920EF
:1084B000776869636820686173206368616E6765C7
:1084C000642076616C7565206661696C65642E2038
:1084D0004E6F772077696C6C207265636F7665727A
:1084E000792069742E0A00005761726E696E673ACE
:1084F00020416C6C6F6320616E20454E56202873BE
:10850000697A6520256429206661696C6564207735
:1085100068656E206E657720454E562E204E6F772B
:108520002077696C6C204743207468656E20726503
:108530007472792E0A0000005761726E696E673A94
:10854000204D6F76656420616E20454E562028735D
:10855000697A6520256429206661696C65642077E5
:1085600068656E207265636F766572792E204E6F36
:10857000772077696C6C204743207468656E2072A1
:10858000657472792E0A000030000000310000008E
:108590006465766963655F69640000006961705FA6
:1085A000636F70795F6170705F73697A6500000056
:1085B0006961705F6E6565645F636F70795F61703C
:1085C0007000000073746F705F696E5F626F6F742C
:1085D0006C6F616465720000626F6F745F74696DC7
:1085E000657300000486000800000020E40100001C
:1085F0004E0A0008D8860008E40100204C790000EB
:10860000DC3300084132018210035924F41AAA0114
:108610008113EC821B08F4041112831B08F8081A5A
:10862000F0041AFC041A68101A48041A58041A7044
:10863000041A50041A6004011072182BCDCC0140AA
:108640001151400102030405060708676B6F736F41
:108650006E06114368696E6113A15E4C08CD5950D6
:10866000A90CC113ED714C088972187201320442D1
:10867000023BF00F142910213A100C392913101065
:108680003A0A12314AB00C42203B5011453A400C94
:108690003A210C3A800C12311AEA4529401329324A
:1086A0001408D5271B087D0413AD291B08F90413F2
:1086B00091281408816D1B08A10441132D2D1B085E
:1086C00061041A75041AA90401101BAD612C126211
:0886D0001B0839040110000031
:040000050800018965
:00000001FF
